:020000040800F2
:1000000008260024690300089B5000089D4300084F
:10001000975000089B160008F90201080000000034
:10002000000000000000000000000000FD66000865
:10003000BB180008000000009D50000845E80008BB
:100040008303000883030008830300088303000878
:100050008303000883030008830300088303000868
:100060008303000883030008830300088303000858
:100070008303000883030008830300088303000848
:100080008303000883030008830300088303000838
:100090008303000883030008830300088303000828
:1000A0008303000883030008830300088303000818
:1000B0008303000883030008830300088303000808
:1000C00083030008830300088303000883030008F8
:1000D00083030008830300088303000883030008E8
:1000E0008303000883030008000000008303000866
:1000F00083030008830300088303000883030008C8
:1001000083030008830300088303000883030008B7
:1001100083030008830300088303000883030008A7
:100120008303000883030008830300088303000897
:100130008303000883030008830300088303000887
:1001400000000000000000000000000000000000AF
:100150008303000883030008830300088303000867
:100160008303000883030008830300088303000857
:1001700083030008830300088303000800000000D5
:100180008303000883030008830300088303000837
:100190008303000883030008830300088303000827
:1001A0008303000883030008830300088303000817
:1001B0008303000883030008830300088303000807
:1001C00083030008830300088303000883030008F7
:1001D00083030008830300088303000883030008E7
:1001E00083030008830300088303000883030008D7
:1001F00083030008830300088303000883030008C7
:1002000083030008830300088303000883030008B6
:1002100083030008830300088303000883030008A6
:100220008303000883030008830300080000000024
:100230008303000883030008000000008303000814
:100240008303000883030008830300088303000876
:100250008303000883030008830300088303000866
:100260008303000883030008830300088303000856
:1002700083030008830300088303000800000000D4
:1002800083030008830300088303000800000000C4
:10029000000000008303000800F002F800F055F8A9
:1002A0000AA090E8000C82448344AAF10107DA45D1
:1002B00001D100F04AF8AFF2090EBAE80F0013F0CE
:1002C000010F18BFFB1A43F00103184768C2010071
:1002D00088C20100103A24BF78C878C1FAD8520702
:1002E00024BF30C830C144BF04680C6070470000B0
:1002F0000023002400250026103A28BF78C1FBD82F
:10030000520728BF30C148BF0B607047642900F016
:10031000B381732900F0B784002070471FB518F02F
:1003200065F89DE8030000F0E5FB00F0C3FB040066
:100330000020002118F03CF8401C606000F086FDB1
:100340001FBD10B500F0EBFD10BD00F074FE1146AE
:10035000FFF7E4FF17F052FE00F060FF03B4FFF771
:10036000F0FF03BC00F098FF0948804709480047A8
:10037000FEE7FEE7FEE7FEE7FEE7FEE7FEE7FEE755
:10038000FEE7FEE704480549054A064B70470000B2
:100390001DE900089902000808200024082600240E
:1003A000082200240822002410B500F083FB001D61
:1003B00010BD00BFFD7F010070B5A0FB0140B4F18E
:1003C000805170F1000024BF002070BD204600F075
:1003D00007F805001CBF214600F0BBFA284670BD97
:1003E00070B5064600F062FB056806F10B0020F0D0
:1003F0000704B4429CBF002070BD2B466A68BAB1A6
:100400001068A04210D304F1080188423CBF506834
:10041000586007D35168101941601168091B0160C9
:1004200058601460101D70BD13465268002AE7D151
:100430002146284600F04AFB0028DED170BD70B589
:100440000446051F00F032FB0068002C14BF44680E
:1004500070BD002C18BFAC423CBF20466468F8D386
:1004600001680A18AA4218BF456003D12A680546E8
:100470001144016028684119A1421CBF6C6070BD25
:100480006168696021680844286070BD53EA020C05
:1004900000F069802DE9F04B4FF00006002B1FBFE4
:1004A000B3FA83F503FA05F424FA05F65E4012BFA9
:1004B0001643B2FA82F502FA05F4C5F120051EBF13
:1004C00022FA05FC44EA0C04203556EA044C4FEAB3
:1004D000144418BF641C4FF000084FF0000990420C
:1004E00071EB030C39D3002919BFB1FA81F701FA76
:1004F00007F6B0FA80F700FA07F6C7F120071EBF2B
:1005000020FA07FC46EA0C062037B6FBF4FCA7EB02
:100510000507103F07F01F0BCBF120060CFA0BFB71
:100520002CFA06F644BFB3460026202FA4BF5E4631
:100530004FF0000B5BEA060C08BF4FF0010B19EB04
:100540000B09ABFB027C48EB0608C01B06FB02CC88
:100550000BFB03CC71EB0C01C1E70B460246414695
:100560004846BDE8F08B13B54FF000004FF0000196
:10057000AFF30080BDE81C40704700000FB4044991
:1005800010B503AA029800F083FB10BC5DF814FBC1
:10059000FC1E00240FB41CB5074B06AA7B44694619
:1005A0000090059800F045FB0020694600F054FBE0
:1005B0001CBC5DF814FB0000B90600002DE9F041F9
:1005C0000E460446002020622046E168884730B38A
:1005D000252805D0D4E901219047206A401CF2E784
:1005E000E168204600278847050018D0A5F14100A2
:1005F000192802D820354FF4006732462946204694
:100600002760FFF783FE40B1012804D0F61D26F0D5
:1006100007060836D8E7361DD6E72846DAE7206A07
:10062000BDE8F08170B50C460546012A05D0287852
:10063000800600D5EA69002302E0012305E05B1C87
:10064000934202D2E05C0028F9D1A869E618C01AEA
:10065000A861286A184428622846AFF3008004E0A5
:10066000D5E9012114F8010B9047B442F8D328468C
:10067000AFF3008070BD00002DE9F0410646002474
:1006800010687529314616A510D0AFF300800028F8
:1006900002DA404213A507E031688A0701D512A5A6
:1006A00002E0490704D511A5012401E0AFF3008061
:1006B00000210A2206F1240709E0B0FBF2FCB0FB9E
:1006C000F2F302FB1C00303078541846491C002815
:1006D000F3D123462A463046BDE8F04100F04BBA3C
:1006E000000000002D0000002B0000002000000092
:1006F00070B5064600F0E2F90468054630460A2265
:10070000002100F0D7FA2C6070BD00F00BBB40EA6E
:100710000103024630B59B0710D14FF0013400E0D1
:1007200008C208C91D1B9D4315EAC41FF8D013F069
:10073000FF0102F8011B0DD01B0AF8E711F8013B7D
:10074000002B02F8013B05D011F8013B002B02F809
:10075000013BF3D130BD032A40F2308010F0030C8E
:1007600000F0158011F8013BBCF1020F624498BF04
:1007700011F801CB00F8013B38BF11F8013BA2F1A1
:10078000040298BF00F801CB38BF00F8013B11F01C
:10079000030300F06780083AC0F0088051F8043B7A
:1007A000083A51F804CBA0E80810F5E7121D5CBF29
:1007B00051F8043B40F8043BAFF30080D20724BF5C
:1007C00011F8013B11F801CB48BF11F8012B24BFF0
:1007D00000F8013B00F801CB48BF00F8012B70473F
:1007E000431A28BF9A427FF6B6AF032A1044114439
:1007F00040F2268010F0030F1EBF11F8013D521E7B
:1008000000F8013D10F0030F7FF4F6AF11F0030381
:1008100000F06D80083AC0F00B8051F8043D083AB2
:1008200051F804CD40F8043D40F804CDFFF7F3BF84
:10083000121D5CBF51F8043D40F8043DAFF3008049
:10084000D20724BF11F8013D11F801CD48BF11F8BE
:10085000012C24BF00F8013D00F801CD48BF00F88D
:10086000012C704710B5203AC0F00B80B1E8185049
:10087000203AA0E81850B1E81850A0E81850BFF48A
:10088000F5AF5FEA027C24BFB1E81850A0E8185029
:1008900044BF18C918C0BDE810405FEA827C24BF7D
:1008A00051F8043B40F8043B08BF7047D20728BF0B
:1008B00031F8023B48BF11F8012B28BF20F8023B5A
:1008C00048BF00F8012B7047431A28BF9A427FF6B1
:1008D000C9AF104410F0030F11441EBF11F8013DC1
:1008E000521E00F8013D10F0030F7FF4F6AF103AEE
:1008F000C0F00A8010B531E91850103A20E91850BC
:10090000BFF4F9AFBDE81040530724BF31E9081028
:1009100020E9081044BF51F8043D40F8043D12F0AE
:10092000030F08BF7047D20728BF31F8023D48BF08
:1009300011F8012C28BF20F8023D48BF00F8012C17
:10094000704702F0FF0343EA032242EA024200F04A
:1009500002B84FF000020429C0F0128010F0030C1E
:1009600000F01B80CCF1040CBCF1020F18BF00F8A2
:10097000012BA8BF20F8022BA1EB0C0100F00DB851
:100980005FEAC17C24BF00F8012B00F8012B48BFAF
:1009900000F8012B70474FF0000200B51346944653
:1009A0009646203922BFA0E80C50A0E80C50B1F1C7
:1009B0002001BFF4F7AF090728BFA0E80C5048BFDB
:1009C0000CC05DF804EB890028BF40F8042B08BF79
:1009D000704748BF20F8022B11F0804F18BF00F875
:1009E000012B704710B5044610F0030F08BF11F03B
:1009F000030F40F015804FF0013E121FC0F20E8031
:100A000051F8043BA3EB0E0C2CEA030C1CEACE1CA1
:100A100008BF40F8043BF0D0A1F1040102F1040248
:100A2000521E08DB11F8013B002B00F8013BF7D107
:100A30001146FFF78EFF204610BD00004FF0013C2D
:100A400050F8042B51F8043B9A4215D1A2EB0C0349
:100A5000934313EACC130BD150F8042B51F8043B09
:100A60009A4209D1A2EB0C03934313EACC13E7D0CB
:100A70004FF00000704700BFD01A01BAB1FA81F1FF
:100A800001F0180122FA01F0CB40C1F12001DBB2E4
:100A9000C0B2C01A2CFA01F3D11A914311EAC31162
:100AA000E6D17047704770477047000000487047B4
:100AB000AC1F002400487047C41F00240048704742
:100AC000A41F0024704770477047704738B504462C
:100AD0000A4600206946AFF30080002808BF38BDF1
:100AE00002460099204600F043F9012038BD01205C
:100AF00000F048BAF8B5AFF30080054600200C4678
:100B0000102000BF0646A819A0420DD932466946FA
:100B10000020AFF30080070008BF00F033FA009810
:100B2000A04218BF0546C419FFF7C0FF056007467D
:100B3000F01D20F007004619284600F00AF8B442DC
:100B400008BFF8BDA21B31463868BDE8F84000F088
:100B50000FB900210160C0E90110704710207047F3
:100B600010B5FFF7ABFF006810BD10B50446FFF7E6
:100B7000A5FF046010BD2DE9F0470D469946924649
:100B8000044600F124080168880604D5E06921F0D4
:100B90001001216000E00120A84201DD471B00E0B8
:100BA0000027A1697A1902EB0900081AA0612078D0
:100BB000C00602D42046AFF30080002608E0D4E946
:100BC00001211AF806009047206A401C761C20621A
:100BD0004E45F4DB2078C0060AD52046AFF30080EE
:100BE00006E0D4E9012130209047206A401C2062B1
:100BF000381EA7F10107F4DC07E0D4E9012118F859
:100C000005009047206A401C2062281EA5F10105BE
:100C1000F3DC2046AFF300802078000602D50220E6
:100C2000BDE8F0870120FBE701694A1C02610878F2
:100C3000704700B58FB0CDE901310021059105491C
:100C40007944CDE9031011466846FFF7B7FC0FB0B1
:100C500000BD0000E5FFFFFF0A6802F8010B0A6013
:100C6000704710B5436913B1AFF3008001E0FFF79F
:100C7000D9FC012010BD127800F124010A70002275
:100C80004A700122EDE711684FF0FF32E9E70000FA
:100C9000074B70B50D467B44FFF7CBFF0446284653
:100CA00000F0CFF810B14FF0FF3070BD204670BD9E
:100CB0008F1301002DE9F04791460F468046044608
:100CC000002614F8015B2DB1FFF76EFB0068405D54
:100CD000C007F6D12B2D02D02D2D18D0641E4A4608
:100CE0003946204600F05EF827B13968A14201D1AB
:100CF000C7F800804FF0020471050BD54042002870
:100D000003DDFFF7DBFE0460A007BDE8F08746F4D3
:100D10008066E4E70028F8DAFFF7D0FE04606FF0A1
:100D20000040F2E72DE9F04115460E46040002D1DD
:100D30002C6804B90BA4204600F03BF90444207849
:100D400070B127463146384600F023F90444207834
:100D500010B1002004F8010B38462C60BDE8F0818A
:100D60000027F9E70000000000487047A41F002496
:100D7000034640688C46002818BF88423CBF0346A3
:100D80004068F8D318681844884207D00CF1030073
:100D900020F00700001D411A521A0146081D0A6082
:100DA000FFF74DBB2DE9F05F824615468B460027C5
:100DB0000AF10104B9460078302801D09DB113E052
:100DC00014F8010B0127782803D0582801D045B129
:100DD0000AE00DB1102D07D1002714F8010B1025E2
:100DE00002E0082500E00A250026B0460EE005FBDB
:100DF000080005FB06F101271FFA80F801EB1046F9
:100E0000B6F5803F00D3B94614F8010B294600F02F
:100E100037F90028EBDABBF1000F05D00FB1641EE3
:100E200000E05446CBF80040B9F1000F06D0FFF7C0
:100E300045FE02210160C81EBDE8F09F48EA064059
:100E4000FAE7007B00F080007047000010B54248D0
:100E50005421FFF7A0FD41485421FFF79CFD404875
:100E60005421FFF798FD3F493B483C4A3F4B0860FF
:100E70003D490A603A491960531C0365481C1065D6
:100E8000012008653B48344A39A1784400F02AF92A
:100E900020B9384878440A3800F0CEF937482F4A4C
:100EA00035A1784400F01EF920B9344878440A3856
:100EB00000F0C2F932482A4A2FA1784400F012F912
:100EC00020B92F4878440A3800F0B6F94023224868
:100ED000DC000021224600F0E1F820B125487844EA
:100EE000543800F0A9F91D4822464023002100F0A3
:100EF000D5F820B121487844543800F09DF91848BD
:100F000022461023002100F0C9F8002806D01C4812
:100F10007844BDE81040563800F08EB910BD104836
:100F200070B5006D20F001040B4800F051F90B483A
:100F300000F04EF90A4800F04BF909E0206D20F06E
:100F40000105204600F044F92046FFF778FA2C46C8
:100F5000002CF3D170BD0000A81E0024FC1E00244C
:100F6000501F0024DC000024E0000024E4000024E2
:100F7000720000009AB601007700000086B60100FA
:100F800072B6010010B500F05FF9BDE8104000F046
:100F90004EB930B503461D781DB10A4603E0AC4298
:100FA00001D1181A30BD12F8014B002CF7D15B1C8F
:100FB000F1E730B503461D783DB10A4612F8014B02
:100FC0001CB1AC42FAD15B1CF5E7181A30BD0EB566
:100FD000CDE9000100F08EFA029069460120ABBE17
:100FE0000EBD08B5694600900220ABBE08BD1FB516
:100FF0008DE8070069460520ABBE04B010BD1FB5E3
:101000008DE80F0069460620ABBEF6E708B56946D5
:1010100000900920ABBE08BD1CB5CDE900016946B2
:101020000A20ABBE1CBD704708B5694600900C2075
:10103000ABBE08BD70477546FFF796FEAE4605008D
:101040006946534620F00700854618B020B5FFF7E3
:1010500099F9BDE820404FF000064FF000074FF02F
:1010600000084FF0000B21F00701AC46ACE8C009C6
:10107000ACE8C009ACE8C009ACE8C0098D467047CF
:101080003A2800D2303820F02002412A01D3A2F1C0
:101090003700884201D34FF0FF30704770B5C46805
:1010A000A50713D0650211D4B2F5807F09D0B2F53F
:1010B000007F06D0B2F5806F08D1012300F1240132
:1010C00006E05D1E6FF07F46B54201D3012070BD82
:1010D0000161C361416024F470611143C16000206B
:1010E00070BD00002DE9F0410C460746164610463B
:1010F00000F06EF82078611C61280AD0722802D0B6
:1011000077283CD102E00125002405E002250424D3
:1011100002E0082448F2020511F8010B2B2806D042
:10112000622809D011F8010C74280AD00BE045F0B0
:10113000030544F00204EFE745F0040544F0010420
:10114000EAE744F0100438462146FFF740FF411C0F
:1011500015D00021316171604FF40071F560F161CB
:101160007061200704D530460222002100F09AF871
:10117000306D40F0010030653046BDE8F081002060
:10118000FBE72DE9F0410D460646104C206DC107E6
:1011900004D0410804D020F00104F7E722460EE015
:1011A0005420FFF71DF907000ED0206D47F0010114
:1011B0000843542120653846FFF7EDFB3A4629469F
:1011C0003046BDE8F0418DE70020D6E7A81E002498
:1011D0002DE9F04704464FF000094FF0FF37C5688E
:1011E000D4E90486A80707D0204600F00BF9304662
:1011F000FFF7F7FE002802DA3846BDE8F087280539
:1012000002D54046FFF71BF94C212046FFF7C3FBF0
:10121000206D20F0010020654846EEE710B5044639
:10122000AFF300802046BDE81040FFF797B80028D4
:1012300001D000F031B8704710B500F041F9BDE8B9
:101240001040FFF7F4BF000010B5012805D00021C1
:1012500003A000F01BF9012010BD09A1F8E7000070
:1012600053494752544D454D3A204F7574206F668F
:101270002068656170206D656D6F727900000000F7
:101280003A2048656170206D656D6F727920636FDB
:10129000727275707465640001491820ABBEFEE778
:1012A000260002002DE9F041044616460D46476926
:1012B000007B80072ED03846FFF7A8FE50BB3EB318
:1012C000012E02D0022E25D104E0204600F038F98C
:1012D00005441DE03846FFF7A7FEE168002841F00D
:1012E0001001E16005DA204600F058F80120BDE861
:1012F000F081C9030BD56268E16A914200D81146BA
:10130000A26911442269891A814200DD0846054418
:10131000002D01DA0220EAE7E16A6068E2688142B2
:1013200006D29103E06203D522F4003141F01002AD
:10133000A6690027AE4213DCE16A814201D90B465F
:1013400000E0034603EB060C2369ACEB030CAC4551
:1013500006DD814201D98C4600E084469C4505D1DA
:10136000A760276042F02000A5620DE0AD1BE66992
:10137000AE1B8142A66000D90846C01A281A206018
:101380005819606022F0200003490840E060002006
:1013900084F84870ABE70000BFCFD7FFC16821F4E5
:1013A000001141F08001C16000218160016070473F
:1013B0002DE9F047814614460E464FF0FF3832487B
:1013C000D5685769054209D03846A169FFF724FE60
:1013D000002811DB2C48C0430540E5602B4632460F
:1013E00049463846FFF703FEA16920F00042B21AD1
:1013F00011440028A16103D02046FFF7CFFF4046EB
:10140000BDE8F08770B504460569C06A6168884226
:1014100000D80846E16821F42011E160C90312D523
:10142000A84208D02246411B2846FFF7C1FF10B151
:101430004FF0FF3070BD0020E562C4E90150E06864
:1014400020F48030E060002070BD10B50446C06814
:1014500020F02000E060A16AA06988420DD02046FB
:10146000FFF7D0FFE06820F4405040F01000E0604B
:10147000A06AA0612069E062606044F24001E06817
:101480008843E06010BD00001000020070B5054602
:101490000C460A2000E06D1C00F04BF835B12878AE
:1014A0000028F8D102E0641C00F043F814B1207861
:1014B0000028F8D1BDE870400A2000F03AB80000DA
:1014C00010B5014602A0FFF7E1FF012010BD0000AA
:1014D00053494752545245443A20526564697265F3
:1014E00063743A2063616E2774206F70656E3A20D2
:1014F0000000000010B5431C02E010F8011B71B1A0
:101500008107FAD14FF0013202C88C1A8C4314EAD9
:10151000C211F9D0C01A0A0603D0C01E10BDC01AED
:1015200010BD0A0401D0801E10BD0902FCD0401E6F
:1015300010BD08B569468DF800000320ABBE08BD9C
:1015400010B50146C268900703D0900607D5886A97
:101550000AE0FFF7B3FA01210160881E10BD8B6914
:10156000486818440B69C01A91F848301BB191F8CB
:101570004910401A10BD1103FCD50028FADD401EA9
:1015800010BDF0B505AC94E8F010F0BD2DE9FF5F9B
:1015900004460D4616461F46DDE910ABDDE90E890F
:1015A00000F0B4FE01208DF80000CDF8048009F0B1
:1015B000FF008DF808008DF80B6012988DF80F0071
:1015C0008DF80EB08DF80DA08DF801408DF80A70E1
:1015D00000208DF809008DF80C50684600F068FE78
:1015E000042000F0A9FEBDE8FF9FF0B505ACF0CCEB
:1015F000F0BDF0B585B007460E4614461D46052ED3
:1016000048D2DFE806F003111F2D3A000120002226
:10161000CDE90220134603220021CDE900450490C4
:101620003846FFF7B3FF35E001200022CDE9022064
:10163000034603220021CDE9004504903846FFF718
:10164000A5FF27E000200121CDE901500346032238
:101650000094CDE9031001463846FFF797FF19E0E3
:101660000020CDE90150039001230322014600949C
:1016700004903846FFF78AFF0CE00020CDE90150C6
:101680000390022303220146009404903846FFF79A
:101690007DFF00BF00BF05B0F0BD00BFFEE7F0B5A5
:1016A00005AC94E8F010F0BD30B5DDE9034530BD80
:1016B00070B50646DDE90445002070BD70B50646EC
:1016C000DDE90445002070BDB0EE402A22EE210A7B
:1016D00001EE600A7047000000B5B5B000BF3948A0
:1016E000006840F00100374908600846006800F0D3
:1016F0000100009000BF00BF00BF0846006840F036
:10170000010008600846006800F00100009000BF7A
:1017100000BF0120019000201F9001A801F004F9F2
:1017200000BF28481030006840F0100025491031F3
:1017300008600846006800F01000009000BF00BF7D
:101740004FF400703090022031900120329002203E
:1017500033900720349030A91B4800F089FB4FF4E8
:10176000806030900720349030A9174800F080FB4B
:101770001648174908604FF4E130486000211448CA
:101780008160C16001610C21416100218161C16101
:10179000016200200E498862084602F058FD0022CE
:1017A0001146252000F0F8FD252000F0E5FD084851
:1017B0000068006840F0200005490968086035B0FD
:1017C00000BD0000E0440258000002580010014033
:1017D000E01D00242DE9F0470C4617469C46DDF835
:1017E0002080D0F80090D9F8449009F0404948EAA8
:1017F0000C4A49EA0A09D0F800A0CAF84490D0F887
:101800000090C9F83C70D0F80490B9F5403F4ED133
:1018100004F07F4604F47F0104F47F42E3B2D0F881
:101820000890B9F1000F06D142EA010949EA060918
:1018300049EA030536E0D0F80890B9F1010F04D168
:1018400042EA010949EA03052CE0D0F80890B9F111
:10185000020F09D1C90C920ADB084FEA421949EA82
:10186000C12949EA03051DE0D0F80890B9F1030F3A
:101870000CD1F60FC90CD20ADB084FEA421949EA2B
:10188000812949EAC63949EA03050BE0360F090DFB
:10189000120B1B094FEA021949EA012949EA0639E4
:1018A00049EA0305D0F80090C9F8385003E0D0F8B1
:1018B0000090C9F80C40BDE8F0877047704770474A
:1018C00070B504AC70CC70BD70B504AC70CC70BD9C
:1018D000704702460868B0B9D1E901031843CB68E4
:1018E00018430B6918434B6918438B691843CB693C
:1018F00018430B6A18434B6A184313686FF30E03BF
:101900001843106019E0D1E9070318434B6A1843E4
:10191000136823F4F84318431060D1E90103184316
:10192000CB6818430B6918434B6918438B691843FC
:1019300053686FF30E03184350600020704702464F
:10194000506943F6FE73984340EA4100506100201D
:10195000704710B50346D1E9000420438C68641E2B
:1019600040EA4410CC6840EA44201C6920431861D6
:10197000002010BD30B50346FAB90868401E4C6817
:10198000641E40EA04148868401E44EA0024C868C3
:10199000401E44EA0034088A401E44EA0044888A13
:1019A000401E44EA0054087E401E44EA00609C68E1
:1019B00004F070442043986022E0C868401E04038D
:1019C000888A401E44EA00509C680E4D2C402043FB
:1019D00098600868401E4C68641E40EA04148868D9
:1019E000401E44EA0024088A401E44EA0044087E5F
:1019F000401E44EA0060DC6804F070442043D86074
:101A0000002030BDFF0F0FFF2DE9F04106460F46C5
:101A1000B468B4681AE02546B5B1287B20280BD1FC
:101A2000A846F9B2D8F8340114F057FE0120D8F8CE
:101A3000341181F8560008E039462046FFF7E4FFEC
:101A400010B10120BDE8F08100BF6468002CE2D134
:101A50000020F7E770B504460D46264605A010F0B5
:101A600014FB2946204611F02DFF95F8570070779A
:101A700070BD00002E2E5C2E2E5C4755495C6974AB
:101A8000755F666164656566666563742E633A3585
:101A90003700000070B504460D46264605A010F03C
:101AA000F4FA2946204611F012FF707F85F857009E
:101AB00070BD00002E2E5C2E2E5C4755495C69746B
:101AC000755F666164656566666563742E633A3644
:101AD0003900000070B504460D462646307F40B1FF
:101AE000707F61684843216890FBF1F085F85700EA
:101AF00009E0D4E90001401A717F4843216890FB56
:101B0000F1F085F8570095F857102846FFF77CFF4D
:101B10002946204611F0E0FE70BD70477047002056
:101B200070472DE9F04307AC94E8F010DDE90C892B
:101B3000BDE8F083F0B505ACF0CCF0BD70B5024661
:101B40000C465068B0F5403F02D0506800B100BF6D
:101B5000012C09D1C4EBC40602F1200000EB860081
:101B600040680B2800D100BF00BF92F85800012840
:101B700001D1022070BD012082F8580000BF022070
:101B800082F85900C4EBC40602F1200000EB860184
:101B90000E89486840EA06400E8A40EA06508E8A5E
:101BA00040EA4653254D48680A2802D0486809286B
:101BB00004D1C86800F07F40034302E0087B43EA99
:101BC0000063A4B91068406AA8431843166870629D
:101BD00008681668B06148680A2802D04868092871
:101BE00021D1C86820F07F401668B0621BE04868C9
:101BF0000B2804D1088B43EA804345F44025106844
:101C0000C069A84318431668F06108681668306117
:101C100048680A2802D04868092804D1C86820F01A
:101C20007F4016683062012082F8590000BF002012
:101C300082F8580000BF00BF9CE700000F0033FF90
:101C400010B504460CB9012010BD94F8590028B90C
:101C5000002084F85800204600F02EF8022084F876
:101C600059002068006820F440306168084321680A
:101C700008602068406B20F00700A16808432168D5
:101C800048632068006C6FF30D00E1680843216829
:101C90000864208A0105A08A41EA40502168496B06
:101CA00021F440110843216848630020E0650120C9
:101CB00084F859000020C7E77047F8B504460D4680
:101CC000002000902068006800F00100002843D048
:101CD00000F0DEF9064639E0206840680090009880
:101CE00000F02100E0B1009800F0200018B1E06D94
:101CF00040F00200E065009800F0010018B1E06DCE
:101D000040F00100E065212021688860042084F80B
:101D1000590000BF002084F8580000BF0120F8BD22
:101D2000681C98B100F0B4F9801BA84200D86DB9C6
:101D3000E06D40F02000E065032084F8590000BF0A
:101D4000002084F8580000BF0320E8E720684068BE
:101D500000F002000028BFD02068C06900F0200712
:101D60002068406A00F020000743002F4BD000F0AD
:101D70008FF9064641E0206840680090009800F026
:101D8000290020B3009800F0080018B1E06D40F081
:101D90000400E065009800F0200018B1E06D40F00C
:101DA0000200E065009800F0010018B1E06D40F01D
:101DB0000100E065292021688860042084F859002A
:101DC00000BF002084F8580000BF0120A7E7681C6E
:101DD00098B100F05DF9801BA84200D86DB9E06DA4
:101DE00040F02000E065032084F8590000BF002087
:101DF00084F8580000BF032091E72068406800F095
:101E000010000028B7D0122021688860012084F8D3
:101E1000590000BF002084F8580000BF00BF7EE7D3
:101E20002DE9F84304460D4616461F46DDF820808E
:101E300000BF94F85800012802D10220BDE8F883C1
:101E4000012084F8580000BF022084F859003B4666
:101E5000324629462046CDF80080FFF7BBFC2068BB
:101E6000006840F00100216808600020E6E70000FB
:101E7000F8B502460023734DDEE001279F400E684F
:101E800006EA0704002C71D04E68022E02D04E687C
:101E9000122E13D1DF0802F1200656F827005E0744
:101EA000F70E0F26BE40B0435F07FF0E0E69BE401F
:101EB0003043DF0802F1200646F8270010685F0073
:101EC0000326BE40B0430E7906F003065F00BE4015
:101ED000304310604E68012E08D04E68022E05D0A7
:101EE0004E68112E02D04E68122E13D190685F00FA
:101EF0000326BE40B0435F00CE68BE4030439060D2
:101F0000506801269E40B0430E79C6F300169E40ED
:101F100030435060D0685F000326BE40B0435F008E
:101F20008E68BE403043D0604E6806F08056B6F1F1
:101F3000805F1BD100BF444E366846F00206424F18
:101F40003E603E46366806F00206009600BF00BFBF
:101F50003E4E9F0856F827009E07370F0F26BE40BB
:101F6000B0433B4EB24202D100262EE063E0394E30
:101F7000B24201D1012628E0374EB24201D10226F9
:101F800023E0364EB24201D103261EE0344EB24267
:101F900001D1042619E0334EB24201D1052614E0E6
:101FA000314EB24201D106260FE0304EB24201D18D
:101FB00007260AE02E4EB24201D1082605E02D4E3A
:101FC000B24201D1092600E00A269F073F0FBE401A
:101FD00030431E4E9F0846F827002868A0434E68ED
:101FE00006F48036B6F5803F00D12043286068684B
:101FF000A0434E6806F40036B6F5003F00D12043FA
:1020000068604FF0B0463068A0434E6806F4801612
:10201000B6F5801F00D120434FF0B04630607068A5
:10202000A0434E6806F40016B6F5001F00D1204309
:102030004FF0B04670605B1C0E68DE40002E7FF4EF
:102040001CAFF8BD80000058F44402580804005842
:10205000000002580004025800080258000C025800
:10206000001002580014025800180258001C0258B0
:1020700000200258002402580AB1816101E00B04DB
:102080008361704701480068000C70470010005CD5
:10209000044840680449B0FBF1F04FF47A714843BA
:1020A00070470000001000E000389C1C0146084802
:1020B000006840F08070064A10600020054A5060B9
:1020C0001046006840F001001060002070470000DA
:1020D000FCED00E0001000E070B504460E46154629
:1020E00000BF94F8A000012801D1022070BD01209A
:1020F00084F8A00000BF022084F8A10005EB850150
:1021000001EBC50204F1380101EB820034223146B3
:10211000FEF7A8FB2A463146204602F04FFE01207A
:102120002168486284F8A10000BF002084F8A00064
:1021300000BF00BFDAE7000070B504460CB901200B
:1021400070BD94F8A10028B9002084F8A0002046B2
:1021500000F07EF8022084F8A1002068806920F059
:10216000704021688861D4E901010843E1680843AF
:1021700021690843216889690843216888612068CA
:1021800080683249084021688860A08A0504206878
:102190008068A16929430843216888602068C06875
:1021A0002A4908402168C860A08B05042068C068DF
:1021B000216A294308432168C860206800692349CF
:1021C000084021680861A08C050420680069A16AA4
:1021D0002943084321680861206840691B49084079
:1021E00021684861A08D050420684069216B29435E
:1021F00008432168486194F83500050294F83600D8
:1022000006042068C06A00F07F402168C86246EA80
:10221000050094F8341008432168C96A084321680E
:10222000C8622068406B40F006002168486320685F
:10223000806940F00100216888610020C4F8A40092
:10224000012084F8A10000207AE7000000F800F0E7
:1022500070472DE9F04104460E46174600BF94F83A
:10226000A000012802D10220BDE8F081012084F8FD
:10227000A00000BF022084F8A10007EB870000EB5C
:10228000C70104F1380000EB81056E613A4629462A
:10229000204602F093FD01202168486284F8A100E5
:1022A00000BF002084F8A00000BF00BFDCE70000F2
:1022B0004178154A11600178F9B1121D4168116029
:1022C000017B0907C27A41EA0261827A41EAC2418E
:1022D000427B41EA8241827B41EA4241C27B41EA40
:1022E0000241427A41EA0221027A41EA420102783D
:1022F0001143054A0832116005E00021024A121D0F
:102300001160121D1160704798ED00E000BF00BF22
:1023100000BFBFF35F8F00BF00BF00BF054800686C
:1023200020F48030034908600020024970310860C1
:102330007047000024ED00E040F001010D4A1160FB
:102340000C497039096841F480310A4A703A1160C9
:1023500000BF00BF00BFBFF34F8F00BF00BF00BF73
:1023600000BF00BF00BFBFF36F8F00BF00BF00BF43
:102370007047000094ED00E001460846002809DBA4
:1023800000F01F0301229A4043099B0003F1E02360
:10239000C3F8002100BF70472DE9F05F80460D466D
:1023A00016460DF0EFFF074639462A46334601F040
:1023B0000700C0F1070ABAF1040F02D94FF0040A6E
:1023C00001E0C0F1070AD14600F1040ABAF1070F93
:1023D00002D24FF0000A01E0A0F1030AD4464FF008
:1023E000010A0AFA09FAAAF1010A0AEA020A0AFA31
:1023F0000CFA4FF0010B0BFA0CFBABF1010B0BEAE3
:10240000030B4AEA0B04214640460DF0C3FFBDE82A
:10241000F09F000070B504461548006800F0040005
:10242000042807D01248006800F00700A04201D03D
:10243000012070BD0E48006820F0070020430C49C1
:102440000860FFF725FE054607E0FFF721FE401B69
:10245000B0F57A7F01D90320EBE70548083800681A
:1024600000F40050B0F5005FEFD10020E1E700007C
:102470000C48025810B501F0B5F907490968C1F3D5
:102480000321064A515C01F01F01C840044908605D
:102490000846006810BD000018440258E684010890
:1024A0000000002410B501F061F905490968C1F385
:1024B0000211044A515C01F01F01C84010BD000028
:1024C00020440258E684010870B50146844D2D6809
:1024D00005F00303824D2D68C5F30530804D2D1D99
:1024E0002D6805F010047E4D14352D68C5F3CC051C
:1024F00015FB04F501EE105AB8EE411AF0EE410A50
:1025000000286FD023B1012B4ED0022B6BD16BE092
:10251000734D283D2D68C5F340153DB3704D283DE2
:102520002D68C5F3C1066F4D25FA06F201EE102A9B
:10253000F8EE411A01EE100AB8EE411A81EE812A36
:102540009FED691AC0EE811A654D10352D68C5F3EF
:10255000080501EE105AB8EE411A31EE811AF7EE75
:10256000001A31EE211A22EE010A1CE001EE100AD7
:10257000B8EE411ADFED5D1A81EE812A9FED5A1AFD
:10258000C0EE811A564D10352D68C5F3080501EED1
:10259000105AB8EE411A31EE811AF7EE001A31EEF8
:1025A000211A22EE010A5BE001EE100AB8EE411A90
:1025B000DFED4F1A81EE812A9FED4B1AC0EE811A92
:1025C000474D10352D68C5F3080501EE105AB8EED9
:1025D000411A31EE811AF7EE001A31EE211A22EE7D
:1025E000010A3DE077E01DE001EE100AB8EE411A65
:1025F0009FED402AC2EE011A9FED3B1A80EE812A20
:10260000374D10352D68C5F3080501EE105AB8EEA8
:10261000411A32EE011AB7EE002A31EE021A21EE0B
:10262000810A1DE001EE100AB8EE411ADFED301A02
:1026300081EE812A9FED2C1AC0EE811A284D1035AB
:102640002D68C5F3080501EE105AB8EE411A31EEB7
:10265000811AF7EE001A31EE211A22EE010A00BFAC
:1026600000BF1F4D10352D68C5F3462501EE105AE9
:10267000B8EE411AF7EE001A31EE211AC0EE011A37
:10268000BCEEE11A81ED001A154D10352D68C5F329
:10269000064501EE105AB8EE411AF7EE001A31EE77
:1026A000211AC0EE011ABCEEE11A81ED011A0C4D9F
:1026B00010352D68C5F3066501EE105AB8EE411AC3
:1026C000F7EE001A31EE211AC0EE011ABCEEE11A43
:1026D00081ED021A03E000250D604D608D6070BD34
:1026E000284402580090D003000000460024744C97
:1026F0000024744A20BCBE4B70B50146844D2D6841
:1027000005F00303824D2D68C5F30550804D2D1D46
:102710002D6805F480747E4D1C352D68C5F3CC05FD
:1027200015FB04F501EE105AB8EE411AF0EE410A1D
:1027300000286FD023B1012B4ED0022B6BD16BE060
:10274000734D283D2D68C5F340153DB3704D283DB0
:102750002D68C5F3C1066F4D25FA06F201EE102A69
:10276000F8EE411A01EE100AB8EE411A81EE812A04
:102770009FED691AC0EE811A654D18352D68C5F3B5
:10278000080501EE105AB8EE411A31EE811AF7EE43
:10279000001A31EE211A22EE010A1CE001EE100AA5
:1027A000B8EE411ADFED5D1A81EE812A9FED5A1ACB
:1027B000C0EE811A564D18352D68C5F3080501EE97
:1027C000105AB8EE411A31EE811AF7EE001A31EEC6
:1027D000211A22EE010A5BE001EE100AB8EE411A5E
:1027E000DFED4F1A81EE812A9FED4B1AC0EE811A60
:1027F000474D18352D68C5F3080501EE105AB8EE9F
:10280000411A31EE811AF7EE001A31EE211A22EE4A
:10281000010A3DE077E01DE001EE100AB8EE411A32
:102820009FED402AC2EE011A9FED3B1A80EE812AED
:10283000374D18352D68C5F3080501EE105AB8EE6E
:10284000411A32EE011AB7EE002A31EE021A21EED9
:10285000810A1DE001EE100AB8EE411ADFED301AD0
:1028600081EE812A9FED2C1AC0EE811A284D183571
:102870002D68C5F3080501EE105AB8EE411A31EE85
:10288000811AF7EE001A31EE211A22EE010A00BF7A
:1028900000BF1F4D18352D68C5F3462501EE105AAF
:1028A000B8EE411AF7EE001A31EE211AC0EE011A05
:1028B000BCEEE11A81ED001A154D18352D68C5F3EF
:1028C000064501EE105AB8EE411AF7EE001A31EE45
:1028D000211AC0EE011ABCEEE11A81ED011A0C4D6D
:1028E00018352D68C5F3066501EE105AB8EE411A89
:1028F000F7EE001A31EE211AC0EE011ABCEEE11A11
:1029000081ED021A03E000250D604D608D6070BD01
:10291000284402580090D003000000460024744C64
:102920000024744A20BCBE4B2DE9F041044600252A
:10293000A846206800F00060B0F1006F30D1606EF2
:1029400048B1B0F5801F0DD0B0F5001F10D0B0F524
:10295000401F15D113E0F948006840F40030F749F2
:1029600008600FE00221201D02F0A4FB054609E0EB
:10297000022104F1240002F04FFC054602E001E0D0
:10298000012500BF00BF55B9EC482430006820F491
:102990004010616E0843E9492431086000E0A84610
:1029A000208800F48070B0F5807F2DD1606D0528FF
:1029B0001AD2DFE800F0030A10171800DF48006899
:1029C00040F40030DD49086010E00021201D02F0D5
:1029D00071FB05460AE0002104F1240002F01CFC12
:1029E000054603E002E001E0012500BF00BF55B944
:1029F000D2482430006820F00700616D0843CF49B9
:102A00002431086000E0A846208800F40070B0F58A
:102A1000007F33D1A06D802817D003DC40B140285F
:102A20001CD10CE0C02817D0B0F5807F16D114E07F
:102A3000C248006840F40030C049086010E000213E
:102A4000201D02F037FB05460AE0002104F12400B6
:102A500002F0E2FB054603E002E001E0012500BFD1
:102A600000BF55B9B5482430006820F4E070A16D6E
:102A70000843B2492431086000E0A846208800F4E9
:102A80008060B0F5806F38D1D4F8A400B0F5800F25
:102A900019D004DC50B1B0F5001F1DD10DE0B0F528
:102AA000C00F17D0B0F5000F16D114E0A34800688E
:102AB00040F40030A149086010E00021201D02F020
:102AC000F9FA05460AE0002104F1240002F0A4FB13
:102AD000054603E002E001E0012500BF00BF5DB94B
:102AE00096482C30006820F46000D4F8A410084305
:102AF00092492C31086000E0A846208800F400606C
:102B0000B0F5006F38D1D4F8A800B0F1007F19D02B
:102B100004DC50B1B0F1807F1DD10DE0B0F1407FF9
:102B200017D0B0F1806F16D114E08448006840F4EB
:102B300000308249086010E00021201D02F0BAFA3E
:102B400005460AE0002104F1240002F065FB054679
:102B500003E002E001E0012500BF00BF5DB9774856
:102B60002C30006820F0E060D4F8A81008437349C6
:102B70002C31086000E0A846206800F00070B0F139
:102B8000007F27D1A06CA0B1102804D0202809D044
:102B900030280FD10CE06948006840F400306749E4
:102BA000086009E00221201D02F084FA054603E0D6
:102BB00002E001E0012500BF00BF55B95F482030A9
:102BC000006820F03000A16C08435C4920310860A7
:102BD00000E0A846208800F48050B0F5805F36D130
:102BE000E06DB0F5005F19D004DC50B1B0F5805F46
:102BF0001DD10DE0B0F5405F17D0B0F5804F16D174
:102C000014E04E48006840F400304C49086010E081
:102C10000021201D02F04EFA05460AE0002104F1D1
:102C2000240002F0F9FA054603E002E001E0012584
:102C300000BF00BF55B941482430006820F4E0408F
:102C4000E16D08433D492431086000E0A846208832
:102C500000F40050B0F5005F34D1206EB0F5403F75
:102C60001DD007DC68B1B0F5803F0BD0B0F5003F58
:102C700018D10DE0B0F5802F12D0B0F5A02F11D1F2
:102C80000FE011E00121201D02F014FA05460BE0CF
:102C9000012104F1240002F0BFFA054604E003E03C
:102CA00002E001E0012500BF00BF55B923482430F0
:102CB000006820F4E020216E084320492431086098
:102CC00000E0A846208800F48040B0F5804F38D15D
:102CD000D4F8AC00B0F1405F1DD007DC68B1B0F1B2
:102CE000805F0BD0B0F1005F18D10DE0B0F1804FE4
:102CF00012D0B0F1A04F11D10FE011E00121201D41
:102D000002F0D8F905460BE0012104F1240002F09D
:102D100083FA054604E003E002E001E0012500BF7C
:102D200000BF6DB905482C30006820F0E040D4F8B1
:102D3000AC10084301492C31086002E02C440258D1
:102D4000A846208800F40040B0F5004F26D1E06E80
:102D500098B1B0F1805F03D0B0F1005F0ED106E012
:102D6000F948006840F40030F749086008E00121A4
:102D7000201D02F09FF9054602E001E0012500BF99
:102D800000BF55B9F0482430006820F04050E16E93
:102D90000843ED492431086000E0A846206800F0AF
:102DA0008070B0F1807F27D1606CA0B1012804D081
:102DB000022809D003280FD10CE0E348006840F452
:102DC0000030E149086009E00221201D02F072F99B
:102DD000054603E002E001E0012500BF00BF55B950
:102DE000D9482030006820F00300616C0843D649C0
:102DF0002031086000E0A846206800F48000B0F5AB
:102E0000800F7DD1D148006840F48070CF490860C0
:102E1000FFF73EF9064606E0FFF73AF9801B642803
:102E200001D9032505E0C948006800F48070002836
:102E3000F2D000BF85BBC4484430006800F4407045
:102E4000B4F8B01001F44071884213D0BE48443049
:102E5000006820F44077BC484430006840F480307B
:102E6000B949443108600846006820F480300860A1
:102E700008460760D4F8B000B0F5807F15D1FFF7A1
:102E800007F9064609E0FFF703F9801B41F2883194
:102E9000884202D9032507E038E0AB484430006897
:102EA000C0F340000028EED000BF55BB00BFB4F80F
:102EB000B00000F44070B0F5407F0ED1A2481C383D
:102EC000006820F47C51A24AD4F8B000104041EAD6
:102ED00010109D491C39086007E09B481C380068A9
:102EE00020F47C5098491C390860974844300068A9
:102EF000B4F8B010C1F30B0108439349443101E029
:102F000005E001E0086002E0A84600E0A84620785D
:102F100000F0010068B3A06F182819D005DC48B193
:102F2000082808D0102816D10BE0202811D0282816
:102F300011D10FE011E00121201D02F0BBF8054680
:102F40000BE0012104F1240002F066F9054604E0DB
:102F500003E002E001E0012500BF00BF55B97A4857
:102F60002830006820F03800A16F084376492831E6
:102F7000086000E0A846207800F00200022828D16E
:102F8000606F062815D2DFE800F003040A1112135F
:102F900011E00121201D02F08DF805460BE0012112
:102FA00004F1240002F038F9054604E003E002E0F1
:102FB00001E0012500BF00BF55B963482830006813
:102FC00020F00700616F08435F492831086000E086
:102FD000A846207800F0040004282AD1D4F89000F4
:102FE000062815D2DFE800F003040A11121311E0DD
:102FF0000121201D02F05EF805460BE0012104F1DD
:10300000240002F009F9054604E003E002E001E0D3
:10301000012500BF00BF5DB94B482C30006820F08F
:103020000700D4F89010084347492C31086000E0AD
:10303000A846207800F02000202836D1D4F88C0053
:10304000B0F1405F1DD007DC68B1B0F1805F0BD0FC
:10305000B0F1005F18D10DE0B0F1804F12D0B0F1A7
:10306000A04F11D10FE011E00021201D02F022F845
:1030700005460BE0022104F1240002F0CDF80546DC
:1030800004E003E002E001E0012500BF00BF5DB9FC
:103090002D482830006820F0E040D4F88C10084318
:1030A00029492831086000E0A846207800F0400057
:1030B000402836D1D4F89800B0F5406F1DD007DC19
:1030C00068B1B0F5806F0BD0B0F5006F18D10DE08E
:1030D000B0F5805F12D0B0F5A05F11D10FE011E024
:1030E0000021201D01F0E6FF05460BE0022104F15E
:1030F000240002F091F8054604E003E002E001E05C
:10310000012500BF00BF5DB90F482C30006820F4D6
:10311000E050D4F8981008430B492C31086000E0C7
:10312000A846207800F0800080283AD1D4F89C008E
:10313000B0F5C04F23D00DDC98B1B0F5005F11D0D1
:10314000B0F5804F1ED113E02C44025800480258BD
:10315000FFFCFF0FB0F5004F12D0B0F5204F11D19A
:103160000FE011E00021201D01F0A4FF05460BE057
:10317000022104F1240002F04FF8054604E003E0C8
:1031800002E001E0012500BF00BF4DB9B64800686C
:1031900020F46040D4F89C100843B349086000E074
:1031A000A846207800F00800082818D1D4F880003C
:1031B000B0F5805F08D1022104F1240002F02CF860
:1031C00068B14FF001080AE0A748001F006820F42A
:1031D0004050D4F880100843A349091F08602078A4
:1031E00000F01000102816D1D4F89400B0F5807FBC
:1031F00008D1022104F1240002F00EF858B14FF07A
:10320000010808E09848006820F44070D4F8941051
:10321000084395490860206800F40020B0F5002FAD
:1032200026D1D4F8A00030B1B0F5803F09D0B0F578
:10323000003F0ED10CE00021201D01F03BFF0546B0
:1032400009E0022104F1240001F0E6FF054602E056
:1032500001E0012500BF00BF4DB98348006820F49C
:103260004030D4F8A01008437F49086000E0A84629
:10327000206800F48020B0F5802F2DD1D4F8840090
:10328000B0F5801F06D0B0F5001F0CD0B0F5401F80
:1032900011D10FE074482C38006840F400307249B6
:1032A0002C39086009E0012104F1240001F0B4FF89
:1032B000054602E001E0012500BF00BF5DB96A4894
:1032C000001F006820F44010D4F8841008436649B9
:1032D000091F086000E0A846206800F48030B0F5BF
:1032E000803F24D1E06C18B1B0F5803F0FD108E0E9
:1032F0005D482C38006840F400305B492C39086088
:1033000007E00221201D01F0D5FE054601E0012560
:1033100000BF00BF55B954480C38006820F4803015
:10332000E16C084350490C39086000E0A846206869
:1033300000F00050B0F1005F07D1022104F1240039
:1033400001F06AFF08B14FF00108206800F4003076
:10335000B0F5003F27D1E06FA0B1B0F5807F06D077
:10336000B0F5007F0CD0B0F5407F0CD109E03E48AD
:103370002C38006840F400303B492C39086004E0E8
:1033800003E002E001E0012500BF00BF55B9364867
:10339000001F006820F44070E16F08433249091FA4
:1033A000086000E0A846206800F48010B0F5801F97
:1033B00009D12D480838006820F00040216F0843EB
:1033C000294908390860206800F08050B0F1805F1A
:1033D0000AD125484838006820F48040D4F8B41059
:1033E0000843214948390860206800F40010B0F50E
:1033F000001F09D11C480838006820F08070A16EB9
:103400000843194908390860206800F08040B0F18D
:10341000804F11D100BF14484838006820F40040A4
:1034200011494839086008460068D4F8B8100843C4
:103430000D494839086000BF206800F00040B0F135
:10344000004F09D108480C38006820F04050216D29
:10345000084305490C390860B8F1000F02D100207B
:10346000BDE8F0810120FBE7584402582DE9F04106
:1034700004460D4614B90120BDE8F081B648006845
:1034800000F00F00A8420ED2B348006820F00F00F1
:103490002843B14908600846006800F00F00A842C0
:1034A00001D00120E8E7207800F0040004280ED1C4
:1034B000AA492069096801F07001884207D9A74824
:1034C000006820F0700021690843A4490860207852
:1034D00000F00800082811D1A049091D6069096899
:1034E00001F07001884209D99C48001D006820F055
:1034F0007000616908439949091D0860207800F04F
:103500001000102811D19549091DA069096801F41E
:10351000E061884209D99148001D006820F4E0600C
:10352000A16908438D49091D0860207800F020003A
:10353000202811D189490831E069096801F070013A
:10354000884209D985480830006820F07000E16998
:103550000843824908310860207800F00200022800
:103560000ED17E49E068096801F00F01884207D951
:103570007A48006820F00F00E16808437749086046
:10358000207800F00100002850D07448006820F432
:103590007060A1680843714908606068022807D11B
:1035A0006E4818380068C0F34040F8B9012063E75E
:1035B0006068032807D1694818380068C0F3406084
:1035C000A0B9012058E76068012807D1634818387E
:1035D0000068C0F3002048B901204DE75F48183863
:1035E0000068C0F3800008B9012045E75B4808384F
:1035F000006820F0070061680843584908390860EE
:10360000FEF746FD064608E0FEF742FD801B41F24C
:103610008831884201D903202EE7504808380068D5
:1036200000F038006168B0EBC10FEDD1207800F0F8
:10363000020002280ED14949E068096801F00F0133
:10364000884207D24548006820F00F00E16808432F
:10365000424908604048006800F00F00A8420ED9B7
:103660003D48006820F00F0028433B4908600846A9
:10367000006800F00F00A84201D00120FCE620788D
:1036800000F0040004280ED134492069096801F0D3
:103690007001884207D23148006820F0700021692B
:1036A00008432E490860207800F00800082811D14E
:1036B0002A49091D6069096801F07001884209D230
:1036C0002648001D006820F0700061690843234906
:1036D000091D0860207800F01000102811D11F4942
:1036E000091DA069096801F4E061884209D21B48FC
:1036F000001D006820F4E060A16908431749091D16
:103700000860207800F02000202811D113490831EA
:10371000E069096801F07001884209D20F48083059
:10372000006820F07000E16908430C490831086026
:1037300000F058F809490968C1F30321084A515CAF
:1037400001F01F01C8400749086007480068FEF7FC
:10375000ADFC074638468FE6002000521844025858
:10376000E6840108000000240C00002410B5FEF7D8
:1037700081FE0749096801F00F01064A515C01F01A
:103780001F01C840044908600846006810BD0000D9
:1037900018440258E68401080400002410B5FFF71D
:1037A000E5FF05490968C1F30211044A515C01F0C3
:1037B0001F01C84010BD00001C440258E6840108E7
:1037C00010B5FFF7D3FF05490968C1F30221044A88
:1037D000515C01F01F01C84010BD00001C4402589C
:1037E000E6840108F0B5824E366806F0380636B138
:1037F000082E15D0102E15D0182E7DD114E07C4E39
:10380000103E3668C6F3401646B1794E103E366813
:10381000C6F3C107774E26FA07F000E07548E5E0E9
:103820007548E3E07548E1E0714E1836366806F0F9
:1038300003046F4E18363668C6F305116C4E1C36FD
:10384000366806F001056A4E24363668C6F3CC06A3
:1038500016FB05F601EE106AB8EE410A002971D098
:1038600024B1012C50D0022C6DD16DE0604E103E81
:103870003668C6F340163EB35D4E103E3668C6F35A
:10388000C1075C4E26FA07F301EE103AF8EE411A32
:1038900001EE101AB8EE411A81EE812A9FED581AF6
:1038A000C0EE011A524E20363668C6F3080601EE05
:1038B000106AB8EE411A31EE811AF7EE001A31EEB5
:1038C000211A62EE010A1EE001EE101AB8EE411A4A
:1038D000DFED4C1A81EE812A9FED491AC0EE011AE4
:1038E000434E20363668C6F3080601EE106AB8EE7D
:1038F000411A31EE811A00E076E0F7EE001A31EE5F
:10390000211A62EE010A5BE001EE101AB8EE411ACC
:103910009FED3D2AC2EE011A9FED391A80EE012A71
:10392000334E20363668C6F3080601EE106AB8EE4C
:10393000411A32EE011AB7EE002A31EE021A61EE98
:10394000810A3DE04EE01DE001EE101AB8EE411A8A
:10395000DFED2E1A81EE812A9FED291AC0EE011AA1
:10396000234E20363668C6F3080601EE106AB8EE1C
:10397000411A31EE811AF7EE001A31EE211A62EE89
:10398000010A1DE001EE101AB8EE411A9FED1E2A41
:10399000C2EE011A9FED1A1A80EE012A144E20364B
:1039A0003668C6F3080601EE106AB8EE411A32EE28
:1039B000011AB7EE002A31EE021A61EE810A00BF49
:1039C00000BF0B4E20363668C6F34626721C01EE49
:1039D000102AB8EE411AC0EE811ABCEEE11A11EEBF
:1039E000100A00E0002001E0034800BF00BFF0BD66
:1039F000104402580090D00300093D0040787D013A
:103A0000000000460024744C0024744A20BCBE4BC5
:103A10002DE9F041044614B90120BDE8F081207879
:103A200000F00100002871D0F848006800F0380666
:103A3000F64818300768102E05D0182E0FD107F061
:103A4000030002280BD1F14810380068C0F3404051
:103A500000286AD06068002867D10120DDE700BF38
:103A60006068B0F5803F08D1E8481038006840F43D
:103A70008030E649103908602EE0606868B9E34894
:103A80001038006820F48030E0491039086008469A
:103A9000006820F4802008601EE06068B0F5A02F68
:103AA0000DD1DA481038006840F48020D749103929
:103AB00008600846006840F4803008600CE0D34895
:103AC0001038006820F48030D0491039086008466A
:103AD000006820F48020086000BF606890B1FEF7A5
:103AE000D7FA054606E0FEF7D3FA401B642801D951
:103AF000032092E7C54810380068C0F34040002812
:103B0000F1D012E0FEF7C4FA054607E00EE0FEF73A
:103B1000BFFA401B642801D903207EE7BB48103858
:103B20000068C0F340400028F1D100BF207800F0C9
:103B3000020002287ED1B548006800F03806B3487C
:103B40001830076826B1182E48D107F00300C0BB13
:103B5000AE4810380068C0F3800018B1E06808B9BA
:103B600001205AE7A9481038006820F01900E168E0
:103B70000843A64910390860FEF78AFA054606E0B0
:103B8000FEF786FA401B022801D9032045E79F482B
:103B900010380068C0F380000028F1D000BFFEF7A5
:103BA00071FA41F2030188420CD898480C38006839
:103BB00020F47C30216940EA013094490C390860D6
:103BC0000BE00BE091480C38006820F0FE40217CAF
:103BD00040EA01608D490C39086059E0E06850B353
:103BE0008A481038006820F01900E16808438749C6
:103BF00010390860FEF74CFA054606E0FEF748FA71
:103C0000401B022801D9032007E7804810380068CC
:103C1000C0F380000028F1D000BFFEF733FA41F274
:103C2000030188420ED879480C38006820F47C30B3
:103C3000216901E02DE011E040EA013073490C39BF
:103C400008600AE071480C38006820F0FE40217CD2
:103C500040EA01606D490C39086019E06B48103882
:103C6000006820F00100694910390860FEF710FA79
:103C7000054606E0FEF70CFA401B022801D9032096
:103C8000CBE6624810380068C0F380000028F1D10C
:103C900000BF207800F01000102878D15B48006841
:103CA00000F03806594818300768082E05D0182E3D
:103CB0002FD107F0030001282BD154481038006899
:103CC000C0F3002020B1E069802801D00120A4E6E3
:103CD00000BFFEF7D7F941F2030188420CD84B48E8
:103CE0000C38006820F0F84094F8201040EA816019
:103CF00046490C3908600BE04448001F006820F07A
:103D00007C5094F8201040EA01604049091F086087
:103D100058E0E069D0B33D481038006840F08000BA
:103D20003A4910390860FEF7B3F9054606E0FEF798
:103D3000AFF9401B022801D903206EE63348103842
:103D40000068C0F300200028F1D000BFFEF79AF908
:103D500041F2030188420CD82C480C38006820F04E
:103D6000F84094F8201040EA816028490C39086036
:103D70000BE02648001F006820F07C5094F82010CB
:103D800040EA01602149091F08601BE000E01AE0D9
:103D90001E481038006820F080001C491039086067
:103DA000FEF776F9054606E0FEF772F9401B022899
:103DB00001D9032031E6154810380068C0F300200F
:103DC0000028F1D100BF207800F00800082836D183
:103DD0006069E8B10D486430006840F001000B49AB
:103DE00064310860FEF754F9054606E0FEF750F925
:103DF000401B022801D903200FE604486430006804
:103E0000C0F340000028F1D019E00000104402582F
:103E1000CF48006820F00100CD490860FEF738F96E
:103E2000054606E0FEF734F9401B022801D90320BD
:103E3000F3E5C7480068C0F340000028F2D12078BD
:103E400000F02000202836D1A069D0B1C0487438D5
:103E5000006840F48050BE4974390860FEF718F9D4
:103E6000054606E0FEF714F9401B022801D903209D
:103E7000D3E5B74874380068C0F340300028F1D06B
:103E800019E0B3487438006820F48050B0497439A0
:103E90000860FEF7FDF8054606E0FEF7F9F8401B5E
:103EA000022801D90320B8E5A94874380068C0F396
:103EB00040300028F1D1207800F0040004287DD1A2
:103EC000A448006840F48070A2490860FEF7E0F85A
:103ED000054606E0FEF7DCF8401B642801D9032004
:103EE0009BE59C48006800F480700028F2D000BF79
:103EF000A068012808D19648001F006840F0010022
:103F00009349091F08602DE0A06868B99048001F18
:103F1000006820F001008E49091F0860084600680B
:103F200020F0040008601DE0A06805280DD1884835
:103F3000001F006840F004008549091F086008461A
:103F4000006840F0010008600CE08148001F006834
:103F500020F001007E49091F08600846006820F033
:103F60000400086000BFA068A0B1FEF791F8054604
:103F700008E0FEF78DF8401B41F28831884201D9F4
:103F800003204AE57248001F0068C0F34000002883
:103F9000EFD013E0FEF77CF8054608E0FEF778F86E
:103FA000401B41F28831884201D9032035E5684839
:103FB000001F0068C0F340000028EFD1606A0028AD
:103FC0007ED063486438006800F03800182878D044
:103FD000606A022876D15E487438006820F08070EC
:103FE0005B4974390860FEF753F8054606E0FEF7B2
:103FF0004FF8401B022801D903200EE554487438BD
:104000000068C0F340600028F1D100BFD4E90A1075
:1040100041EA00104E494C39096840F2F3329143AD
:1040200008434B494C390860208E401EC0F30800FD
:10403000616B491E4FF47E4202EA41210843218F01
:10404000491ED20102EA014108433C21095D491E93
:10405000120202EA016108433D494439086000BF89
:10406000081F006820F00100091F08603848403828
:1040700000684FF6F8718843A16C40EAC1003449EA
:104080004039086032484838006820F00C00216C44
:1040900008432F49483908600846006820F00200AC
:1040A000616C08432A49483908600846006840F4B2
:1040B000803008600846006840F40030086002E084
:1040C00043E040E024E00846006840F480200860B7
:1040D0000846006840F0010008601D487438006818
:1040E00040F080701A4974390860FDF7D1FF054629
:1040F00006E0FDF7CDFF401B022801D903208CE428
:10410000134874380068C0F340600028F1D01CE008
:104110000F487438006820F080700D4974390860C9
:10412000FDF7B6FF054606E0FDF7B2FF401B02288B
:1041300001D9032071E4064874380068C0F3406078
:104140000028F1D101E0012067E4002065E40000CF
:10415000744402580048025870B504460D460CB924
:10416000012070BD94F82C0028B9002084F82D009F
:10417000204600F019F8022084F82C00211D206848
:10418000FDF7A7FB2946D4E90002FDF7F3FB05483C
:10419000006840F0004003490860012084F82C00CA
:1041A0000020DEE700400052704770B504460D461F
:1041B00094F82C00022800D170BD94F82C0001283E
:1041C0000AD1022084F82C0029462068FDF7B7FBAD
:1041D000012084F82C0001E00120EDE70020EBE74E
:1041E0002DE9F04104460E46174694F82C50022D56
:1041F00002D10220BDE8F081012D01D0052D12D1A0
:10420000022084F82C003A4631462068FDF7A1FBD5
:104210003068022803D1052084F82C0005E0012035
:1042200084F82C0001E00120E4E70020E2E7000030
:10423000034A126882430A43014B1A607047000028
:1042400004040058704710B5FFF7FCFF10BD10B50F
:1042500004460CB9012010BDA06900B100E000BF08
:10426000D4F8800028B9002084F87C00204600F0B3
:104270002AF82420C4F880002068006820F001009B
:104280002168086020460AF05FFC012800D1E2E7BF
:10429000A06A10B120460AF0A1FB2068406820F413
:1042A0009040216848602068806820F02A002168DA
:1042B00088602068006840F001002168086020469E
:1042C0000AF008FCC7E770472DE9F84F04460E4690
:1042D00017469946D4F8800020285DD106B117B959
:1042E0000120BDE8F88F00BF94F87C00012801D1BF
:1042F0000220F6E7012084F87C0000BF002054343F
:1043000060632120E062FDF7C3FE8246278067805C
:10431000543CA068B0F5805F04D1206910B9002535
:10432000B04602E035464FF000081DE0534600223B
:1043300080212046CDF800900BF07EFF08B10320CD
:10434000CFE745B9B8F80000C0F3080021688862DB
:1043500008F1020803E02878216888626D1CB4F82F
:104360005600401EA4F85600B4F856000028DDD1CF
:104370005346002240212046CDF800900BF05CFF10
:1043800008B10320ADE72020C4F8800000BF002062
:1043900084F87C0000BFA4E70220A2E700BFFEE78C
:1043A0002DE9F0472DED048B06460F4614461D46B9
:1043B000DDE90C89A01B08EE100AE81B08EE900A44
:1043C000A4EB080009EE100AA5EB090009EE900A1B
:1043D000F8EEE91AB8EEC91AF8EEE80AB8EEC80A1B
:1043E000FDF772F9B5EEC00AF1EE10FA04DD012016
:1043F000BDEC048BBDE8F0870020F9E72DE9FF4F05
:1044000083B014461D4610AE96E8C00F2B462246D8
:10441000CDE90067DDE90301FFF7C2FFF0B93B46D4
:104420003246CDE90089DDE90301FFF7B9FFA8B9FC
:104430004B464246CDE900ABDDE90301FFF7B0FF93
:1044400060B95B465246CDE90045DDE90301FFF75F
:10445000A7FF18B9012007B0BDE8F08F0020FAE7E8
:104460007CB5044600F0F8FA054600F0E5FA064689
:104470000020CDE900040848006800EB800202EB50
:10448000C002064800EB82002B463246416A0248D1
:10449000006800F013FC7CBD44000024F81B0024DD
:1044A00010B54FF0005008490860192048624FF4D9
:1044B0008771054881620221C16201630A2141635B
:1044C000FEF732FA10BD0000E01C002410B50748CA
:1044D0000068806940F00100044909688861012290
:1044E00051030348FDF7C8FD10BD0000C01B0024A8
:1044F000000C025870B504460D460749096801EBE7
:10450000810202EBC102054901EB82012A46486A99
:104510002146FCF765F970BD44000024F81B002417
:1045200000B587B000BFFE48006840F48070FC49C9
:1045300008600846006800F48070019000BF00BF6A
:1045400000BF0846006840F4007008600846006834
:1045500000F40070019000BF00BF00BF0846006873
:1045600040F4007008600846006800F40070019094
:1045700000BF00BF00BF0846006840F4007008603C
:104580000846006800F40070019000BF00BF00BF43
:104590000846006840F4007008600846006800F4AF
:1045A0000070019000BF00BF00BF0846006840F4E3
:1045B000007008600846006800F40070019000BFB9
:1045C00000BF00BF0846006840F40070086008465D
:1045D000006800F40070019000BF00BF00BF0846F3
:1045E000006840F4007008600846006800F400703D
:1045F000019000BF00BF00BF0846006840F4007093
:1046000008600846006800F40070019000BF00BF19
:1046100000BF0846006840F4007008600846006863
:1046200000F40070019000BF00BF00BF08460068A2
:1046300040F4007008600846006800F400700190C3
:1046400000BF00BF00BF0846006840F4007008606B
:104650000846006800F40070019000BF00BF00BF72
:104660000846006840F4007008600846006800F4DE
:104670000070019000BF00BF00BF0846006840F412
:10468000806008600846006800F48060019000BF08
:1046900000BF00BF0846006840F48060086008461C
:1046A000006800F48060019000BF00BF00BF0846B2
:1046B000006840F4806008600846006800F480608C
:1046C000019000BF00BF00BF0846006840F40070C2
:1046D00008600846006800F40070019000BF00BF49
:1046E00000BF0846006840F4007008600846006893
:1046F00000F40070019000BF00BF00BF08460068D2
:1047000040F4007008600846006800F400700190F2
:1047100000BF00BF00BF0846006840F4007008609A
:104720000846006800F40070019000BF00BF00BFA1
:104730000846006840F4806008600846006800F49D
:104740008060019000BF00BF00BF0846006840F4D1
:10475000806008600846006800F48060019000BF37
:1047600000BF00BF0846006840F48060086008464B
:10477000006800F48060019000BF00BF00BF0846E1
:10478000006840F4806008600846006800F48060BB
:10479000019000BF00BF00BF0846006840F4807071
:1047A00008600846006800F48070019000BF00BFF8
:1047B00000BF0846006840F4807008600846006842
:1047C00000F48070019000BF00BF00BF0846006881
:1047D00040F4807008600846006800F48070019022
:1047E00000BF00BF00BF0846006840F4806008605A
:1047F0000846006800F48060019000BF00BF00BF61
:104800000846006840F0080008600846006800F0AC
:104810000800019000BF00BF022005900390012016
:104820000490C00302900E20069002A93D48FDF7B7
:104830001FFB012002900E20069002A93A48FDF7C6
:1048400017FB022002900E20069002A93648FDF7C1
:104850000FFB042002900E20069002A93248FDF7BB
:1048600007FB082002900E20069002A92E48FDF7B3
:10487000FFFA102002900E20069002A92A48FDF7A8
:10488000F7FA202002900E20069002A92648FDF794
:10489000EFFA402002900E20069002A92248FDF770
:1048A000E7FA802002900E20069002A91E48FDF72C
:1048B000DFFA4FF4807002900E20069002A91A4889
:1048C000FDF7D6FA4FF4007002900E20069002A970
:1048D0001548FDF7CDFA4FF4806002900E20069047
:1048E00002A91148FDF7C4FA4FF4006002900E20AF
:1048F000069002A90C48FDF7BBFA012002900E2099
:10490000069002A90948FDF7B3FA022002900E2092
:10491000069002A90548FDF7ABFA0420029007E0D3
:10492000E04402580020025800240258002802588F
:104930000E20069002A93C48FDF79AFA4FF48050E9
:1049400002900E20069002A93848FDF791FA4FF424
:10495000005002900E20069002A93448FDF788FA14
:104960004FF4804002900E20069002A92F48FDF7D8
:104970007FFA4FF4004002900E20069002A92B48C7
:10498000FDF776FA082002900E20069002A926482C
:10499000FDF76EFA102002900E20069002A9224820
:1049A000FDF766FA202002900E20069002A91E480C
:1049B000FDF75EFA402002900E20069002A91A48E8
:1049C000FDF756FA4FF4804002900E20069002A99F
:1049D0001748FDF74DFA4FF4805002900E200690D4
:1049E00002A91348FDF744FA4FF4005002900E203C
:1049F000069002A90E48FDF73BFA802002900E2097
:104A0000069002A90848FDF733FA4FF400500290CF
:104A10000220059001200390049002A90548FDF7AB
:104A200027FA07B000BD00000028025800240258F1
:104A300000200258000C02580548006800EB800175
:104A400001EBC001034800EB8100806A7047000061
:104A500044000024F81B00240548006800EB800196
:104A600001EBC001034800EB8100C06A7047000001
:104A700044000024F81B002408B500BF2A48006841
:104A800040F00800284908600846006800F0080067
:104A9000009000BF00BF00BF23481038006840F0FE
:104AA00010002149103908600846006800F0100025
:104AB000009000BF00BFFFF7F3FCFFF731FD01F0EE
:104AC00063FD1A481A490860002119484161816153
:104AD0002E21C1611721016240F24E31416240F244
:104AE000F71181624FF45971C16240F20D210163E7
:104AF0004FF4487101664FF4F0714166002180F86F
:104B0000361080F8351080F83410002008494860CD
:104B1000002107488160C1600161FDF70DFB054878
:104B200000F060F808BD0000E44402580010005096
:104B3000C01B00241C00002470B58EB004460D4636
:104B4000164600200190FFF777FF029000200390A7
:104B5000FFF782FF049005960A95FF20069000203B
:104B600007908DF8340000218DF835108DF836103F
:104B70004FF4C060089007200990FFF75DFF0B908D
:104B8000FFF76AFF0C90224601A91048FDF7A4FA2E
:104B90004FF0FF3004EB44010D4A02EB8101486005
:104BA0000C4804EB440102EB810188604FF07F4028
:104BB00004EB440142F8210004480068406A40F0D8
:104BC00001000249096848620EB070BDC01B002494
:104BD000C81C00241C000024014908607047000024
:104BE000440000240449096801EB4101034A02EB37
:104BF000810188607047000044000024C81C002424
:104C000070B504460D46224629460248FDF721FBB1
:104C100070BD0000C01B002400B587B000BF244851
:104C2000006840F00200224908600846006800F071
:104C30000200019000BF00BF00BF0846006840F0BE
:104C4000020008600846006800F00200019000BF02
:104C500000BF00BF0846006840F001000860084639
:104C6000006800F00100019000BF00BF0120029029
:104C7000039004900220059002A90E48FDF7F8F871
:104C80000220029002A90B48FDF7F2F808200290DA
:104C900002A90948FDF7ECF801200649183108601F
:104CA0000220086008200449886107B000BD0000A8
:104CB000E044025800040258000002582DE9F8436D
:104CC00004460D4616461F46DDE908984FF440306D
:104CD000364948603648006800EB800101EBC001AE
:104CE000344800EB81000069022803D102212F48DB
:104CF00081603DE02E48006800EB800101EBC001BF
:104D00002C4800EB8100006918B900212748816018
:104D10002EE02748006800EB800101EBC001254828
:104D200000EB81000069012803D101211F48816047
:104D30001EE01F48006800EB800101EBC0011D4828
:104D400000EB81000069032803D10321174881602B
:104D50000EE01748006800EB800101EBC001154828
:104D600000EB81000069042802D104210F48816012
:104D70000E48C0F80C9010480C4908600846FCF733
:104D80005FFF80B921460948FCF7D8FE58B9334681
:104D90002A46414605480097FDF742F818B90A210E
:104DA0000248FCF78AFFBDE8F8830000681C002475
:104DB00044000024F81B002400100052F0B58E8837
:104DC0000768FF68C7F30B473E4433040668843620
:104DD000802707FB0266766806F47047066884360B
:104DE0004FF0800C0CFB026677600E680768FF6866
:104DF000C7F30B473E44761C1E43076884370CFB01
:104E000002777E608E890768FF68C7F30A073E4411
:104E1000330406688436802707FB0266B66806F40A
:104E20007047066884360CFB0266B7608E680768B8
:104E3000FF68C7F30A073E44761C46EA0307066884
:104E400084360CFB0266B76006688436802707FB51
:104E50000266366926F00707066884360CFB026690
:104E600037610F69066884360CFB026637613126AC
:104E7000765C33023226765C34040E7E3506066894
:104E80008436802707FB0266B669002706688436E9
:104E90000CFB0266B76191F830601E43264346EA78
:104EA0000507066884360CFB0266B761066884361F
:104EB000802707FB0266766926F0FF0706688436BE
:104EC0000CFB026677614F69066884360CFB02664C
:104ED000776106688436802707FB0266F66940F230
:104EE0000777BE43076884370CFB0277FE61D1E980
:104EF00007763743066884360CFB0266F76106685E
:104F00008436802707FB0266B66A00270668843667
:104F10000CFB0266B7624F6A066884360CFB0266B9
:104F2000B7620E690EB9042313E00E69012E01D198
:104F300003230EE00E69042E08D00E69022E05D060
:104F40000E69032E02D00E69072E01D1022300E064
:104F5000012306688436802707FB0266F66A06F09E
:104F6000E027066884364FF0800C0CFB0266F7627F
:104F7000D1E90076F61B5E43F61D0F8D5F4346EACE
:104F80000747066884360CFB0266F76206688436BB
:104F9000802707FB0266366BF70AFF020668843635
:104FA0000CFB02663763CF6A066884360CFB026628
:104FB000376306688436D701F65946F0010706685C
:104FC00084364FEAC21C46F80C70F0BD2DE9F84358
:104FD0000646B146D9F80040D9F804802348006855
:104FE000456816E095F8540090B12F46D7F8C400F4
:104FF000002808DD3B461E4A1C48D7F8C41000684C
:1050000010F082FF03E00021384611F041FC00BFA0
:105010006D68002DE6D16FF06300C8F8C000012173
:10502000204611F035FC0120C4F8C000B8F1000F93
:1050300002D008F10D0000E000200346102204F128
:10504000CC0120460EF054FC0023132204F1CC01C5
:1050500020460EF04DFC002000900346024602213F
:105060002046D4F8B070B847BDE8F8834800002463
:105070007550000870B5044625460021284611F0F9
:1050800007FC70BD004870476C1E002430B5054613
:10509000039C002030BD00BFFEE7704770472DE93C
:1050A000F04F09AC94E8F010DDE910ABDDE90E89B2
:1050B000BDE8F08F2DE9F04104460E460027554823
:1050C000006800F00300032802D10120BDE8F08150
:1050D00050482838006820F080604E492839086020
:1050E000FCF7D6FF054606E0FCF7D2FF401B02287E
:1050F00001D90320EAE7474828380068C0F3C060B8
:105100000028F1D100BF4348006820F47C302168BA
:1051100040EA01303F490860A088401EC0F3080003
:10512000A168491E4FF47E4202EA41210843A18949
:10513000491ED20102EA01410843217C491E1202A4
:1051400002EA0161084333491031086000BF314869
:10515000001D006820F0C000616908432D49091D49
:1051600008600846006820F02000A169084329492A
:10517000091D08600846006820F0100008602548F6
:10518000143000684FF6F8718843E16940EAC100C5
:105190002049143108601F48001D006840F01000CD
:1051A0001C49091D08602EB90846006840F400201B
:1051B000086012E0012E08D11648001D006840F476
:1051C00080101449091D086007E01248001D00689E
:1051D00040F400100F49091D08600E482838006887
:1051E00040F080600B4928390860FCF751FF054604
:1051F00006E0FCF74DFF401B022801D9032065E7BC
:10520000044828380068C0F3C0600028F1D0384650
:105210005CE70000284402582DE9F04104460E46A0
:1052200000275548006800F00300032802D1012040
:10523000BDE8F08150482838006820F080504E4981
:1052400028390860FCF724FF054606E0FCF720FF3C
:10525000401B022801D90320EAE7474828380068A4
:10526000C0F340700028F1D100BF4348006820F02F
:105270007C70218840EA01503F490860A088401EA8
:10528000C0F30800A168491E4FF47E4202EA4121A2
:105290000843A189491ED20102EA01410843217C49
:1052A000491E120202EA01610843334918310860BD
:1052B00000BF3148001D006820F440606169084368
:1052C0002D49091D08600846006820F40070A16996
:1052D00008432949091D08600846006820F48070C9
:1052E000086025481C3000684FF6F8718843E16972
:1052F00040EAC10020491C3108601F48001D0068B9
:1053000040F480701C49091D08602EB908460068E9
:1053100040F48000086012E0012E08D11648001DFC
:10532000006840F400001449091D086007E01248B5
:10533000001D006840F080700F49091D08600E488C
:105340002838006840F080500B4928390860FCF785
:105350009FFE054606E0FCF79BFE401B022801D994
:10536000032065E7044828380068C0F3407000282F
:10537000F1D038465CE70000284402582DE9F0419E
:1053800004460D46D5F808C02B6803EB0C021946FD
:1053900020680AF0B3FF48B9D4F808C0236803EBCB
:1053A0000C02194628680AF0A9FF08B1012000E0A4
:1053B00000200646D5F80CC06B6803EB0C021946BA
:1053C00060680AF09BFF48B9D4F80CC0636803EB2F
:1053D0000C02194668680AF091FF08B1012000E04C
:1053E000002007461EB117B10120BDE8F081002062
:1053F000FBE7F0B505AC94E8F010F0BD30B5DDE9A1
:10540000034530BD2DE9FF4F2DED020B2DED108B27
:105410009BB016461F46B0EE408B002005900690CC
:1054200007900890B1EE480AB0EE408ADFEDE40A3A
:1054300068EE200AB0EE600A0CF012F8B0EE40CA36
:10544000DFEDDF0A68EE200AB0EE600A0AF0B6FF70
:10545000F0EE40CA304606EBD071491000EE101A4B
:10546000B8EEC00AC0EE280AB0EE60DA384607EBA4
:10547000D071491000EE101AB8EEC00AC0EE280A2A
:10548000F0EE60DA2DEE2C0AB0EE40AA2DEE0C0AFA
:10549000F0EE40AA2DEEAC0AB0EE40BA2DEE8C0A2A
:1054A000F0EE40BAB1EE4A0AF1EE6B0A30EE600A55
:1054B000B0EE409AB1EE6A0AF1EE4B0A30EE200AE5
:1054C000F0EE409AB1EE6B0A3AEE400AB0EE40EAD6
:1054D000B1EE4B0A3AEE800AF0EE40EAB1EE4A0A2B
:1054E00030EE6B0AB0EE40FAB1EE6A0A30EE0B0A0B
:1054F000F0EE40FA7EEE490A00EE106AB8EEC01AED
:1055000080EE810ADFEDAF0A20EE200ABDEEC00A70
:105510008DED180A7EEEE90A00EE106AB8EEC01AA8
:1055200080EE810ADFEDA70A20EE200ABDEEC00A58
:105530008DED170A7FEE490A00EE107AB8EEC01A18
:1055400080EE810ADFED9F0A20EE200ABDEEC00A40
:105550008DED160A7FEEE90A00EE107AB8EEC00A69
:1055600080EE801A9FED970A21EE000ABDEEC00A78
:105570008DED150A2D980F909FED920A29EE000AE5
:10558000BDEEC00A10EE100A3E9900EB01401490E7
:105590009FED8C0A29EE800ABDEEC00A10EE100ABB
:1055A0003F9900EB0140139000201990FDE00F9807
:1055B0000E90DDF850A0DDF84CB000201A90E0E02D
:1055C000BAF1000F0CDB3B98401EBAEB004F07DA34
:1055D000BBF1000F04DB3C98401EBBEB004F02DB2D
:1055E00000201090C0E04FEA2A4012904FEA2B4072
:1055F00011903D99119848432E9901EB4001129862
:1056000001EB40000D900D98008808900D9840889F
:1056100007903D990D9830F8110006903D990D982E
:1056200000EB410040880590CAF30728C8F580794F
:10563000CBF30724C4F580750898000B04900798F5
:10564000000B03900698000B02900598000B019048
:10565000049810FB05F1029810FB041010FB09F1EF
:10566000039810FB05F2019810FB042010FB0810B2
:1056700000F50040000C0C900898C0F30320049043
:105680000798C0F3032003900698C0F3032002900C
:105690000598C0F303200190049810FB05F10298CF
:1056A00010FB041010FB09F1039810FB05F20198A0
:1056B00010FB042010FB081000F50040000C0B90BC
:1056C0000898C0F3031004900798C0F303100390E8
:1056D0000698C0F3031002900598C0F303100190E0
:1056E000049810FB05F1029810FB041010FB09F15F
:1056F000039810FB05F2019810FB042010FB081022
:1057000000F50040000C0A90089800F00F0004908B
:10571000079800F00F000390069800F00F00029029
:10572000059800F00F000190049810FB05F1029815
:1057300010FB041010FB09F1039810FB05F201980F
:1057400010FB042010FB081000F50040000C09902D
:105750000C9801030B9841EA00210A9841EA0011D4
:105760000998014388B210900E99109808800E98FD
:10577000801C0E9018988244179883441A98401CF5
:105780001A901A98B042FFF61BAF3A990F9800EBA7
:1057900041000F9016991498084414901599139885
:1057A000084413901998401C19901998B842FFF6B4
:1057B000FEAE1BB0BDEC108B06B0BDE8F08F000054
:1057C00035FA8E3C000080472DE9FF4F2DED020B8E
:1057D0002DED108B9BB016461F46B0EE408B00207F
:1057E0000590069007900890B1EE480AB0EE408A06
:1057F000DFEDE10A68EE200AB0EE600A0BF030FE41
:10580000B0EE40CADFEDDC0A68EE200AB0EE600AB6
:105810000AF0D4FDF0EE40CA304606EBD0714910D4
:1058200000EE101AB8EEC00AC0EE280AB0EE60DA38
:10583000384607EBD071491000EE101AB8EEC00AD6
:10584000C0EE280AF0EE60DA2DEE2C0AB0EE40AA87
:105850002DEE0C0AF0EE40AA2DEEAC0AB0EE40BAE6
:105860002DEE8C0AF0EE40BAB1EE4A0AF1EE6B0A68
:1058700030EE600AB0EE409AB1EE6A0AF1EE4B0AE1
:1058800030EE200AF0EE409AB1EE6B0A3AEE400A92
:10589000B0EE40EAB1EE4B0A3AEE800AF0EE40EA92
:1058A000B1EE4A0A30EE6B0AB0EE40FAB1EE6A0A87
:1058B00030EE0B0AF0EE40FA7EEE490A00EE106A76
:1058C000B8EEC01A80EE810ADFEDAC0A20EE200AA5
:1058D000BDEEC00A8DED180A7EEEE90A00EE106AF0
:1058E000B8EEC01A80EE810ADFEDA40A20EE200A8D
:1058F000BDEEC00A8DED170A7FEE490A00EE107A60
:10590000B8EEC01A80EE810ADFED9C0A20EE200A74
:10591000BDEEC00A8DED160A7FEEE90A00EE107AA0
:10592000B8EEC00A80EE801A9FED940A21EE000ABC
:10593000BDEEC00A8DED150A2D980F909FED8F0AD0
:1059400029EE000ABDEEC00A10EE100A3E9900EBE7
:10595000014014909FED890A29EE800ABDEEC00A2D
:1059600010EE100A3F9900EB0140139000201990AF
:10597000F8E00F980E90DDF850A0DDF84CB0002054
:105980001A90DBE0BAF1000F0CDB3B98401EBAEB3B
:10599000004F07DABBF1000F04DB3C98401EBBEB65
:1059A000004F02DB00201090BBE04FEA2A4012902B
:1059B0004FEA2B4011903D99119848432E9901EBE5
:1059C0008001129801EB80000D900D9800680890FE
:1059D0000D98406807903D990D9850F82100069069
:1059E0003D990D9800EB810040680590CAF30728A7
:1059F000C8F58079CBF30724C4F580750898000EAC
:105A000004900798000E03900698000E02900598E7
:105A1000000E0190049810FB05F1029810FB041091
:105A200000FB09F0039911FB05F2019911FB042118
:105A300001FB080000F50040000C0C900898C0F332
:105A4000074004900798C0F3074003900698C0F3FE
:105A5000074002900598C0F307400190049810FB9E
:105A600005F1029810FB041000FB09F0039911FBEB
:105A700005F2019911FB042101FB080000F500402B
:105A8000000C0B900898C0F3072004900798C0F30F
:105A9000072003900698C0F3072002900598C0F3F2
:105AA00007200190049810FB05F1029810FB0410E8
:105AB00000FB09F0039911FB05F2019911FB042188
:105AC00001FB080000F50040000C0A900898C0B2E5
:105AD00004900798C0B203900698C0B2029005984F
