:020000040800F2
:10000000C84500241D040008F1400008E53E000832
:10001000ED40000805140008D7600008000000004B
:100020000000000000000000000000005D03000868
:100030000515000800000000B90300084945000844
:1000400037040008370400083704000837040008A4
:100050003704000837040008370400083704000894
:1000600037040008091500083704000837040008A1
:100070003704000837040008370400083704000874
:100080003704000837040008370400083704000864
:100090003704000837040008370400083704000854
:1000A00037040008E1460008370400083704000858
:1000B0003704000837040008370400083704000834
:1000C0003704000837040008370400083704000824
:1000D0003704000837040008370400083704000814
:1000E0003704000837040008000000003704000847
:1000F00037040008370400083704000837040008F4
:1001000037040008370400083704000837040008E3
:1001100037040008370400083704000837040008D3
:1001200037040008370400083704000837040008C3
:1001300037040008370400083704000837040008B3
:1001400000000000000000000000000000000000AF
:100150003704000837040008370400083704000893
:100160003704000837040008370400083704000883
:1001700037040008370400083704000800000000B6
:100180003704000837040008370400083704000863
:100190003704000837040008370400083704000853
:1001A0003704000837040008370400083704000843
:1001B0003704000837040008370400083704000833
:1001C0003704000837040008370400083704000823
:1001D0003704000837040008370400083704000813
:1001E0003704000837040008370400083704000803
:1001F00037040008370400083704000837040008F3
:1002000037040008370400083704000837040008E2
:1002100037040008370400083704000837040008D2
:100220003704000837040008370400080000000005
:1002300037040008370400080000000037040008F5
:1002400037040008370400083704000837040008A2
:100250003704000837040008370400083704000892
:100260003704000837040008370400083704000882
:1002700037040008370400083704000800000000B5
:1002800037040008370400083704000800000000A5
:10029000000000003704000800F002F800F04FF8FA
:1002A0000AA090E8000C82448344AAF10107DA45D1
:1002B00001D100F044F8AFF2090EBAE80F0013F0D4
:1002C000010F18BFFB1A43F001031847B474000074
:1002D000D4740000103A24BF78C878C1FAD8520705
:1002E00024BF30C830C144BF04680C6070470000B0
:1002F0000023002400250026103A28BF78C1FBD82F
:10030000520728BF30C148BF0B607047642900F016
:10031000CF81782900F00882732900F049840020F9
:1003200070471FB506F046FF9DE8030000F086FB0E
:1003300000F076FC1FBD10B500F0DBFC10BD00F036
:1003400046FD1146FFF7EDFF05F0E6FF00F024FE45
:1003500003B4FFF7F0FF03BC00F05CFE2C4B196800
:100360000868B0E8F04F80F30988BFF36F8F4FF053
:10037000000080F311887047000000000848006802
:10038000006880F308884FF0000080F3148862B69C
:1003900061B6BFF34F8FBFF36F8F00DF00BF00BFA9
:1003A00008ED00E0DFF80C00016841F47001016025
:1003B000704700BF88ED00E0EFF30980BFF36F8F57
:1003C000134B1A681EF0100F08BF20ED108A20E9A9
:1003D000F04F106009B44FF0500080F31188BFF364
:1003E0004F8FBFF36F8F06F095FC4FF0000080F346
:1003F000118809BC19680868B0E8F04F1EF0100FAA
:1004000008BFB0EC108A80F30988BFF36F8F704784
:1004100040000024EFF30580704700000948804742
:1004200009480047FEE7FEE7FEE7FEE7FEE7FEE7D6
:10043000FEE7FEE7FEE7FEE704480549054A064BEE
:10044000704700004D46000899020008C83F00248C
:10045000C8450024C8410024C841002470B50646A0
:1004600000F0CCFA056806F10B0020F00704B44256
:100470009CBF002070BD2B466A68BAB11068A042CC
:1004800010D304F1080188423CBF5068586007D37C
:100490005168101941601168091B016058601460AF
:1004A000101D70BD13465268002AE7D12146284628
:1004B00000F0B0FA0028DED170BD70B50446051F0B
:1004C00000F09CFA0068002C14BF446870BD002C3A
:1004D00018BFAC423CBF20466468F8D301680A18D4
:1004E000AA4218BF456003D12A680546114401603D
:1004F00028684119A1421CBF6C6070BD61686960C9
:1005000021680844286070BD53EA020C00F069803D
:100510002DE9F04B4FF00006002B1FBFB3FA83F517
:1005200003FA05F424FA05F65E4012BF1643B2FA48
:1005300082F502FA05F4C5F120051EBF22FA05FC7A
:1005400044EA0C04203556EA044C4FEA144418BF20
:10055000641C4FF000084FF00009904271EB030C4F
:1005600039D3002919BFB1FA81F701FA07F6B0FAB9
:1005700080F700FA07F6C7F120071EBF20FA07FC34
:1005800046EA0C062037B6FBF4FCA7EB0507103F44
:1005900007F01F0BCBF120060CFA0BFB2CFA06F62A
:1005A00044BFB3460026202FA4BF5E464FF0000B89
:1005B0005BEA060C08BF4FF0010B19EB0B09ABFB14
:1005C000027C48EB0608C01B06FB02CC0BFB03CCED
:1005D00071EB0C01C1E70B46024641464846BDE8B7
:1005E000F08B13B54FF000004FF00001AFF3008027
:1005F000BDE81C40704700000FB4044910B503AAC1
:10060000029800F0D9FA10BC5DF814FBBC3E00243F
:1006100070B5044685690068C10601D5302600E042
:100620002026C00707D070BDD4E90121304690478D
:10063000206A401C20626D1EF6D570BD70B5044660
:1006400085690078C00707D170BDD4E90121202059
:100650009047206A401C20626D1EF6D570BD70B5B3
:100660000C460546012A05D02878800600D5EA699F
:10067000002302E0012305E05B1C934202D2E05C10
:100680000028F9D1A869E618C01AA861286A184498
:1006900028622846FFF7BCFF04E0D5E9012114F8E1
:1006A000010B9047B442F8D32846FFF7C7FF70BD4F
:1006B0002DE9F0410646002410687529314616A53B
:1006C00010D0AFF30080002802DA404213A507E003
:1006D00031688A0701D512A502E0490704D511A5A2
:1006E000012401E0AFF3008000210A2206F1240773
:1006F00009E0B0FBF2FCB0FBF2F302FB1C0030306F
:1007000078541846491C0028F3D123462A4630461F
:10071000BDE8F04100F0C8B9000000002D00000065
:100720002B0000002000000070B504460D46214655
:100730001068AFF300802188090502D50F4A7A447A
:1007400002E00E4A7A440E32002104F1240305E04F
:1007500000F00F060009965D5E54491C0028F7D191
:1007600020780023000704D5702D02D009B10223A0
:1007700011322046BDE8704000F096B93A6F000093
:100780002DE9F05F894604464FF0000ADFF824B1F6
:10079000FB44C0F820A02046E168884700287DD0AF
:1007A000252806D0D4E901219047206A401C206208
:1007B000F1E700255F462046E16888472028064685
:1007C00007DB312E05D2B81910F8200C08B105430B
:1007D000F1E7A80701D525F00405C4F81CA00027FF
:1007E000C4F818A02A2E09D0304605F093FC38B37F
:1007F00004EB8708303EC8F8186019E059F8041B6C
:10080000204604EB87029161E1688847012F064684
:1008100018D1E069002820DA25F020051DE0D8F87D
:10082000180000EB800006EB40003038C8F81800D4
:100830002046E1688847064605F06CFC0028EED1AA
:10084000012F0AD02E2E08D12046E16888477F1C50
:100850000646022F45F02005C4DBA069002803DA14
:10086000404245F00105A061E80701D025F01005E0
:10087000A6B1A6F14100192802D8203645F400653A
:100880004A463146204625604D46FFF73FFD60B1A0
:10089000012807D0ED1D25F0070000E007E000F17A
:1008A000080978E705F1040975E730467AE7206A18
:1008B000BDE8F09F106F0000032A40F2308010F076
:1008C000030C00F0158011F8013BBCF1020F6244EB
:1008D00098BF11F801CB00F8013B38BF11F8013B7C
:1008E000A2F1040298BF00F801CB38BF00F8013B29
:1008F00011F0030300F02580083AC0F0088051F899
:10090000043B083A51F804CBA0E80810F5E7121DA3
:100910005CBF51F8043B40F8043BAFF30080D207C2
:1009200024BF11F8013B11F801CB48BF11F8012B8E
:1009300024BF00F8013B00F801CB48BF00F8012BB1
:10094000704710B5203AC0F00B80B1E81850203A3B
:10095000A0E81850B1E81850A0E81850BFF4F5AF5F
:100960005FEA027C24BFB1E81850A0E8185044BFE9
:1009700018C918C0BDE810405FEA827C24BF51F856
:10098000043B40F8043B08BF7047D20728BF31F84A
:10099000023B48BF11F8012B28BF20F8023B48BF9B
:1009A00000F8012B70474FF0000200B51346944643
:1009B0009646203922BFA0E80C50A0E80C50B1F1B7
:1009C0002001BFF4F7AF090728BFA0E80C5048BFCB
:1009D0000CC05DF804EB890028BF40F8042B08BF69
:1009E000704748BF20F8022B11F0804F18BF00F865
:1009F000012B7047704770477047000000487047F0
:100A00006C3F002400487047643F002470477047E3
:100A10007047704738B504460A4600206946AFF370
:100A20000080002808BF38BD02460099204600F02B
:100A3000D9F8012038BD012000F08EB9F8B5AFF328
:100A40000080054600200C46102000BF0646A8196D
:100A5000A0420DD9324669460020AFF3008007005E
:100A600008BF00F079F90098A04218BF0546C419E4
:100A7000FFF7C4FF05600746F01D20F00700461988
:100A8000284600F00AF8B44208BFF8BDA21B314660
:100A90003868BDE8F84000F0A5B800210160C0E961
:100AA00001107047102070472DE9F0470D46994618
:100AB0009246044600F124080168880604D5E069DE
:100AC00021F01001216000E00120A84201DD471B58
:100AD00000E00027A1697A1902EB0900081AA06159
:100AE0002078C00602D42046FFF792FD002608E0D9
:100AF000D4E901211AF806009047206A401C761CB0
:100B000020624E45F4DB2078C0060AD52046FFF768
:100B10007FFD06E0D4E9012130209047206A401C87
:100B20002062381EA7F10107F4DC07E0D4E90121B7
:100B300018F805009047206A401C2062281EA5F185
:100B40000105F3DC2046FFF779FD2078000602D589
:100B50000220BDE8F0870120FBE7000001694A1C84
:100B600002610878704700B58FB0CDE901310021EE
:100B7000059105497944CDE9031011466846FFF710
:100B8000FFFD0FB000BD0000E5FFFFFF10B543699A
:100B900013B1AFF3008001E0FFF761FD012010BD4C
:100BA000127800F124010A7000224A700122EDE758
:100BB00011684FF0FF32E9E7074B70B50D467B44F3
:100BC000FFF7D1FF0446284600F026F810B14FF099
:100BD000FF3070BD204670BD63550000004870476F
:100BE000643F0024034640688C46002818BF8842B2
:100BF0003CBF03464068F8D318681844884207D0C1
:100C00000CF1030020F00700001D411A521A0146A2
:100C1000081D0A60FFF751BC007B00F080007047A0
:100C200010B542485421FFF7BEFE41485421FFF75A
:100C3000BAFE40485421FFF7B6FE3F493B483C4AC4
:100C40003F4B08603D490A603A491960531C0365EF
:100C5000481C1065012008653B48344A39A1784496
:100C600000F0FEF820B9384878440A3800F0A2F9BC
:100C700037482F4A35A1784400F0F2F820B93448BB
:100C800078440A3800F096F932482A4A2FA178446D
:100C900000F0E6F820B92F4878440A3800F08AF9C5
:100CA00040232248DC000021224600F0B5F820B1A4
:100CB00025487844543800F07DF91D4822464023E9
:100CC000002100F0A9F820B121487844543800F000
:100CD00071F9184822461023002100F09DF80028E1
:100CE00006D01C487844BDE81040563800F062B980
:100CF00010BD104870B5006D20F001040B4800F0E5
:100D000025F90B4800F022F90A4800F01FF909E024
:100D1000206D20F00105204600F018F92046FFF76D
:100D2000CCFB2C46002CF3D170BD0000683E0024A3
:100D3000BC3E0024103F0024A0000024A400002496
:100D4000A800002472000000536A00007700000031
:100D50003F6A00002B6A000010B500F033F9BDE8CF
:100D6000104000F022B90EB5CDE9000100F080FA84
:100D7000029069460120ABBE0EBD08B569460090E1
:100D80000220ABBE08BD1FB58DE8070069460520EF
:100D9000ABBE04B010BD1FB58DE80F00694606203C
:100DA000ABBEF6E708B5694600900920ABBE08BDAA
:100DB0001CB5CDE9000169460A20ABBE1CBD7047D9
:100DC00008B5694600900C20ABBE08BD704775465B
:100DD000FFF704FFAE4605006946534620F00700C2
:100DE000854618B020B5FFF727FBBDE820404FF03F
:100DF00000064FF000074FF000084FF0000B21F005
:100E00000701AC46ACE8C009ACE8C009ACE8C009D1
:100E1000ACE8C0098D46704770B5C468A50713D00B
:100E2000650211D4B2F5807F09D0B2F5007F06D0FB
:100E3000B2F5806F08D1012300F1240106E05D1EA8
:100E40006FF07F46B54201D3012070BD0161C361DF
:100E5000416024F470611143C160002070BD000046
:100E60002DE9F0410C4607461646104600F06EF894
:100E70002078611C61280AD0722802D077283CD1E2
:100E800002E00125002405E00225042402E00824F4
:100E900048F2020511F8010B2B2806D0622809D070
:100EA00011F8010C74280AD00BE045F0030544F05A
:100EB0000204EFE745F0040544F00104EAE744F0DA
:100EC000100438462146FFF74EFF411C15D0002183
:100ED000316171604FF40071F560F161706120075C
:100EE00004D530460222002100F09AF8306D40F01F
:100EF000010030653046BDE8F0810020FBE72DE9B8
:100F0000F0410D460646104C206DC10704D0410843
:100F100004D020F00104F7E722460EE05420FFF74A
:100F20009DFA07000ED0206D47F0010108435421BF
:100F300020653846FFF737FD3A4629463046BDE87A
:100F4000F0418DE70020D6E7683E00242DE9F04708
:100F500004464FF000094FF0FF37C568D4E9048616
:100F6000A80707D0204600F00BF93046FFF705FF31
:100F7000002802DA3846BDE8F087280502D5404649
:100F8000FFF79BFA4C212046FFF70DFD206D20F066
:100F9000010020654846EEE710B50446AFF3008037
:100FA0002046BDE81040FFF7D3B9002801D000F07B
:100FB00031B8704710B500F041F9BDE81040FFF7B7
:100FC000F4BF000010B5012805D0002103A000F0F7
:100FD0001BF9012010BD09A1F8E700005349475251
:100FE000544D454D3A204F7574206F6620686561F9
:100FF00070206D656D6F7279000000003A204865C1
:101000006170206D656D6F727920636F727275709B
:101010007465640001491820ABBEFEE7260002009B
:101020002DE9F041044616460D464769007B8007CE
:101030002ED03846FFF7B6FE50BB3EB3012E02D08D
:10104000022E25D104E0204600F038F905441DE0C9
:101050003846FFF7B5FEE168002841F01001E16075
:1010600005DA204600F058F80120BDE8F081C903F8
:101070000BD56268E16A914200D81146A269114419
:101080002269891A814200DD08460544002D01DAF3
:101090000220EAE7E16A6068E268814206D29103D1
:1010A000E06203D522F4003141F01002A669002766
:1010B000AE4213DCE16A814201D90B4600E00346EF
:1010C00003EB060C2369ACEB030CAC4506DD814257
:1010D00001D98C4600E084469C4505D1A760276075
:1010E00042F02000A5620DE0AD1BE669AE1B814217
:1010F000A66000D90846C01A281A206058196060F6
:1011000022F0200003490840E060002084F8487085
:10111000ABE70000BFCFD7FFC16821F4001141F059
:101120008001C16000218160016070472DE9F047B6
:10113000814614460E464FF0FF383248D56857694D
:10114000054209D03846A169FFF732FE002811DBBD
:101150002C48C0430540E5602B4632464946384698
:10116000FFF711FEA16920F00042B21A11440028D5
:10117000A16103D02046FFF7CFFF4046BDE8F087CE
:1011800070B504460569C06A6168884200D808469F
:10119000E16821F42011E160C90312D5A84208D00A
:1011A0002246411B2846FFF7C1FF10B14FF0FF3028
:1011B00070BD0020E562C4E90150E06820F4803091
:1011C000E060002070BD10B50446C06820F020002B
:1011D000E060A16AA06988420DD02046FFF7D0FFE9
:1011E000E06820F4405040F01000E060A06AA06188
:1011F0002069E062606044F24001E0688843E0609A
:1012000010BD00001000020070B505460C460A2013
:1012100000E06D1C00F04BF835B128780028F8D1BB
:1012200002E0641C00F043F814B120780028F8D1E3
:10123000BDE870400A2000F03AB8000010B5014641
:1012400002A0FFF7E1FF012010BD00005349475203
:10125000545245443A2052656469726563743A2079
:1012600063616E2774206F70656E3A200000000085
:1012700010B5431C02E010F8011B71B18107FAD1CF
:101280004FF0013202C88C1A8C4314EAC211F9D013
:10129000C01A0A0603D0C01E10BDC01A10BD0A0431
:1012A00001D0801E10BD0902FCD0401E10BD08B543
:1012B00069468DF800000320ABBE08BD10B501469D
:1012C000C268900703D0900607D5886A0AE0FFF746
:1012D00099FB01210160881E10BD8B694868184484
:1012E0000B69C01A91F848301BB191F84910401AA7
:1012F00010BD1103FCD50028FADD401E10BD2DE9FC
:10130000FF5F04460D4616461F46DDE910ABDDE9DA
:101310000E8900F0BFFC01208DF80000CDF804809C
:1013200009F0FF008DF808008DF80B6012988DF819
:101330000F008DF80EB08DF80DA08DF801408DF8DE
:101340000A7000208DF809008DF80C50684600F0F6
:1013500073FC042000F0B4FCBDE8FF9FF0B585B03D
:1013600007460E4614461D46052E48D2DFE806F015
:1013700003111F2D3A0001200022CDE9022013465F
:1013800003220021CDE9004504903846FFF7B7FF5E
:1013900035E001200022CDE902200346032200218E
:1013A000CDE9004504903846FFF7A9FF27E000206B
:1013B0000121CDE90150034603220094CDE9031039
:1013C00001463846FFF79BFF19E00020CDE90150A8
:1013D0000390012303220146009404903846FFF74E
:1013E0008EFF0CE00020CDE9015003900223032280
:1013F0000146009404903846FFF781FF00BF00BF0C
:1014000005B0F0BD00BFFEE700B5B5B000BF39487C
:10141000006840F00100374908600846006800F0A5
:101420000100009000BF00BF00BF0846006840F008
:10143000010008600846006800F00100009000BF4D
:1014400000BF0120019000201F9001A800F030FF94
:1014500000BF28481030006840F0100025491031C6
:1014600008600846006800F01000009000BF00BF50
:101470004FF4007030900220319001203290022011
:1014800033900720349030A91B4800F059FA4FF4EC
:10149000806030900720349030A9174800F050FA4F
:1014A0001648174908604FF4E1304860002114489D
:1014B0008160C16001610C21416100218161C161D4
:1014C000016200200E498862084602F064FC002296
:1014D0001146252000F024FC252000F011FC0848CE
:1014E0000068006840F0200005490968086035B0D0
:1014F00000BD0000E0440258000002580010014006
:10150000EC0000247047000010B50548006800F0AA
:10151000080020B100F0A6F808200149086010BDBD
:10152000880000582DE9F04186B005460C46164665
:101530004FF0FF374FF0000800BFF1221B491CA0FD
:10154000FFF75AF800BF0020ADF802008DF80050F8
:101550000220ADF8040002940121ADF80E108DF8C0
:101560000C50B01E81B2ADF81010A01C059009E01F
:101570000221684602F0DEFC0746022F00D104E09B
:1015800008F10108B8F1050FF2DB00BFB8F1050F53
:1015900008DB6078237840EA0321B21E3B460C4802
:1015A000FFF72AF8384606B0BDE8F0816F750008ED
:1015B0003C3C2D4754502D46554E432D3E3E204633
:1015C000756E633A2573404C696E653A25640A006E
:1015D000DC7600082DE9FE4380460C4615464FF0A8
:1015E000FF36002700BF40F21F12144914A0FFF776
:1015F00003F800BF0020ADF802008DF80080A8B20B
:10160000ADF80400029408E00121684602F092FC63
:101610000646012E00D102E07F1C052FF4DB00BF3F
:10162000052F08DB6078237840EA0321AA1E3346A1
:101630000B48FEF7E1FF3046BDE8FE837C750008ED
:101640003C3C2D4754502D46554E432D3E3E2046A2
:10165000756E633A2573404C696E653A25640A00DD
:101660002C77000810B500BF40F20F42034904A0D8
:10167000FEF7C2FF00BF00F053F810BD557600081A
:101680003C3C2D4754502D46554E432D3E3E204662
:10169000756E633A2573404C696E653A25640A009D
:1016A0002DE9F04104460D4616461F4600BF40F2A4
:1016B0008D12084908A0FEF79FFF00BF00BF00BFC2
:1016C00028B20D4921F8140030B20C4921F8140059
:1016D000BDE8F081C07500083C3C2D4754502D46B4
:1016E000554E432D3E3E2046756E633A2573404C61
:1016F000696E653A25640A00240000242E00002447
:101700004FF0FF31044A22F81010044A22F810105A
:1017100000BF00BF70470000240000242E000024FA
:101720002DE9F04F99B062A00068189028210EA80A
:10173000FFF739F95F4800680D900025A8464FF083
:10174000BA0B002600200C900B900A9081460024D2
:101750004FF0FF3A00BF40F2D712574957A0FEF7AB
:101760004BFF00BF0C220DA95846FFF7DBFE824657
:10177000BAF1000F06DA514658A0FEF73DFF19B046
:10178000BDE8F08F9DF83680B8F1000F00D1F6E784
:1017900008F0800000B97CE008F00F05052D00DDA1
:1017A00077E0012D17DD242101A8FFF7FCF841485F
:1017B000001D00680090681EC000821C69465846E3
:1017C000FFF7B0FE8246681EC2000DF1020110A8AC
:1017D000FFF772F800BF4D480088A84221DD0024C1
:1017E0001BE0002715E0032000EBC7000DA94618F9
:1017F000307800F00F094648005D484500D10AE006
:10180000681EB84203DC4249085DFFF779FF781C87
:10181000C7B2AF42E7DB00BF641C3C48008884428B
:10182000DFDB2DB3002420E0032000EBC4000DA972
:101830004618307800F00F09354800F804907078A9
:10184000B17840EA01200C90F078317940EA01202B
:101850000B907079B17940EA01200A904846DDE9A1
:101860000A320C99FFF71CFF641CAC42DCDB0DE074
:101870002648008850B1002404E02549085DFFF7A0
:101880003FFF641C214800888442F6DB1F48058026
:1018900000BF032218A95846FFF79CFE8246BAF102
:1018A000000F02DA1BA0FEF7A7FE00BF67E70000EB
:1018B000814E0000E4750008CF7500083C3C2D47C0
:1018C00054502D46554E432D3E3E2046756E633A8C
:1018D0002573404C696E653A25640A003C3C2D47EF
:1018E00054502D4552524F522D3E3E2049324320F6
:1018F0007472616E73666572206572726F722E20EB
:101900006572726E6F3A25640A200A00380000245E
:101910003A0000243C3C2D4754502D494E464F2D53
:101920003E3E2049324320777269746520656E64BB
:101930005F636D64206572726F72210A000000009F
:10194000F8B502460023734DDEE001279F400E6884
:1019500006EA0704002C71D04E68022E02D04E68B1
:10196000122E13D1DF0802F1200656F827005E0779
:10197000F70E0F26BE40B0435F07FF0E0E69BE4054
:101980003043DF0802F1200646F8270010685F00A8
:101990000326BE40B0430E7906F003065F00BE404A
:1019A000304310604E68012E08D04E68022E05D0DC
:1019B0004E68112E02D04E68122E13D190685F002F
:1019C0000326BE40B0435F00CE68BE403043906007
:1019D000506801269E40B0430E79C6F300169E4023
:1019E00030435060D0685F000326BE40B0435F00C4
:1019F0008E68BE403043D0604E6806F08056B6F127
:101A0000805F1BD100BF444E366846F00206424F4D
:101A10003E603E46366806F00206009600BF00BFF4
:101A20003E4E9F0856F827009E07370F0F26BE40F0
:101A3000B0433B4EB24202D100262EE063E0394E65
:101A4000B24201D1012628E0374EB24201D102262E
:101A500023E0364EB24201D103261EE0344EB2429C
:101A600001D1042619E0334EB24201D1052614E01B
:101A7000314EB24201D106260FE0304EB24201D1C2
:101A800007260AE02E4EB24201D1082605E02D4E6F
:101A9000B24201D1092600E00A269F073F0FBE404F
:101AA00030431E4E9F0846F827002868A0434E6822
:101AB00006F48036B6F5803F00D120432860686880
:101AC000A0434E6806F40036B6F5003F00D120432F
:101AD00068604FF0B0463068A0434E6806F4801648
:101AE000B6F5801F00D120434FF0B04630607068DB
:101AF000A0434E6806F40016B6F5001F00D120433F
:101B00004FF0B04670605B1C0E68DE40002E7FF424
:101B10001CAFF8BD80000058F44402580804005877
:101B2000000002580004025800080258000C025835
:101B3000001002580014025800180258001C0258E5
:101B40000020025800240258024613690B400BB1D2
:101B5000012000E0002070470AB1816101E00B0420
:101B60008361704701480068000C70470010005CFA
:101B7000044840680449B0FBF1F04FF47A714843DF
:101B800070470000001000E000389C1C70B58AB05F
:101B900004462348006840F0807021490860002016
:101BA000204948600846006840F0010008600025B0
:101BB000002600222146192000F0B2F8192000F07A
:101BC0009FF800BF1848006840F0010016490860FF
:101BD0000846006800F00100009000BF00BF01A9A6
:101BE00002A801F087FA01F0E5FA45000F48B5FBBD
:101BF000F0F0461E0E480F49086040F2E7310D48EC
:101C0000C160466000210161816001F0ACFF20B934
:101C1000084801F0C3FF0AB070BD0020FBE70000D8
:101C2000FCED00E0001000E0F044025840420F00DC
:101C300000000140AC0000244178154A1160017891
:101C4000F9B1121D41681160017B0907C27A41EAAE
:101C50000261827A41EAC241427B41EA8241827B4F
:101C600041EA4241C27B41EA0241427A41EA022111
:101C7000027A41EA420102781143054A08321160B2
:101C800005E00021024A121D1160121D116070470B
:101C900098ED00E000BF00BF00BFBFF35F8F00BF43
:101CA00000BF00BF0548006820F480300349086089
:101CB00000200249703108607047000024ED00E008
:101CC00040F001010D4A11600C497039096841F476
:101CD00080310A4A703A116000BF00BF00BFBFF3F5
:101CE0004F8F00BF00BF00BF00BF00BF00BFBFF3EA
:101CF0006F8F00BF00BF00BF7047000094ED00E091
:101D000001460846002809DB00F01F0301229A4023
:101D100043099B0003F1E023C3F8002100BF704793
:101D20002DE9F05F80460D46164604F0D7F90746C8
:101D300039462A46334601F00700C0F1070ABAF1D6
:101D4000040F02D94FF0040A01E0C0F1070AD1469E
:101D500000F1040ABAF1070F02D24FF0000A01E0C5
:101D6000A0F1030AD4464FF0010A0AFA09FAAAF1CF
:101D7000010A0AEA020A0AFA0CFA4FF0010B0BFAFE
:101D80000CFBABF1010B0BEA030B4AEA0B042146F7
:101D9000404604F0ABF9BDE8F09F000070B5044682
:101DA0001548006800F00400042807D012480068B5
:101DB00000F00700A04201D0012070BD0E4800686D
:101DC00020F0070020430C490860FFF7D1FE0546CC
:101DD00007E0FFF7CDFE401BB0F57A7F01D9032065
:101DE000EBE705480838006800F40050B0F5005FE4
:101DF000EFD10020E1E700000C48025810B501F0D7
:101E0000EBF907490968C1F30321064A515C01F067
:101E10001F01C840044908600846006810BD000062
:101E200018440258BE7100080000002410B501F0EB
:101E300097F905490968C1F30211044A515C01F0A0
:101E40001F01C84010BD000020440258BE710008A8
:101E500070B50146844D2D6805F00303824D2D6851
:101E6000C5F30530804D2D1D2D6805F010047E4D05
:101E700014352D68C5F3CC0515FB04F501EE105A99
:101E8000B8EE411AF0EE410A00286FD023B1012BC1
:101E90004ED0022B6BD16BE0734D283D2D68C5F3FE
:101EA00040153DB3704D283D2D68C5F3C1066F4DFB
:101EB00025FA06F201EE102AF8EE411A01EE100A98
:101EC000B8EE411A81EE812A9FED691AC0EE811A9F
:101ED000654D10352D68C5F3080501EE105AB8EEB2
:101EE000411A31EE811AF7EE001A31EE211A22EE74
:101EF000010A1CE001EE100AB8EE411ADFED5D1A8E
:101F000081EE812A9FED5A1AC0EE811A564D103586
:101F10002D68C5F3080501EE105AB8EE411A31EEEE
:101F2000811AF7EE001A31EE211A22EE010A5BE067
:101F300001EE100AB8EE411ADFED4F1A81EE812A48
:101F40009FED4B1AC0EE811A474D10352D68C5F331
:101F5000080501EE105AB8EE411A31EE811AF7EE7B
:101F6000001A31EE211A22EE010A3DE077E01DE071
:101F700001EE100AB8EE411A9FED402AC2EE011A96
:101F80009FED3B1A80EE812A374D10352D68C5F341
:101F9000080501EE105AB8EE411A32EE011AB7EEFA
:101FA000002A31EE021A21EE810A1DE001EE100A2C
:101FB000B8EE411ADFED301A81EE812A9FED2C1A1E
:101FC000C0EE811A284D10352D68C5F3080501EEC5
:101FD000105AB8EE411A31EE811AF7EE001A31EEBE
:101FE000211A22EE010A00BF00BF1F4D10352D68D7
:101FF000C5F3462501EE105AB8EE411AF7EE001A65
:1020000031EE211AC0EE011ABCEEE11A81ED001A80
:10201000154D10352D68C5F3064501EE105AB8EE82
:10202000411AF7EE001A31EE211AC0EE011ABCEE89
:10203000E11A81ED011A0C4D10352D68C5F30665C6
:1020400001EE105AB8EE411AF7EE001A31EE211ADD
:10205000C0EE011ABCEEE11A81ED021A03E0002580
:102060000D604D608D6070BD284402580090D00313
:10207000000000460024744C0024744A20BCBE4B6F
:1020800070B50146844D2D6805F00303824D2D681F
:10209000C5F30550804D2D1D2D6805F480747E4DCF
:1020A0001C352D68C5F3CC0515FB04F501EE105A5F
:1020B000B8EE411AF0EE410A00286FD023B1012B8F
:1020C0004ED0022B6BD16BE0734D283D2D68C5F3CC
:1020D00040153DB3704D283D2D68C5F3C1066F4DC9
:1020E00025FA06F201EE102AF8EE411A01EE100A66
:1020F000B8EE411A81EE812A9FED691AC0EE811A6D
:10210000654D18352D68C5F3080501EE105AB8EE77
:10211000411A31EE811AF7EE001A31EE211A22EE41
:10212000010A1CE001EE100AB8EE411ADFED5D1A5B
:1021300081EE812A9FED5A1AC0EE811A564D18354C
:102140002D68C5F3080501EE105AB8EE411A31EEBC
:10215000811AF7EE001A31EE211A22EE010A5BE035
:1021600001EE100AB8EE411ADFED4F1A81EE812A16
:102170009FED4B1AC0EE811A474D18352D68C5F3F7
:10218000080501EE105AB8EE411A31EE811AF7EE49
:10219000001A31EE211A22EE010A3DE077E01DE03F
:1021A00001EE100AB8EE411A9FED402AC2EE011A64
:1021B0009FED3B1A80EE812A374D18352D68C5F307
:1021C000080501EE105AB8EE411A32EE011AB7EEC8
:1021D000002A31EE021A21EE810A1DE001EE100AFA
:1021E000B8EE411ADFED301A81EE812A9FED2C1AEC
:1021F000C0EE811A284D18352D68C5F3080501EE8B
:10220000105AB8EE411A31EE811AF7EE001A31EE8B
:10221000211A22EE010A00BF00BF1F4D18352D689C
:10222000C5F3462501EE105AB8EE411AF7EE001A32
:1022300031EE211AC0EE011ABCEEE11A81ED001A4E
:10224000154D18352D68C5F3064501EE105AB8EE48
:10225000411AF7EE001A31EE211AC0EE011ABCEE57
:10226000E11A81ED011A0C4D18352D68C5F306658C
:1022700001EE105AB8EE411AF7EE001A31EE211AAB
:10228000C0EE011ABCEEE11A81ED021A03E000254E
:102290000D604D608D6070BD284402580090D003E1
:1022A000000000460024744C0024744A20BCBE4B3D
:1022B0002DE9F04104460025A846206800F00060A2
:1022C000B0F1006F30D1606E48B1B0F5801F0DD015
:1022D000B0F5001F10D0B0F5401F15D113E0F9483C
:1022E000006840F40030F74908600FE00221201D2B
:1022F00001F000FF054609E0022104F1240001F08D
:10230000ABFF054602E001E0012500BF00BF55B963
:10231000EC482430006820F44010616E0843E9491D
:102320002431086000E0A846208800F48070B0F5F1
:10233000807F2DD1606D05281AD2DFE800F0030AF6
:1023400010171800DF48006840F40030DD490860CD
:1023500010E00021201D01F0CDFE05460AE000211D
:1023600004F1240001F078FF054603E002E001E0FB
:10237000012500BF00BF55B9D2482430006820F0C5
:102380000700616D0843CF492431086000E0A8468A
:10239000208800F40070B0F5007F33D1A06D802854
:1023A00017D003DC40B140281CD10CE0C02817D066
:1023B000B0F5807F16D114E0C248006840F40030C8
:1023C000C049086010E00021201D01F093FE054681
:1023D0000AE0002104F1240001F03EFF054603E07D
:1023E00002E001E0012500BF00BF55B9B548243027
:1023F000006820F4E070A16D0843B2492431086000
:1024000000E0A846208800F48060B0F5806F38D1E5
:10241000D4F8A400B0F5800F19D004DC50B1B0F5A9
:10242000001F1DD10DE0B0F5C00F17D0B0F5000FA3
:1024300016D114E0A348006840F40030A1490860B8
:1024400010E00021201D01F055FE05460AE00021A4
:1024500004F1240001F000FF054603E002E001E082
:10246000012500BF00BF5DB996482C30006820F4FC
:102470006000D4F8A410084392492C31086000E0B1
:10248000A846208800F40060B0F5006F38D1D4F879
:10249000A800B0F1007F19D004DC50B1B0F1807F0A
:1024A0001DD10DE0B0F1407F17D0B0F1806F16D193
:1024B00014E08448006840F400308249086010E06D
:1024C0000021201D01F016FE05460AE0002104F15E
:1024D000240001F0C1FE054603E002E001E0012511
:1024E00000BF00BF5DB977482C30006820F0E06085
:1024F000D4F8A810084373492C31086000E0A846BE
:10250000206800F00070B0F1007F27D1A06CA0B16E
:10251000102804D0202809D030280FD10CE06948B9
:10252000006840F400306749086009E00221201D7E
:1025300001F0E0FD054603E002E001E0012500BFF7
:1025400000BF55B95F482030006820F03000A16C12
:1025500008435C492031086000E0A846208800F468
:102560008050B0F5805F36D1E06DB0F5005F19D0D6
:1025700004DC50B1B0F5805F1DD10DE0B0F5405FD7
:1025800017D0B0F5804F16D114E04E48006840F4E3
:1025900000304C49086010E00021201D01F0AAFD28
:1025A00005460AE0002104F1240001F055FE05462D
:1025B00003E002E001E0012500BF00BF55B941483A
:1025C0002430006820F4E040E16D08433D492431A7
:1025D000086000E0A846208800F40050B0F5005FD5
:1025E00034D1206EB0F5403F1DD007DC68B1B0F5A6
:1025F000803F0BD0B0F5003F18D10DE0B0F5802F33
:1026000012D0B0F5A02F11D10FE011E00121201D53
:1026100001F070FD05460BE0012104F1240001F0FA
:102620001BFE054604E003E002E001E0012500BFD7
:1026300000BF55B923482430006820F4E020216E03
:10264000084320492431086000E0A846208800F4AF
:102650008040B0F5804F38D1D4F8AC00B0F1405F85
:102660001DD007DC68B1B0F1805F0BD0B0F1005F26
:1026700018D10DE0B0F1804F12D0B0F1A04F11D1C0
:102680000FE011E00121201D01F034FD05460BE0B3
:10269000012104F1240001F0DFFD054604E003E020
:1026A00002E001E0012500BF00BF6DB905482C30F4
:1026B000006820F0E040D4F8AC10084301492C3108
:1026C000086002E02C440258A846208800F400402C
:1026D000B0F5004F26D1E06E98B1B0F1805F03D025
:1026E000B0F1005F0ED106E0F948006840F4003018
:1026F000F749086008E00121201D01F0FBFC0546B8
:1027000002E001E0012500BF00BF55B9F0482430C8
:10271000006820F04050E16E0843ED492431086024
:1027200000E0A846206800F08070B0F1807F27D1DB
:10273000606CA0B1012804D0022809D003280FD171
:102740000CE0E348006840F40030E149086009E02B
:102750000221201D01F0CEFC054603E002E001E06D
:10276000012500BF00BF55B9D9482030006820F0CE
:102770000300616C0843D6492031086000E0A84698
:10278000206800F48000B0F5800F7DD1D14800684A
:1027900040F48070CF490860FFF7EAF9064606E08A
:1027A000FFF7E6F9801B642801D9032505E0C94835
:1027B000006800F480700028F2D000BF85BBC448D8
:1027C0004430006800F44070B4F8B01001F4407177
:1027D000884213D0BE484430006820F44077BC489B
:1027E0004430006840F48030B949443108600846FC
:1027F000006820F48030086008460760D4F8B00014
:10280000B0F5807F15D1FFF7B3F9064609E0FFF771
:10281000AFF9801B41F28831884202D9032507E0D5
:1028200038E0AB4844300068C0F340000028EED0E8
:1028300000BF55BB00BFB4F8B00000F44070B0F565
:10284000407F0ED1A2481C38006820F47C51A24A77
:10285000D4F8B000104041EA10109D491C390860BE
:1028600007E09B481C38006820F47C5098491C39CC
:102870000860974844300068B4F8B010C1F30B0109
:1028800008439349443101E005E001E0086002E0BB
:10289000A84600E0A846207800F0010068B3A06FC9
:1028A000182819D005DC48B1082808D0102816D1FE
:1028B0000BE0202811D0282811D10FE011E00121D0
:1028C000201D01F017FC05460BE0012104F1240056
:1028D00001F0C2FC054604E003E002E001E001254E
:1028E00000BF00BF55B97A482830006820F0380092
:1028F000A16F084376492831086000E0A846207897
:1029000000F00200022828D1606F062815D2DFE807
:1029100000F003040A11121311E00121201D01F03F
:10292000E9FB05460BE0012104F1240001F094FCD1
:10293000054604E003E002E001E0012500BF00BF1E
:1029400055B963482830006820F00700616F0843DC
:102950005F492831086000E0A846207800F00400B4
:1029600004282AD1D4F89000062815D2DFE800F018
:1029700003040A11121311E00121201D01F0BAFB1A
:1029800005460BE0012104F1240001F065FC054639
:1029900004E003E002E001E0012500BF00BF5DB9F3
:1029A0004B482C30006820F00700D4F89010084302
:1029B00047492C31086000E0A846207800F020004C
:1029C000202836D1D4F88C00B0F1405F1DD007DC50
:1029D00068B1B0F1805F0BD0B0F1005F18D10DE0AD
:1029E000B0F1804F12D0B0F1A04F11D10FE011E043
:1029F0000021201D01F07EFB05460BE0022104F1C1
:102A0000240001F029FC054604E003E002E001E0B7
:102A1000012500BF00BF5DB92D482830006820F0B7
:102A2000E040D4F88C10084329492831086000E0C0
:102A3000A846207800F04000402836D1D4F898000D
:102A4000B0F5406F1DD007DC68B1B0F5806F0BD0DA
:102A5000B0F5006F18D10DE0B0F5805F12D0B0F581
:102A6000A05F11D10FE011E00021201D01F042FB19
:102A700005460BE0022104F1240001F0EDFB0546C0
:102A800004E003E002E001E0012500BF00BF5DB902
:102A90000F482C30006820F4E050D4F89810084318
:102AA0000B492C31086000E0A846207800F0800037
:102AB00080283AD1D4F89C00B0F5C04F23D00DDC6B
:102AC00098B1B0F5005F11D0B0F5804F1ED113E082
:102AD0002C44025800480258FFFCFF0FB0F5004F8D
:102AE00012D0B0F5204F11D10FE011E00021201DD0
:102AF00001F000FB05460BE0022104F1240001F087
:102B0000ABFB054604E003E002E001E0012500BF65
:102B100000BF4DB9B648006820F46040D4F89C105E
:102B20000843B349086000E0A846207800F0080098
:102B3000082818D1D4F88000B0F5805F08D10221B0
:102B400004F1240001F088FB68B14FF001080AE0AD
:102B5000A748001F006820F44050D4F880100843B4
:102B6000A349091F0860207800F01000102816D132
:102B7000D4F89400B0F5807F08D1022104F124003C
:102B800001F06AFB58B14FF0010808E0984800686E
:102B900020F44070D4F894100843954908602068E8
:102BA00000F40020B0F5002F26D1D4F8A00030B1F9
:102BB000B0F5803F09D0B0F5003F0ED10CE0002108
:102BC000201D01F097FA054609E0022104F12400D6
:102BD00001F042FB054602E001E0012500BF00BF15
:102BE0004DB98348006820F44030D4F8A010084361
:102BF0007F49086000E0A846206800F48020B0F516
:102C0000802F2DD1D4F88400B0F5801F06D0B0F508
:102C1000001F0CD0B0F5401F11D10FE074482C38C4
:102C2000006840F4003072492C39086009E0012145
:102C300004F1240001F010FB054602E001E001254B
:102C400000BF00BF5DB96A48001F006820F4401053
:102C5000D4F8841008436649091F086000E0A846BC
:102C6000206800F48030B0F5803F24D1E06C18B1CA
:102C7000B0F5803F0FD108E05D482C38006840F483
:102C800000305B492C39086007E00221201D01F06B
:102C900031FA054601E0012500BF00BF55B954488F
:102CA0000C38006820F48030E16C084350490C393E
:102CB000086000E0A846206800F00050B0F1005F16
:102CC00007D1022104F1240001F0C6FA08B14FF047
:102CD0000108206800F40030B0F5003F27D1E06F14
:102CE000A0B1B0F5807F06D0B0F5007F0CD0B0F574
:102CF000407F0CD109E03E482C38006840F4003099
:102D00003B492C39086004E003E002E001E00125C2
:102D100000BF00BF55B93648001F006820F440705E
:102D2000E16F08433249091F086000E0A8462068A7
:102D300000F48010B0F5801F09D12D4808380068D4
:102D400020F00040216F08432949083908602068B5
:102D500000F08050B0F1805F0AD125484838006803
:102D600020F48040D4F8B410084321494839086061
:102D7000206800F40010B0F5001F09D11C48083885
:102D8000006820F08070A16E084319490839086076
:102D9000206800F08040B0F1804F11D100BF14488E
:102DA0004838006820F40040114948390860084656
:102DB0000068D4F8B81008430D494839086000BFCE
:102DC000206800F00040B0F1004F09D108480C38ED
:102DD000006820F04050216D084305490C39086017
:102DE000B8F1000F02D10020BDE8F0810120FBE71F
:102DF000584402582DE9F04104460D4614B901200B
:102E0000BDE8F081B648006800F00F00A8420ED27D
:102E1000B348006820F00F002843B1490860084615
:102E2000006800F00F00A84201D00120E8E72078F8
:102E300000F0040004280ED1AA492069096801F0B5
:102E40007001884207D9A748006820F07000216906
:102E50000843A4490860207800F00800082811D130
:102E6000A049091D6069096801F07001884209D90B
:102E70009C48001D006820F0700061690843994972
:102E8000091D0860207800F01000102811D1954924
:102E9000091DA069096801F4E061884209D99148D7
:102EA000001D006820F4E060A16908438D49091DF8
:102EB0000860207800F02000202811D189490831CD
:102EC000E069096801F07001884209D98548083035
:102ED000006820F07000E169084382490831086009
:102EE000207800F0020002280ED17E49E0680968CF
:102EF00001F00F01884207D97A48006820F00F00DE
:102F0000E168084377490860207800F00100002854
:102F100050D07448006820F47060A168084371497B
:102F200008606068022807D16E4818380068C0F34E
:102F30004040F8B9012063E76068032807D1694879
:102F400018380068C0F34060A0B9012058E76068F5
:102F5000012807D1634818380068C0F3002048B939
:102F600001204DE75F4818380068C0F3800008B9B9
:102F7000012045E75B480838006820F007006168D9
:102F80000843584908390860FEF7F2FD064608E094
:102F9000FEF7EEFD801B41F28831884201D9032003
:102FA0002EE750480838006800F038006168B0EB40
:102FB000C10FEDD1207800F0020002280ED149495E
:102FC000E068096801F00F01884207D245480068AF
:102FD00020F00F00E168084342490860404800685B
:102FE00000F00F00A8420ED93D48006820F00F0005
:102FF00028433B4908600846006800F00F00A842DB
:1030000001D00120FCE6207800F0040004280ED155
:1030100034492069096801F07001884207D23148BB
:10302000006820F07000216908432E49086020786C
:1030300000F00800082811D12A49091D60690968B3
:1030400001F07001884209D22648001D006820F076
:103050007000616908432349091D0860207800F069
:103060001000102811D11F49091DA069096801F439
:10307000E061884209D21B48001D006820F4E0602E
:10308000A16908431749091D0860207800F0200055
:10309000202811D113490831E069096801F0700155
:1030A000884209D20F480830006820F07000E169BA
:1030B00008430C490831086000F08EF80949096896
:1030C000C1F30321084A515C01F01F01C8400749C0
:1030D000086007480068FEF759FD074638468FE646
:1030E0000020005218440258BE710008000000245D
:1030F0000C0000243F220260174A126802F0070207
:103100004260154A0832126802F470628260124A04
:103110000832126802F00F02C2600F4A08321268C9
:1031200002F0700202610C4A0C32126802F0700266
:103130004261094A0C32126802F4E0628261064A76
:103140001032126802F07002C261044A126802F082
:103150000F020A607047000010440258002000521D
:1031600010B5FEF74BFE0749096801F00F01064A4A
:10317000515C01F01F01C84004490860084600681E
:1031800010BD000018440258BE710008040000245D
:1031900010B5FFF7E5FF05490968C1F30211044ABC
:1031A000515C01F01F01C84010BD00001C440258D2
:1031B000BE71000810B5FFF7D3FF05490968C1F3D8
:1031C0000221044A515C01F01F01C84010BD0000FB
:1031D0001C440258BE710008F0B5824E366806F0F5
:1031E000380636B1082E15D0102E15D0182E7DD1E8
:1031F00014E07C4E103E3668C6F3401646B1794E58
:10320000103E3668C6F3C107774E26FA07F000E095
:103210007548E5E07548E3E07548E1E0714E183621
:10322000366806F003046F4E18363668C6F305118B
:103230006C4E1C36366806F001056A4E2436366838
:10324000C6F3CC0616FB05F601EE106AB8EE410A8D
:10325000002971D024B1012C50D0022C6DD16DE029
:10326000604E103E3668C6F340163EB35D4E103ECB
:103270003668C6F3C1075C4E26FA07F301EE103A32
:10328000F8EE411A01EE101AB8EE411A81EE812AC9
:103290009FED581AC0EE011A524E20363668C6F31A
:1032A000080601EE106AB8EE411A31EE811AF7EE07
:1032B000001A31EE211A62EE010A1EE001EE101A28
:1032C000B8EE411ADFED4C1A81EE812A9FED491AC2
:1032D000C0EE011A434E20363668C6F3080601EEEA
:1032E000106AB8EE411A31EE811A00E076E0F7EE8E
:1032F000001A31EE211A62EE010A5BE001EE101AAB
:10330000B8EE411A9FED3D2AC2EE011A9FED391A1F
:1033100080EE012A334E20363668C6F3080601EEE9
:10332000106AB8EE411A32EE011AB7EE002A31EEF9
:10333000021A61EE810A3DE04EE01DE001EE101A36
:10334000B8EE411ADFED2E1A81EE812A9FED291A7F
:10335000C0EE011A234E20363668C6F3080601EE89
:10336000106AB8EE411A31EE811AF7EE001A31EE0A
:10337000211A62EE010A1DE001EE101AB8EE411AA0
:103380009FED1E2AC2EE011A9FED1A1A80EE012A45
:10339000144E20363668C6F3080601EE106AB8EE01
:1033A000411A32EE011AB7EE002A31EE021A61EE2E
:1033B000810A00BF00BF0B4E20363668C6F3462692
:1033C000721C01EE102AB8EE411AC0EE811ABCEE52
:1033D000E11A11EE100A00E0002001E0034800BFEE
:1033E00000BFF0BD104402580090D00300093D001A
:1033F00040787D01000000460024744C0024744A8B
:1034000020BCBE4B2DE9F041044614B90120BDE8B3
:10341000F081207800F00100002871D0F8480068A1
:1034200000F03806F64818300768102E05D0182E20
:103430000FD107F0030002280BD1F14810380068C3
:10344000C0F3404000286AD06068002867D101209E
:10345000DDE700BF6068B0F5803F08D1E84810386C
:10346000006840F48030E649103908602EE060685A
:1034700068B9E3481038006820F48030E04910391A
:1034800008600846006820F4802008601EE060683C
:10349000B0F5A02F0DD1DA481038006840F4802034
:1034A000D749103908600846006840F48030086049
:1034B0000CE0D3481038006820F48030D04910392F
:1034C00008600846006820F48020086000BF60683B
:1034D00090B1FEF74DFB054606E0FEF749FB401BA9
:1034E000642801D9032092E7C54810380068C0F36A
:1034F00040400028F1D012E0FEF73AFB054607E015
:103500000EE0FEF735FB401B642801D903207EE75F
:10351000BB4810380068C0F340400028F1D100BF1C
:10352000207800F0020002287ED1B548006800F043
:103530003806B3481830076826B1182E48D107F06E
:103540000300C0BBAE4810380068C0F3800018B15B
:10355000E06808B901205AE7A9481038006820F04F
:103560001900E1680843A64910390860FEF700FB1E
:10357000054606E0FEF7FCFA401B022801D90320AD
:1035800045E79F4810380068C0F380000028F1D05C
:1035900000BFFEF7E7FA41F2030188420CD89848D1
:1035A0000C38006820F47C30216940EA01309449ED
:1035B0000C3908600BE00BE091480C38006820F0F3
:1035C000FE40217C40EA01608D490C39086059E0D9
:1035D000E06850B38A481038006820F01900E168AC
:1035E0000843874910390860FEF7C2FA054606E02D
:1035F000FEF7BEFA401B022801D9032007E78048E6
:1036000010380068C0F380000028F1D000BFFEF73A
:10361000A9FA41F2030188420ED879480C380068B3
:1036200020F47C30216901E02DE011E040EA013016
:1036300073490C3908600AE071480C38006820F0C2
:10364000FE40217C40EA01606D490C39086019E0B8
:103650006B481038006820F0010069491039086093
:10366000FEF786FA054606E0FEF782FA401B0228BE
:1036700001D90320CBE6624810380068C0F380000F
:103680000028F1D100BF207800F01000102878D178
:103690005B48006800F03806594818300768082E63
:1036A00005D0182E2FD107F0030001282BD1544844
:1036B00010380068C0F3002020B1E069802801D0F4
:1036C0000120A4E600BFFEF74DFA41F20301884253
:1036D0000CD84B480C38006820F0F84094F82010C3
:1036E00040EA816046490C3908600BE04448001FFD
:1036F000006820F07C5094F8201040EA01604049B6
:10370000091F086058E0E069D0B33D4810380068F0
:1037100040F080003A4910390860FEF729FA054662
:1037200006E0FEF725FA401B022801D903206EE6C9
:10373000334810380068C0F300200028F1D000BFE3
:10374000FEF710FA41F2030188420CD82C480C38DD
:10375000006820F0F84094F8201040EA8160284981
:103760000C3908600BE02648001F006820F07C50F0
:1037700094F8201040EA01602149091F08601BE00D
:1037800000E01AE01E481038006820F080001C4954
:1037900010390860FEF7ECF9054606E0FEF7E8F997
:1037A000401B022801D9032031E615481038006873
:1037B000C0F300200028F1D100BF207800F00800FD
:1037C000082836D16069E8B10D486430006840F0DF
:1037D00001000B4964310860FEF7CAF9054606E0AE
:1037E000FEF7C6F9401B022801D903200FE6044862
:1037F00064300068C0F340000028F1D019E00000F8
:1038000010440258CF48006820F00100CD490860FC
:10381000FEF7AEF9054606E0FEF7AAF9401B0228BE
:1038200001D90320F3E5C7480068C0F34000002831
:10383000F2D1207800F02000202836D1A069D0B144
:10384000C0487438006840F48050BE49743908603C
:10385000FEF78EF9054606E0FEF78AF9401B0228BE
:1038600001D90320D3E5B74874380068C0F340306D
:103870000028F1D019E0B3487438006820F4805073
:10388000B04974390860FEF773F9054606E0FEF7A3
:103890006FF9401B022801D90320B8E5A948743804
:1038A0000068C0F340300028F1D1207800F0040017
:1038B00004287DD1A448006840F48070A2490860C3
:1038C000FEF756F9054606E0FEF752F9401B64285C
:1038D00001D903209BE59C48006800F48070002813
:1038E000F2D000BFA068012808D19648001F0068E8
:1038F00040F001009349091F08602DE0A06868B9F5
:103900009048001F006820F001008E49091F0860E0
:103910000846006820F0040008601DE0A068052843
:103920000DD18848001F006840F004008549091F38
:1039300008600846006840F0010008600CE081481B
:10394000001F006820F001007E49091F086008463A
:10395000006820F00400086000BFA068A0B1FEF776
:1039600007F9054608E0FEF703F9401B41F28831EC
:10397000884201D903204AE57248001F0068C0F35D
:1039800040000028EFD013E0FEF7F2F8054608E00B
:10399000FEF7EEF8401B41F28831884201D903203E
:1039A00035E56848001F0068C0F340000028EFD1EB
:1039B000606A00287ED063486438006800F03800F0
:1039C000182878D0606A022876D15E48743800687A
:1039D00020F080705B4974390860FEF7C9F805462D
:1039E00006E0FEF7C5F8401B022801D903200EE5CA
:1039F000544874380068C0F340600028F1D100BF1B
:103A0000D4E90A1041EA00104E494C39096840F2E5
:103A1000F332914308434B494C390860208E401ED5
:103A2000C0F30800616B491E4FF47E4202EA412157
:103A30000843218F491ED20102EA014108433C217B
:103A4000095D491E120202EA016108433D494439F9
:103A5000086000BF081F006820F00100091F08600F
:103A60003848403800684FF6F8718843A16C40EA46
:103A7000C10034494039086032484838006820F0B5
:103A80000C00216C08432F4948390860084600683B
:103A900020F00200616C08432A4948390860084652
:103AA000006840F4803008600846006840F4003048
:103AB000086002E043E040E024E00846006840F48B
:103AC000802008600846006840F0010008601D483A
:103AD0007438006840F080701A4974390860FEF745
:103AE00047F8054606E0FEF743F8401B022801D9D7
:103AF00003208CE4134874380068C0F34060002849
:103B0000F1D01CE00F487438006820F080700D4937
:103B100074390860FEF72CF8054606E0FEF728F831
:103B2000401B022801D9032071E40648743800685C
:103B3000C0F340600028F1D101E0012067E40020DB
:103B400065E400007444025800480258034A1268B1
:103B500082430A43014B1A60704700000404005876
:103B600070477047704710B504460CB9012010BD6E
:103B700094F83D0028B9002084F83C00204600F06D
:103B80000CF8022084F83D00211D206800F0B0FDF3
:103B9000012084F83D000020E9E7704701460868ED
:103BA000C06840F001000B68D86008688068084B66
:103BB00000EA0302062A08D0B2F5803F05D0086863
:103BC000006840F001000B6818600020704700009A
:103BD00007000100704710B5044620680069C0F373
:103BE0004000D8B12068C068C0F34000B0B16FF0A9
:103BF000020021680861012020772068806900F0B8
:103C0000030018B12046FFF7E5FF05E0204600F06D
:103C1000BEF8204600F0BCF800202077206800693C
:103C2000C0F38000D8B12068C068C0F38000B0B194
:103C30006FF0040021680861022020772068806905
:103C400000F4407018B12046FFF7C4FF05E020469D
:103C500000F09DF8204600F09BF8002020772068B7
:103C60000069C0F3C000D8B12068C068C0F3C000CC
:103C7000B0B16FF008002168086104202077206847
:103C8000C06900F0030018B12046FFF7A3FF05E06C
:103C9000204600F07CF8204600F07AF800202077DB
:103CA00020680069C0F30010D8B12068C068C0F374
:103CB0000010B0B16FF01000216808610820207773
:103CC0002068C06900F4407018B12046FFF782FFF9
:103CD00005E0204600F05BF8204600F059F800208F
:103CE00020772068006900F0010058B12068C068A2
:103CF00000F0010030B16FF001002168086120463A
:103D000000F047F820680069C0F3C01058B120687F
:103D1000C068C0F3C01030B16FF080002168086146
:103D20002046FFF71EFF20680069C0F3002058B14D
:103D30002068C068C0F3C01030B16FF48070216893
:103D400008612046FFF70CFF20680069C0F380106F
:103D500058B12068C068C0F3801030B16FF04000E7
:103D600021680861204600F015F820680069C0F35A
:103D7000401058B12068C068C0F3401030B16FF0F7
:103D80002000216808612046FFF7ECFE10BD704757
:103D900070477047704710B504460CB9012010BD3C
:103DA000A06900B100E000BFD4F8800028B900206D
:103DB00084F87C00204600F02AF82420C4F8800013
:103DC0002068006820F0010021680860204600F0AB
:103DD000ABFD012800D1E2E7A06A10B1204600F057
:103DE000EDFC2068406820F490402168486020681D
:103DF000806820F02A00216888602068006840F010
:103E0000010021680860204600F054FDC7E77047B4
:103E10002DE9F84F04460E4617469946D4F880001F
:103E200020285DD106B117B90120BDE8F88F00BF89
:103E300094F87C00012801D10220F6E7012084F8E3
:103E40007C0000BF0020543460632120E062FDF755
:103E50008FFE824627806780543CA068B0F5805F63
:103E600004D1206910B90025B04602E035464FF074
:103E700000081DE05346002280212046CDF8009026
:103E800002F0CAF808B10320CFE745B9B8F800003E
:103E9000C0F308002168886208F1020803E028786E
:103EA000216888626D1CB4F85600401EA4F85600C4
:103EB000B4F856000028DDD15346002240212046A8
:103EC000CDF8009002F0A8F808B10320ADE720205B
:103ED000C4F8800000BF002084F87C0000BFA4E785
:103EE0000220A2E700BFFEE770B506460D46144665
:103EF00002F0BCF946F0010002F086F902F0EAF99E
:103F000000B112E00BE002F05BF928706D1C601E3E
:103F100084B214B902F03AF901E002F011F9002C70
:103F2000F1D102F0C1F9002070BD02F0BDF901200D
:103F3000FAE700002DE9F04105460F46002400266F
:103F400000BFCF221D491EA0FCF756FB00BF00BFDB
:103F50002BE004EB440005EB8000807800F00100CA
:103F600088B104EB440305EB83039A8804EB440314
:103F700005EB8303996804EB440315F82300FFF76E
:103F8000B3FF064610E004EB440305EB83031A7904
:103F900004EB440305EB8303996804EB440315F831
:103FA000230000F01DF80646641C0EB9BC42D0D1B7
:103FB00016B13046BDE8F0812046FBE76275000887
:103FC0003C3C2D4754502D46554E432D3E3E2046F9
:103FD000756E633A2573404C696E653A25640A0034
:103FE0002DE9F04104460D46174602F05DF9002622
:103FF0000AE002F03BF9204602F006F902F06AF905
:1040000000B904E0701C86B2B6F57A7FF1DB00BF20
:10401000B6F57A7F00D112E007E0287802F0F4F8D4
:1040200002F058F900B10AE06D1C381EA7F1010139
:10403000CFB2F2D102F038F90020BDE8F08102F0F1
:1040400033F90120F9E7000000B587B000BF24482C
:10405000006840F00200224908600846006800F04D
:104060000200019000BF00BF00BF0846006840F09A
:10407000020008600846006800F00200019000BFDE
:1040800000BF00BF0846006840F001000860084615
:10409000006800F00100019000BF00BF0120029005
:1040A000039004900220059002A90E48FDF748FCF9
:1040B0000220029002A90B48FDF742FC0820029062
:1040C00002A90948FDF73CFC0120064918310860A7
:1040D0000220086008200449886107B000BD000084
:1040E000E0440258000402580000025800BFFEE7F6
:1040F000704700002DE9F04104460E460027554860
:10410000006800F00300032802D10120BDE8F0811F
:1041100050482838006820F080604E4928390860EF
:10412000FDF726FD054606E0FDF722FD401B0228AF
:1041300001D90320EAE7474828380068C0F3C06087
:104140000028F1D100BF4348006820F47C3021688A
:1041500040EA01303F490860A088401EC0F30800D3
:10416000A168491E4FF47E4202EA41210843A18919
:10417000491ED20102EA01410843217C491E120274
:1041800002EA0161084333491031086000BF314839
:10419000001D006820F0C000616908432D49091D19
:1041A00008600846006820F02000A16908432949FA
:1041B000091D08600846006820F0100008602548C6
:1041C000143000684FF6F8718843E16940EAC10095
:1041D0002049143108601F48001D006840F010009D
:1041E0001C49091D08602EB90846006840F40020EB
:1041F000086012E0012E08D11648001D006840F446
:1042000080101449091D086007E01248001D00686D
:1042100040F400100F49091D08600E482838006856
:1042200040F080600B4928390860FDF7A1FC054685
:1042300006E0FDF79DFC401B022801D9032065E73D
:10424000044828380068C0F3C0600028F1D0384620
:104250005CE70000284402582DE9F04104460E4670
:1042600000275548006800F00300032802D1012010
:10427000BDE8F08150482838006820F080504E4951
:1042800028390860FDF774FC054606E0FDF770FC70
:10429000401B022801D90320EAE747482838006874
:1042A000C0F340700028F1D100BF4348006820F0FF
:1042B0007C70218840EA01503F490860A088401E78
:1042C000C0F30800A168491E4FF47E4202EA412172
:1042D0000843A189491ED20102EA01410843217C19
:1042E000491E120202EA016108433349183108608D
:1042F00000BF3148001D006820F440606169084338
:104300002D49091D08600846006820F40070A16965
:1043100008432949091D08600846006820F4807098
:10432000086025481C3000684FF6F8718843E16941
:1043300040EAC10020491C3108601F48001D006888
:1043400040F480701C49091D08602EB908460068B9
:1043500040F48000086012E0012E08D11648001DCC
:10436000006840F400001449091D086007E0124885
:10437000001D006840F080700F49091D08600E485C
:104380002838006840F080500B4928390860FDF754
:10439000EFFB054606E0FDF7EBFB401B022801D9C9
:1043A000032065E7044828380068C0F340700028FF
:1043B000F1D038465CE700002844025810B50023CD
:1043C000234C236000BF00BF00BFBFF34F8F00BF6F
:1043D00000BF00BF231F1868C0F34E3100BFC0F3F9
:1043E000C90200BF43F6E07303EA41134FF04044B3
:1043F00004EA82742343174C236000BF00BF131EDE
:10440000A2F10102EED10B1EA1F10101E7D100BF23
:1044100000BF00BFBFF34F8F00BF00BF00BF0C4BFA
:10442000703B1B6843F48033094C703C236000BF31
:1044300000BF00BFBFF34F8F00BF00BF00BF00BF72
:1044400000BF00BFBFF36F8F00BF00BF00BF10BD34
:1044500084ED00E060EF00E000BF00BF00BFBFF3ED
:104460004F8F00BF00BF00BF00BF00BF00BFBFF342
:104470006F8F00BF00BF00BF00201449086000BF5D
:1044800000BF00BFBFF34F8F00BF00BF00BF00BF22
:1044900000BF00BFBFF36F8F00BF00BF00BF0C485D
:1044A000006840F400300A49086000BF00BF00BF48
:1044B000BFF34F8F00BF00BF00BF00BF00BF00BFF2
:1044C000BFF36F8F00BF00BF00BF704750EF00E029
:1044D00014ED00E005A0FCF78FF800BF07A0FCF783
:1044E0008BF8012001F0B1FFF8E7000077756461F7
:1044F0006E2073746172740A000000003C3C3C78CA
:10450000787878777564616E310A000005A0FCF751
:1045100073F800BF07A0FCF76FF8012001F095FFCA
:10452000F8E70000777564616E312073746172740E
:104530000A0000003E3E3E3E3E3E78787877756445
:10454000616E310A0000000010B500BF502080F3FA
:104550001188BFF34F8FBFF36F8F00BF02F004FDD0
:1045600018B14FF080500449086000BF002080F36C
:10457000118800BF10BD000004ED00E000B59DB043
:104580004C210AA8FCF70FFA202102A8FCF70BFA2D
:104590000220FDF703FC00BF0020019029480068BD
:1045A00040F44040274908600846006800F4404055
:1045B00001902548006820F00100401C2249086055
:1045C0000846006800F00100019000BF00BF00BF76
:1045D0001C48006800F40050B0F5005FF8D10120DD
:1045E0000A9000040B9002201390022114910521DF
:1045F0001591C02116910221179118911991082146
:104600001A9100211B911C910AA8FEF7FBFE08B12C
:1046100000BFFEE73F20029003200390002004909B
:104620000820059040200690079000010890402047
:104630000990042102A8FEF7DDFB08B100BFFEE7E8
:104640001DB000BD184802582C04005820480068CE
:1046500040F470001E4908601E48006840F00100E8
:104660001C49086000201B49103108601948006887
:104670001949084017490860002016491831086098
:10468000091D0860091D0860124928310860091DCC
:104690000860091D0860091D0860091D0860091DE2
:1046A0000860091D0860091D08600A48006820F4B8
:1046B0008020084908600020064960310860012018
:1046C00006490860C006024980390860704700004A
:1046D00088ED00E0004402587FEDF6EA08810051C1
:1046E00010B50248FFF777FA10BD0000AC000024B7
:1046F00010B50268294B98420ED0B0F1804F0BD014
:10470000274B984208D0274B984205D0264B984219
:1047100002D0264B984203D122F070024B681A4314
:104720001E4B984217D0B0F1804F14D01C4B9842CA
:1047300011D01C4B98420ED01B4B98420BD01B4BF8
:10474000984208D01A4B984205D01A4B984202D092
:10475000194B984203D122F44072CB681A4322F0DD
:1047600080034C6943EA040202608B68C3620B68F1
:1047700083620A4B98420BD00C4B984208D00C4BEA
:10478000984205D00B4B984202D00B4B984201D176
:104790000B6903630123436110BD00000000014069
:1047A0000004004000080040000C004000040140EC
:1047B00000400140004401400048014090F82810AA
:1047C00001F0010139B10168496821F40031C26A80
:1047D00011430268516090F8281001F0020102298B
:1047E00007D10168496821F48031026B11430268E6
:1047F000516090F8281001F00401042907D10168E4
:10480000496821F48021426B11430268516090F89D
:10481000281001F00801082907D10168496821F42E
:104820000041826B11430268516090F8281001F03A
:104830001001102907D10168896821F48051C26BE9
:1048400011430268916090F8281001F0200120299E
:1048500007D10168896821F40051026C1143026894
:10486000916090F8281001F04001402913D10168AF
:10487000496821F48011426C114302685160416C17
:10488000B1F5801F07D10168496821F4C001826C2D
:1048900011430268516090F8281001F080018029CE
:1048A00007D10168496821F40021C26C11430268F4
:1048B0005160704738B504460020C4F88800FDF701
:1048C00057F905462068006800F0080008280CD158
:1048D0006FF07E402B4600224FF4001100902046DE
:1048E00001F09AFB08B1032038BD2068006800F091
:1048F000040004280CD16FF07E402B4600224FF4B8
:1049000080010090204601F087FB08B10320EBE70F
:104910002020C4F88000C4F8840000BF002084F880
:104920007C0000BF00BFDFE72DE9F04F89B00446EF
:104930004FF00009002007908346F949206888421B
:1049400000D100E000BF2169A06808436169084305
:10495000E16940EA010A606E40EA0A0A20680068DC
:10496000F049084040EA0A00216808602068406871
:1049700020F44050E168084321684860D4F818A04A
:10498000E7492068884202D0206A40EA0A0A206883
:104990008068E549084040EA0A002168886020688C
:1049A000C06A20F00F00616A08432168C86200BF36
:1049B000DE492068884220D1DD48006800F03800D8
:1049C000182811D005DC48B1082809D0102811D1C9
:1049D00008E020280AD028280CD109E001250BE0A6
:1049E000042509E0082507E0102505E0202503E05F
:1049F000402501E0802500BFF8E0CE4920688842CC
:104A000019D1CB48006800F00700062810D2DFE873
:104A100000F0030507090B0D00250BE0042509E054
:104A2000082507E0102505E0202503E0402501E0EA
:104A3000802500BFDAE0C0492068884219D1BC480F
:104A4000006800F00700062810D2DFE800F0030538
:104A500007090B0D00250BE0042509E0082507E0F8
:104A6000102505E0202503E0402501E0802500BF5A
:104A7000BCE0B2492068884219D1AD48006800F016
:104A80000700062810D2DFE800F0030507090B0D28
:104A900000250BE0042509E0082507E0102505E0C6
:104AA000202503E0402501E0802500BF9EE0A449C9
:104AB0002068884219D19E48006800F00700062847
:104AC00010D2DFE800F0030507090B0D00250BE00D
:104AD000042509E0082507E0102505E0202503E06E
:104AE000402501E0802500BF80E09649206888428B
:104AF00020D18F48006800F03800182811D005DC5C
:104B000048B1082809D0102811D108E020280AD07F
:104B100028280CD109E001250BE0042509E008252F
:104B200007E0102505E0202503E0402501E0802571
:104B300000BF5BE084492068884219D17C48006846
:104B400000F00700062810D2DFE800F0030507098F
:104B50000B0D00250BE0042509E0082507E01025D2
:104B600005E0202503E0402501E0802500BF3DE071
:104B700076492068884219D16D48006800F0070026
:104B8000062810D2DFE800F0030507090B0D002509
:104B90000BE0042509E0082507E0102505E02025A5
:104BA00003E0402501E0802500BF1FE05C4920684C
:104BB00088421AD15E48001D006800F007000628F0
:104BC00010D2DFE800F0030507090B0D02250BE00A
:104BD000042509E0082507E0102505E0202503E06D
:104BE000402501E0802500BF00E0802500BF4C4942
:104BF0002068884271D1102D70D006DC022D09D0BA
:104C0000042D49D0082D6AD1A6E0202D68D0402D72
:104C1000F9D1B3E1FDF70AF9616A09B9012138E078
:104C2000616A012901D1022133E0616A022901D1BF
:104C300004212EE0616A032901D1062129E0616A7D
:104C4000042901D1082124E0616A052901D10A2142
:104C50001FE0616A062901D10C211AE0616A072967
:104C600001D1102115E0616A082901D1202110E04D
:104C7000616A092901D140210BE0616A0A2901D149
:104C8000802106E0616A0B2902D14FF4807100E0B7
:104C90000121B0FBF1FBB6E104A8FDF7D9F80598B6
:104CA000616A09B9012154E0616A012901D1022137
:104CB0004FE0616A022901D104214AE0616A0329B7
:104CC00001D1062145E0616A042901D1082140E0B3
:104CD000616A052905D10A213BE0FDE380E08FE10F
:104CE0000BE1616A062901D10C2132E0616A0729D2
:104CF00001D110212DE0616A082901D1202128E08D
:104D0000616A092901D1402123E0616A0A2901D1A0
:104D100080211EE0616A0B291AD14FF4807118E0DE
:104D2000000C0058F369FFCFFFF4FF1100100140A1
:104D3000544402580044004000480040004C0040E9
:104D4000005000400014014000780040007C00400A
:104D50000121B0FBF1FB56E101A8FDF791F90298A2
:104D6000616A09B9012138E0616A012901D1022192
:104D700033E0616A022901D104212EE0616A03292E
:104D800001D1062129E0616A042901D1082124E02A
:104D9000616A052901D10A211FE0616A062901D152
:104DA0000C211AE0616A072901D1102115E0616A1E
:104DB000082901D1202110E0616A092901D140218F
:104DC0000BE0616A0A2901D1802106E0616A0B29A2
:104DD00002D14FF4807100E00121B0FBF1FB12E140
:104DE000FA480068C0F3401088B3F8480068C0F380
:104DF000C101F748C840616A09B9012139E0616A17
:104E0000012901D1022134E0616A022901D1042182
:104E10002FE0616A032901D106212AE0616A042991
:104E200001D1082125E0616A052901D10A2120E08C
:104E3000616A062901D10C211BE0616A072901D1B1
:104E4000102116E0616A082902D1202111E013E047
:104E5000616A092901D140210BE0616A0A2901D167
:104E6000802106E0616A0B2902D14FF4807100E0D5
:104E70000121B0FBF1FB3FE0606A08B9012038E096
:104E8000606A012801D1022033E0606A022801D162
:104E900004202EE0606A032801D1062029E0606A20
:104EA000042801D1082024E0606A052801D10A20E5
:104EB0001FE0606A062801D10C201AE0606A07280A
:104EC00001D1102015E0606A082801D1202010E0EF
:104ED000606A092801D140200BE0606A0A2801D1EC
:104EE000802006E0606A0B2802D14FF4807000E059
:104EF0000120B749B1FBF0FB85E0606A08B90120E9
:104F000038E0606A012801D1022033E0606A02289B
:104F100001D104202EE0606A032801D1062029E097
:104F2000606A042801D1082024E0606A052801D1C4
:104F30000A201FE0606A062801D10C201AE0606A8E
:104F4000072801D1102015E0606A082801D120202F
:104F500010E0606A092801D140200BE0606A0A284D
:104F600001D1802006E0606A0B2802D14FF48070E6
:104F700000E001209749B1FBF0FB44E0606A08B90A
:104F8000012038E0606A012801D1022033E0606A24
:104F9000022801D104202EE0606A032801D10620F6
:104FA00029E0606A042801D1082024E0606A05280D
:104FB00001D10A201FE0606A062801D10C201AE006
:104FC000606A072801D1102015E0606A082801D125
:104FD000202010E0606A092801D140200BE0606ABF
:104FE0000A2801D1802006E0606A0B2802D14FF424
:104FF000807000E001204FF40041B1FBF0FB02E0C3
:105000000120079000BF00BFBBF1000F00F0F28746
:10501000606800EB4000584503D8606800035845BD
:1050200003D20120079000F0E5BF102D75D006DCFB
:10503000022D09D0042D67D0082D6FD1CCE0202D92
:105040006DD0402DF9D14DE2FCF7F0FE8046606A4C
:1050500008B9012238E0606A012801D1022233E058
:10506000606A022801D104222EE0606A032801D17F
:10507000062229E0606A042801D1082224E0606A3F
:10508000052801D10A221FE0606A062801D10C22FE
:105090001AE0606A072801D1102215E0606A08282A
:1050A00001D1202210E0606A092801D140220BE0E2
:1050B000606A0A2801D1802206E0606A0B2802D1CA
:1050C0004FF4807200E001229446002340461946C6
:1050D000FBF71AFA4FF4807300228C46A0FB031EE4
:1050E0000CFB03E300FB0233606840088C461CEBBA
:1050F000000643EB0201D4F804C0624600233046A8
:10510000FBF702FA81464EE204A8FCF7A1FEDDF8A7
:1051100014E0606A20B901223BE0BFE040E282E196
:10512000606A012801D1022233E0606A022801D1BD
:1051300004222EE0606A032801D1062229E0606A79
:10514000042801D1082224E0606A052801D10A223E
:105150001FE0606A062801D10C221AE0606A072865
:1051600001D1102215E0606A082801D1202210E048
:10517000606A092801D140220BE0606A0A2801D147
:10518000802206E0606A0B2802D14FF4807200E0B2
:1051900001229446002370461946FBF7B5F94FF4F7
:1051A000807C0022A0FB0C3E01FB0CE100FB021105
:1051B000606840081E185141D4F804C062460023BC
:1051C0003046FBF7A1F98146EDE1000000440258AA
:1051D0000090D00300093D0001A8FCF751FFDDF865
:1051E00008C0606A08B9012238E0606A012801D16C
:1051F000022233E0606A022801D104222EE0606AB4
:10520000032801D1062229E0606A042801D108227E
:1052100024E0606A052801D10A221FE0606A06289E
:1052200001D10C221AE0606A072801D1102215E092
:10523000606A082801D1202210E0606A092801D1A3
:1052400040220BE0606A0A2801D1802206E0606AF1
:105250000B2802D14FF4807200E001229646002311
:1052600060461946FBF750F94FF4807300228C46D4
:10527000A0FB031E0CFB03E300FB02336068400845
:105280008C461CEB000643EB0201D4F804C06246D6
:1052900000233046FBF738F9814684E1F84800687E
:1052A000C0F3401090B3F6480068C0F3C101F54860
:1052B00020FA01FE606A08B9012239E0606A01281B
:1052C00001D1022234E0606A022801D104222FE0D9
:1052D000606A032801D106222AE0606A042801D10D
:1052E000082225E0606A052801D10A2220E0606AD0
:1052F000062801D10C221BE0606A072801D1102288
:1053000016E0606A082802D1202211E030E0606ACD
:10531000092801D140220BE0606A0A2801D18022CD
:1053200006E0606A0B2802D14FF4807200E001228F
:105330009446002370461946FBF7E6F84FF4807355
:1053400000228C46A0FB031E0CFB03E300FB023390
:10535000606840088C461CEB000643EB0201D4F861
:1053600004C0624600233046FBF7CEF8814659E080
:10537000606A08B9012238E0606A012801D102227E
:1053800033E0606A022801D104222EE0606A03281B
:1053900001D1062229E0606A042801D1082224E014
:1053A000606A052801D10A221FE0606A062801D13F
:1053B0000C221AE0606A072801D1102215E0606A09
:1053C000082801D1202210E0606A092801D140227A
:1053D0000BE0606A0A2801D1802206E0606A0B288F
:1053E00002D14FF4807200E0012294460023A548C8
:1053F0001946FBF789F84FF4807300228C46A0FB16
:10540000031E0CFB03E300FB0233606840080E1828
:1054100043EB0201D4F804C0624600233046FBF798
:1054200073F88146BFE0606A08B9012238E0606A1B
:10543000012801D1022233E0606A022801D104224E
:105440002EE0606A032801D1062229E0606A042860
:1054500001D1082224E0606A052801D10A221FE058
:10546000606A062801D10C221AE0606A072801D17F
:10547000102215E0606A082801D1202210E0606A3D
:10548000092801D140220BE0606A0A2801D180225C
:1054900006E0606A0B2802D14FF4807200E001221E
:1054A0009446002378481946FBF72EF84FF4807392
:1054B00000228C46A0FB031E0CFB03E300FB02331F
:1054C000606840088C461CEB000643EB0201D4F8F0
:1054D00004C06246002300E073E03046FBF714F896
:1054E000814660E0606A08B9012238E0606A0128FC
:1054F00001D1022233E0606A022801D104222EE0A9
:10550000606A032801D1062229E0606A042801D1DB
:10551000082224E0606A052801D10A221FE0606A9F
:10552000062801D10C221AE0606A072801D1102256
:1055300015E0606A082801D1202210E0606A09287D
:1055400001D140220BE0606A0A2801D1802206E0E6
:10555000606A0B2802D14FF4807200E00122944669
:1055600000234FF400401946FAF7CEFF4FF4807342
:1055700000228C46A0FB031E0CFB03E300FB02335E
:10558000606840088C461CEB000643EB0201D4F82F
:1055900004C0624600233046FAF7B6FF814602E0B7
:1055A0000120079000BF00BFB9F5407F06D3B9F5D1
:1055B000801F03D22068C0F80C9034E501200790CA
:1055C00031E5E069B0F5004F71D1082D70D005DCF0
:1055D0005DB1012D5AD0042D6BD1A7E0102D69D0FB
:1055E000202D68D0402DF7D11EE2FDF7D1FD804679
:1055F000606A08B9012038E0606A012801D1022000
:1056000033E0606A022801D104202EE0606A03289A
:1056100001D1062029E0606A042801D1082024E095
:10562000606A052801D10A201FE0606A062801D1BE
:105630000C201AE0606A072801D1102015E0606A8A
:10564000082801D1202010E0606A092801D14020FB
:105650000BE0606A0A2801D1802006E0606A0B280E
:1056600002D14FF4807000E00120B8FBF0F0400060
:10567000616800EB5100B0FBF1F01FFA80F920E205
:10568000004402580090D00300093D00FDF792FD50
:105690008046606A08B901203DE0606A012801D1B6
:1056A000022038E0606A022806D1042033E020E2BC
:1056B00088E003E2D2E06EE1606A032801D10620AF
:1056C00029E0606A042801D1082024E0606A0528E6
:1056D00001D10A201FE0606A062801D10C201AE0DF
:1056E000606A072801D1102015E0606A082801D1FE
:1056F000202010E0606A092801D140200BE0606A98
:105700000A2801D1802006E0606A0B2802D14FF4FC
:10571000807000E00120B8FBF0F04000616800EB11
:105720005100B0FBF1F01FFA80F9CAE104A8FCF7C0
:105730008FFB0598616A09B9012138E0616A012986
:1057400001D1022133E0616A022901D104212EE056
:10575000616A032901D1062129E0616A042901D186
:10576000082124E0616A052901D10A211FE0616A4C
:10577000062901D10C211AE0616A072901D1102103
:1057800015E0616A082901D1202110E0616A092928
:1057900001D140210BE0616A0A2901D1802106E094
:1057A000616A0B2902D14FF4807100E00121B0FB46
:1057B000F1F04000616800EB5100B0FBF1F01FFA1E
:1057C00080F97EE101A8FCF75BFC0298616A09B9E7
:1057D000012138E0616A012901D1022133E0616AC7
:1057E000022901D104212EE0616A032901D1062199
:1057F00029E0616A042901D1082124E0616A0529B0
:1058000001D10A211FE0616A062901D10C211AE0A9
:10581000616A072901D1102115E0616A082901D1C7
:10582000202110E0616A092901D140210BE0616A61
:105830000A2901D1802106E0616A0B2902D14FF4C7
:10584000807100E00121B0FBF1F04000616800EBE5
:105850005100B0FBF1F01FFA80F932E1F94800681D
:10586000C0F3401088B3F7480068C0F3C101F648A0
:10587000C840616A09B9012139E0616A012901D191
:10588000022134E0616A022901D104212FE0616A1A
:10589000032901D106212AE0616A042901D10821E6
:1058A00025E0616A052901D10A2120E0616A062903
:1058B00001D10C211BE0616A072901D1102116E0FA
:1058C000616A082902D1202111E01BE0616A0929DF
:1058D00001D140210BE0616A0A2901D1802106E053
:1058E000616A0B2902D14FF4807100E00121B0FB05
:1058F000F1F04000616800EB5100B0FBF1F01FFADD
:1059000080F947E0606A08B9012038E0606A012840
:1059100001D1022033E0606A022801D104202EE088
:10592000606A032801D1062029E0606A042801D1B9
:10593000082024E0606A052801D10A201FE0606A7F
:10594000062801D10C201AE0606A072801D1102036
:1059500015E0606A082801D1202010E0606A09285B
:1059600001D140200BE0606A0A2801D1802006E0C6
:10597000606A0B2802D14FF4807000E00120B24928
:10598000B1FBF0F04000616800EB5100B0FBF1F0BA
:105990001FFA80F995E0606A08B9012038E0606A72
:1059A000012801D1022033E0606A022801D10420DD
:1059B0002EE0606A032801D1062029E0606A0428ED
:1059C00001D1082024E0606A052801D10A201FE0E7
:1059D000606A062801D10C201AE0606A072801D10C
:1059E000102015E0606A082801D1202010E0606ACC
:1059F000092801D140200BE0606A0A2801D18020EB
:105A000006E0606A0B2802D14FF4807000E00120AC
:105A10008E49B1FBF0F04000616800EB5100B0FB33
:105A2000F1F01FFA80F94CE0606A08B9012038E013
:105A3000606A012801D1022033E0606A022801D1A6
:105A400004202EE0606A032801D1062029E0606A64
:105A5000042801D1082024E0606A052801D10A2029
:105A60001FE0606A062801D10C201AE0606A07284E
:105A700001D1102015E0606A082801D1202010E033
:105A8000606A092801D140200BE0606A0A2801D130
:105A9000802006E0606A0B2802D14FF4807000E09D
:105AA00001204FF40041B1FBF0F04000616800EBD1
:105AB0005100B0FBF1F01FFA80F902E001200790DD
:105AC00000BF00BFB9F1100F10D3B9F5803F0DD260
:105AD0004FF6F07009EA00000890C9F342010898F7
