:020000040800F2
:10000000401B00245D040008DB5B0008914C0008E5
:10001000D75B0008D714000869150108000000002C
:100020000000000000000000000000009D03000828
:100030008718000800000000F9030008ADF9000867
:1000400077040008770400087704000877040008A4
:100050007704000877040008770400087704000894
:10006000770400089D18000877040008770400084A
:100070007704000877040008770400087704000874
:100080007704000877040008770400087704000864
:100090007704000877040008770400087704000854
:1000A0007704000845FB000877040008770400087F
:1000B0007704000877040008770400087704000834
:1000C0007704000877040008770400087704000824
:1000D0007704000877040008770400087704000814
:1000E0007704000877040008000000007704000887
:1000F00077040008770400087704000877040008F4
:1001000077040008770400087704000877040008E3
:1001100077040008770400087704000877040008D3
:1001200077040008770400087704000877040008C3
:1001300077040008770400087704000877040008B3
:1001400000000000000000000000000000000000AF
:100150007704000877040008770400087704000893
:100160007704000877040008770400087704000883
:1001700077040008770400087704000800000000F6
:100180007704000877040008770400087704000863
:100190007704000877040008770400087704000853
:1001A0007704000877040008770400087704000843
:1001B0007704000877040008770400087704000833
:1001C0007704000877040008770400087704000823
:1001D0007704000877040008770400087704000813
:1001E0007704000877040008770400087704000803
:1001F00077040008770400087704000877040008F3
:1002000077040008770400087704000877040008E2
:1002100077040008770400087704000877040008D2
:100220007704000877040008770400080000000045
:100230007704000877040008000000007704000835
:1002400077040008770400087704000877040008A2
:100250007704000877040008770400087704000892
:100260007704000877040008770400087704000882
:1002700077040008770400087704000800000000F5
:1002800077040008770400087704000800000000E5
:10029000000000007704000800F002F800F06FF89A
:1002A0000AA090E8000C82448344AAF10107DA45D1
:1002B00001D100F064F8AFF2090EBAE80F0013F0B4
:1002C000010F18BFFB1A43F0010318476C840100AB
:1002D0008C8401000A444FF0000C10F8013B13F02D
:1002E000070408BF10F8014B1D1108BF10F8015B8F
:1002F000641E05D010F8016B641E01F8016BF9D182
:1003000013F0080F1EBF10F8014BAD1C0C1B09D1D8
:100310006D1E58BF01F801CBFAD505E014F8016B4A
:1003200001F8016B6D1EF9D59142D6D370470000DC
:100330000023002400250026103A28BF78C1FBD8EE
:10034000520728BF30C148BF0B607047642900F0D6
:10035000E381782900F01C82632900F05F8400208B
:1003600070471FB513F00EFF9DE8030000F09AFBE5
:1003700000F0B6FC1FBD10B500F01BFD10BD00F075
:1003800086FD1146FFF7EDFF12F014FF00F064FE4A
:1003900003B4FFF7F0FF03BC00F09CFE2C4B196880
:1003A0000868B0E8F04F80F30988BFF36F8F4FF013
:1003B000000080F3118870470000000008480068C2
:1003C000006880F308884FF0000080F3148862B65C
:1003D00061B6BFF34F8FBFF36F8F00DF00BF00BF69
:1003E00008ED00E0DFF80C00016841F470010160E5
:1003F000704700BF88ED00E0EFF30980BFF36F8F17
:10040000134B1A681EF0100F08BF20ED108A20E968
:10041000F04F106009B44FF0500080F31188BFF323
:100420004F8FBFF36F8F13F055FC4FF0000080F338
:10043000118809BC19680868B0E8F04F1EF0100F69
:1004400008BFB0EC108A80F30988BFF36F8F704744
:1004500008010024EFF30580704700000948804739
:1004600009480047FEE7FEE7FEE7FEE7FEE7FEE796
:10047000FEE7FEE7FEE7FEE704480549054A064BAE
:1004800070470000B1FA00089902000840150024E6
:10049000401B0024401700244017002470B5A0FB27
:1004A0000140B4F1805170F1000024BF002070BD04
:1004B000204600F007F805001CBF214600F0CCFBE9
:1004C000284670BD70B5064600F0CCFA056806F106
:1004D0000B0020F00704B4429CBF002070BD2B46E7
:1004E0006A68BAB11068A04210D304F108018842CA
:1004F0003CBF5068586007D35168101941601168BB
:10050000091B016058601460101D70BD13465268CD
:10051000002AE7D12146284600F0B0FA0028DED1B3
:1005200070BD70B50446051F00F09CFA0068002CF1
:1005300014BF446870BD002C18BFAC423CBF2046BD
:100540006468F8D301680A18AA4218BF456003D14D
:100550002A6805461144016028684119A1421CBF60
:100560006C6070BD6168696021680844286070BD76
:1005700053EA020C00F069802DE9F04B4FF00006C1
:10058000002B1FBFB3FA83F503FA05F424FA05F62E
:100590005E4012BF1643B2FA82F502FA05F4C5F1C5
:1005A00020051EBF22FA05FC44EA0C04203556EA59
:1005B000044C4FEA144418BF641C4FF000084FF07D
:1005C0000009904271EB030C39D3002919BFB1FA2D
:1005D00081F701FA07F6B0FA80F700FA07F6C7F1DB
:1005E00020071EBF20FA07FC46EA0C062037B6FBA0
:1005F000F4FCA7EB0507103F07F01F0BCBF120061B
:100600000CFA0BFB2CFA06F644BFB3460026202F4B
:10061000A4BF5E464FF0000B5BEA060C08BF4FF02C
:10062000010B19EB0B09ABFB027C48EB0608C01B66
:1006300006FB02CC0BFB03CC71EB0C01C1E70B46B4
:10064000024641464846BDE8F08B13B54FF0000026
:100650004FF00001AFF30080BDE81C407047000080
:100660000FB4044910B503AA029800F0E3FA10BCD5
:100670005DF814FB3414002470B5044685690068E5
:10068000C10601D5302600E02026C00707D070BD86
:10069000D4E9012130469047206A401C20626D1E3B
:1006A000F6D570BD70B5044685690078C00707D1DE
:1006B00070BDD4E9012120209047206A401C2062AF
:1006C0006D1EF6D570BD70B50C460546012A05D0E5
:1006D0002878800600D5EA69002302E0012305E0BE
:1006E0005B1C934202D2E05C0028F9D1A869E618AD
:1006F000C01AA861286A184428622846FFF7BCFF80
:1007000004E0D5E9012114F8010B9047B442F8D375
:100710002846FFF7C7FF70BD2DE9F04106460024CB
:1007200010687529314616A510D0AFF30080002857
:1007300002DA404213A507E031688A0701D512A505
:1007400002E0490704D511A5012401E0AFF30080C0
:1007500000210A2206F1240709E0B0FBF2FCB0FBFD
:10076000F2F302FB1C00303078541846491C002874
:10077000F3D123462A463046BDE8F04100F0D3B914
:10078000000000002D0000002B00000020000000F1
:1007900070B504460D4621461068AFF300802188ED
:1007A000090502D50F4A7A4402E00E4A7A440E3215
:1007B000002104F1240305E000F00F060009965D16
:1007C0005E54491C0028F7D120780023000704D587
:1007D000702D02D009B1022311322046BDE87040CD
:1007E00000F0A1B99A7C01002DE9F05F894604462A
:1007F0004FF0000ADFF824B1FB44C0F820A02046E7
:10080000E168884700287DD0252806D0D4E9012159
:100810009047206A401C2062F1E700255F46204691
:10082000E16888472028064607DB312E05D2B81933
:1008300010F8200C08B10543F1E7A80701D525F011
:100840000405C4F81CA00027C4F818A02A2E09D05B
:10085000304612F075FA38B304EB8708303EC8F81A
:10086000186019E059F8041B204604EB87029161D7
:10087000E1688847012F064618D1E069002820DA90
:1008800025F020051DE0D8F8180000EB800006EBED
:1008900040003038C8F818002046E168884706460E
:1008A00012F04EFA0028EED1012F0AD02E2E08D1D8
:1008B0002046E16888477F1C0646022F45F0200548
:1008C000C4DBA069002803DA404245F00105A061BD
:1008D000E80701D025F01005A6B1A6F141001928BE
:1008E00002D8203645F400654A4631462046256048
:1008F0004D46FFF72BFD60B1012807D0ED1D25F017
:10090000070000E007E000F1080978E705F10409B5
:1009100075E730467AE7206ABDE8F09F707C0100F9
:10092000032A40F2308010F0030C00F0158011F81B
:10093000013BBCF1020F624498BF11F801CB00F8F3
:10094000013B38BF11F8013BA2F1040298BF00F847
:1009500001CB38BF00F8013B11F0030300F0258004
:10096000083AC0F0088051F8043B083A51F804CB2B
:10097000A0E80810F5E7121D5CBF51F8043B40F8F1
:10098000043BAFF30080D20724BF11F8013B11F8FC
:1009900001CB48BF11F8012B24BF00F8013B00F840
:1009A00001CB48BF00F8012B704710B5203AC0F0CA
:1009B0000B80B1E81850203AA0E81850B1E8185060
:1009C000A0E81850BFF4F5AF5FEA027C24BFB1E89D
:1009D0001850A0E8185044BF18C918C0BDE810400E
:1009E0005FEA827C24BF51F8043B40F8043B08BF17
:1009F0007047D20728BF31F8023B48BF11F8012BDE
:100A000028BF20F8023B48BF00F8012B70474FF089
:100A1000000200B5134694469646203922BFA0E84E
:100A20000C50A0E80C50B1F12001BFF4F7AF09075A
:100A300028BFA0E80C5048BF0CC05DF804EB89004B
:100A400028BF40F8042B08BF704748BF20F8022B8E
:100A500011F0804F18BF00F8012B704770477047A6
:100A60007047000000487047E414002400487047B5
:100A7000DC140024704770477047704738B504464F
:100A80000A4600206946AFF30080002808BF38BD41
:100A900002460099204600F005F9012038BD0120EA
:100AA00000F0BAB9F8B5AFF30080054600200C4657
:100AB000102000BF0646A819A0420DD9324669464B
:100AC0000020AFF30080070008BF00F0A5F90098F0
:100AD000A04218BF0546C419FFF7C4FF05600746CA
:100AE000F01D20F007004619284600F00AF8B4422D
:100AF00008BFF8BDA21B31463868BDE8F84000F0D9
:100B0000D1B800210160C0E9011070471020704782
:100B100010B5FFF7ABFF006810BD10B50446FFF736
:100B2000A5FF046010BD2DE9F0470D469946924699
:100B3000044600F124080168880604D5E06921F024
:100B40001001216000E00120A84201DD471B00E008
:100B50000027A1697A1902EB0900081AA061207820
:100B6000C00602D42046FFF787FD002608E0D4E93E
:100B700001211AF806009047206A401C761C20626A
:100B80004E45F4DB2078C0060AD52046FFF774FDF9
:100B900006E0D4E9012130209047206A401C206201
:100BA000381EA7F10107F4DC07E0D4E9012118F8A9
:100BB00005009047206A401C2062281EA5F101050F
:100BC000F3DC2046FFF76EFD2078000602D50220F8
:100BD000BDE8F0870120FBE701694A1C0261087843
:100BE000704700B58FB0CDE901310021059105496D
:100BF0007944CDE9031011466846FFF7F5FD0FB0C3
:100C000000BD0000E5FFFFFF10B5436913B1AFF36E
:100C1000008001E0FFF757FD012010BD127800F1C0
:100C200024010A7000224A700122EDE711684FF09A
:100C3000FF32E9E7074B70B50D467B44FFF7D1FF64
:100C40000446284600F048F810B14FF0FF3070BD60
:100C5000204670BD8F2101004FF000020429C0F032
:100C6000128010F0030C3FF4D4AECCF1040CBCF1B4
:100C7000020F18BF00F8012BA8BF20F8022BA1EB30
:100C80000C01FFF7C6BE5FEAC17C24BF00F8012B50
:100C900000F8012B48BF00F8012B7047004870474F
:100CA000DC140024034640688C46002818BF8842A4
:100CB0003CBF03464068F8D318681844884207D000
:100CC0000CF1030020F00700001D411A521A0146E2
:100CD000081D0A60FFF725BC007B00F0800070470C
:100CE00010B542485421FFF792FE41485421FFF7C6
:100CF0008EFE40485421FFF78AFE3F493B483C4A5C
:100D00003F4B08603D490A603A491960531C03652E
:100D1000481C1065012008653B48344A39A17844D5
:100D200000F0FEF820B9384878440A3800F0A2F9FB
:100D300037482F4A35A1784400F0F2F820B93448FA
:100D400078440A3800F096F932482A4A2FA17844AC
:100D500000F0E6F820B92F4878440A3800F08AF904
:100D600040232248DC000021224600F0B5F820B1E3
:100D700025487844543800F07DF91D482246402328
:100D8000002100F0A9F820B121487844543800F03F
:100D900071F9184822461023002100F09DF8002820
:100DA00006D01C487844BDE81040563800F062B9BF
:100DB00010BD104870B5006D20F001040B4800F024
:100DC00025F90B4800F022F90A4800F01FF909E064
:100DD000206D20F00105204600F018F92046FFF7AD
:100DE000A0FB2C46002CF3D170BD0000E0130024C2
:100DF0003414002488140024680100246C010024A9
:100E000070010024720000004E790100770000009C
:100E10003A7901002679010010B500F033F9BDE8F8
:100E2000104000F022B90EB5CDE9000100F080FAC3
:100E3000029069460120ABBE0EBD08B56946009020
:100E40000220ABBE08BD1FB58DE80700694605202E
:100E5000ABBE04B010BD1FB58DE80F00694606207B
:100E6000ABBEF6E708B5694600900920ABBE08BDE9
:100E70001CB5CDE9000169460A20ABBE1CBD704718
:100E800008B5694600900C20ABBE08BD704775469A
:100E9000FFF704FFAE4605006946534620F0070001
:100EA000854618B020B5FFF7E7FABDE820404FF0BF
:100EB00000064FF000074FF000084FF0000B21F044
:100EC0000701AC46ACE8C009ACE8C009ACE8C00911
:100ED000ACE8C0098D46704770B5C468A50713D04B
:100EE000650211D4B2F5807F09D0B2F5007F06D03B
:100EF000B2F5806F08D1012300F1240106E05D1EE8
:100F00006FF07F46B54201D3012070BD0161C3611E
:100F1000416024F470611143C160002070BD000085
:100F20002DE9F0410C4607461646104600F06EF8D3
:100F30002078611C61280AD0722802D077283CD121
:100F400002E00125002405E00225042402E0082433
:100F500048F2020511F8010B2B2806D0622809D0AF
:100F600011F8010C74280AD00BE045F0030544F099
:100F70000204EFE745F0040544F00104EAE744F019
:100F8000100438462146FFF74EFF411C15D00021C2
:100F9000316171604FF40071F560F161706120079B
:100FA00004D530460222002100F09AF8306D40F05E
:100FB000010030653046BDE8F0810020FBE72DE9F7
:100FC000F0410D460646104C206DC10704D0410883
:100FD00004D020F00104F7E722460EE05420FFF78A
:100FE00071FA07000ED0206D47F00101084354212B
:100FF00020653846FFF70BFD3A4629463046BDE8E6
:10100000F0418DE70020D6E7E01300242DE9F047FA
:1010100004464FF000094FF0FF37C568D4E9048655
:10102000A80707D0204600F00BF93046FFF705FF70
:10103000002802DA3846BDE8F087280502D5404688
:10104000FFF76FFA4C212046FFF7E1FC206D20F0FE
:10105000010020654846EEE710B50446AFF3008076
:101060002046BDE81040FFF793B9002801D000F0FA
:1010700031B8704710B500F041F9BDE81040FFF7F6
:10108000F4BF000010B5012805D0002103A000F036
:101090001BF9012010BD09A1F8E700005349475290
:1010A000544D454D3A204F7574206F662068656138
:1010B00070206D656D6F7279000000003A20486500
:1010C0006170206D656D6F727920636F72727570DB
:1010D0007465640001491820ABBEFEE726000200DB
:1010E0002DE9F041044616460D464769007B80070E
:1010F0002ED03846FFF7B6FE50BB3EB3012E02D0CD
:10110000022E25D104E0204600F038F905441DE008
:101110003846FFF7B5FEE168002841F01001E160B4
:1011200005DA204600F058F80120BDE8F081C90337
:101130000BD56268E16A914200D81146A269114458
:101140002269891A814200DD08460544002D01DA32
:101150000220EAE7E16A6068E268814206D2910310
:10116000E06203D522F4003141F01002A6690027A5
:10117000AE4213DCE16A814201D90B4600E003462E
:1011800003EB060C2369ACEB030CAC4506DD814296
:1011900001D98C4600E084469C4505D1A7602760B4
:1011A00042F02000A5620DE0AD1BE669AE1B814256
:1011B000A66000D90846C01A281A20605819606035
:1011C00022F0200003490840E060002084F84870C5
:1011D000ABE70000BFCFD7FFC16821F4001141F099
:1011E0008001C16000218160016070472DE9F047F6
:1011F000814614460E464FF0FF383248D56857698D
:10120000054209D03846A169FFF732FE002811DBFC
:101210002C48C0430540E5602B46324649463846D7
:10122000FFF711FEA16920F00042B21A1144002814
:10123000A16103D02046FFF7CFFF4046BDE8F0870D
:1012400070B504460569C06A6168884200D80846DE
:10125000E16821F42011E160C90312D5A84208D049
:101260002246411B2846FFF7C1FF10B14FF0FF3067
:1012700070BD0020E562C4E90150E06820F48030D0
:10128000E060002070BD10B50446C06820F020006A
:10129000E060A16AA06988420DD02046FFF7D0FF28
:1012A000E06820F4405040F01000E060A06AA061C7
:1012B0002069E062606044F24001E0688843E060D9
:1012C00010BD00001000020070B505460C460A2053
:1012D00000E06D1C00F04BF835B128780028F8D1FB
:1012E00002E0641C00F043F814B120780028F8D123
:1012F000BDE870400A2000F03AB8000010B5014681
:1013000002A0FFF7E1FF012010BD00005349475242
:10131000545245443A2052656469726563743A20B8
:1013200063616E2774206F70656E3A2000000000C4
:1013300010B5431C02E010F8011B71B18107FAD10E
:101340004FF0013202C88C1A8C4314EAC211F9D052
:10135000C01A0A0603D0C01E10BDC01A10BD0A0470
:1013600001D0801E10BD0902FCD0401E10BD08B582
:1013700069468DF800000320ABBE08BD10B50146DC
:10138000C268900703D0900607D5886A0AE0FFF785
:101390006DFB01210160881E10BD8B6948681844EF
:1013A0000B69C01A91F848301BB191F84910401AE6
:1013B00010BD1103FCD50028FADD401E10BDF0B5AC
:1013C00005AC94E8F010F0BD2DE9FF5F04460D4632
:1013D00016461F46DDE910ABDDE90E8901F0A2FAE1
:1013E00001208DF80000CDF8048009F0FF008DF891
:1013F00008008DF80B6012988DF80F008DF80EB074
:101400008DF80DA08DF801408DF80A7000208DF840
:1014100009008DF80C50684601F056FA042001F0DE
:1014200097FABDE8FF9FF0B505ACF0CCF0BDF0B584
:1014300085B007460E4614461D46052E48D2DFE805
:1014400006F003111F2D3A0001200022CDE90220F1
:10145000134603220021CDE9004504903846FFF7EA
:10146000B3FF35E001200022CDE90220034603222C
:101470000021CDE9004504903846FFF7A5FF27E09D
:1014800000200121CDE90150034603220094CDE95B
:10149000031001463846FFF797FF19E00020CDE919
:1014A0000150039001230322014600940490384622
:1014B000FFF78AFF0CE00020CDE9015003900223E2
:1014C00003220146009404903846FFF77DFF00BFD9
:1014D00000BF05B0F0BD00BFFEE700000148406856
:1014E00070470000001000E02DE9F041074600269B
:1014F00002F0DCFC0F49B0FBF1F000FB07F800BF85
:10150000FFF7ECFF054611E0FFF7E8FF0446AC42A9
:101510000CD0AC4202D9601B064403E0C5F1FF3099
:10152000204406442546464500D300E0ECE700BFD2
:10153000BDE8F08140420F00FEB5002600270020E4
:1015400000900190029000240CE0002004EB440184
:10155000434A02EBC101086104EB440102EBC10103
:101560008860641C012CF0DB01223D49002012F050
:101570002CFA0546002D71DD39488068002841D0DD
:101580003748C0683749085CE8B9354A92ED011A16
:10159000B8EEC11AF0EE410A92ED001AB8EEC11A87
:1015A000B0EE410AD168B7EE001AD068012205F00A
:1015B000D1FA01202A49C9682A4A50542849C868E2
:1015C00012F012FA4AE02649C86811F0C1FB00285F
:1015D00044D1234A92ED011AB8EEC11AF0EE410A45
:1015E00092ED001AB8EEC11AB0EE410AD168B7EE1A
:1015F000001AD068002205F01DFB1949C86812F0D6
:10160000F3F92BE01648C0681649085C012825D17B
:10161000134A92ED011AB8EEC11AF0EE410A92EDAA
:10162000001AB8EEC11AB0EE410AD168B7EE001A3E
:10163000D068002205F08EFA00200949C968094ADD
:1016400050540748806820B9002005490860486068
:1016500008610349C868044912F0C6F9FEBD0000DC
:10166000B012002400010024D8120024F0B505AC0B
:1016700094E8F010F0BD30B5DDE9034530BD70B53C
:101680000646DDE90445002070BD70B50646DDE97B
:101690000445002070BDB0EE402A22EE210A01EE82
:1016A000600A704700B5B5B000BF3948006840F027
:1016B0000100374908600846006800F0010000900A
:1016C00000BF00BF00BF0846006840F0010008608E
:1016D0000846006800F00100009000BF00BF012034
:1016E000019000201F9001A801F04CFC00BF284889
:1016F0001030006840F0100025491031086008469D
:10170000006800F01000009000BF00BF4FF40070B0
:101710003090022031900120329002203390072037
:10172000349030A91B4800F067FE4FF48060309081
:101730000720349030A9174800F05EFE164817497C
:1017400008604FF4E1304860002114488160C160B6
:1017500001610C21416100218161C16101620020B0
:101760000E498862084603F0ECF900221146252054
:1017700001F040F9252001F02DF9084800680068C3
:1017800040F0200005490968086035B000BD000040
:10179000E04402580000025800100140D403002425
:1017A0002DE9F0470C4617469C46DDF82080D0F81E
:1017B0000090D9F8449009F0404948EA0C4A49EAB7
:1017C0000A09D0F800A0CAF84490D0F80090C9F8EF
:1017D0003C70D0F80490B9F5403F4ED104F07F46FC
:1017E00004F47F0104F47F42E3B2D0F80890B9F129
:1017F000000F06D142EA010949EA060949EA030550
:1018000036E0D0F80890B9F1010F04D142EA01099D
:1018100049EA03052CE0D0F80890B9F1020F09D18C
:10182000C90C920ADB084FEA421949EAC12949EA80
:1018300003051DE0D0F80890B9F1030F0CD1F60FA5
:10184000C90CD20ADB084FEA421949EA812949EA60
:10185000C63949EA03050BE0360F090D120B1B09C7
:101860004FEA021949EA012949EA063949EA03051A
:10187000D0F80090C9F8385003E0D0F80090C9F8CB
:101880000C40BDE8F08770477047704770B504ACF6
:1018900070CC70BD70B504AC70CC70BD05480068EC
:1018A00000F0080028B10120034908600820014920
:1018B00008607047880000585000002402460868FD
:1018C000B0B9D1E901031843CB6818430B69184339
:1018D0004B6918438B691843CB6918430B6A18434B
:1018E0004B6A184313686FF30E031843106019E036
:1018F000D1E9070318434B6A1843136823F4F843EC
:1019000018431060D1E901031843CB6818430B69F1
:1019100018434B6918438B69184353686FF30E03E0
:1019200018435060002070470246506943F6FE732A
:10193000984340EA410050610020704710B50346CB
:10194000D1E9000420438C68641E40EA4410CC684E
:1019500040EA44201C6920431861002010BD0000AB
:1019600030B50346FAB90868401E4C68641E40EA68
:1019700004148868401E44EA0024C868401E44EAF3
:101980000034088A401E44EA0044888A401E44EA23
:101990000054087E401E44EA00609C6804F07044D5
:1019A0002043986022E0C868401E0403888A401ED5
:1019B00044EA00509C680E4D2C4020439860086813
:1019C000401E4C68641E40EA04148868401E44EAC5
:1019D0000024088A401E44EA0044087E401E44EA6F
:1019E0000060DC6804F070442043D860002030BD03
:1019F000FF0F0FFF70477047FEB500200090019069
:101A0000029000243748007800EB4000364931F856
:101A100010503448007800EB400001EB400046884D
:101A200000273048007800EB400001EB4000808840
:101A3000401C000A8DF800002A48007800EB4000A6
:101A400001EB40000079401CC0B28DF801000A2271
:101A50006946BA2000F068F80446002C01DA00203C
:101A6000FEBD9DF802009DF8031000EB012085B239
:101A70009DF804009DF8051000EB012086B200BF20
:101A800000BF00BF684600BF1648007800EB40006A
:101A9000154901EB40008088801D000A8DF8000088
:101AA0001048007800EB400001EB40000079801DF9
:101AB000C0B28DF8010003226946BA2000F034F864
:101AC0000446002C01DA0020CAE79DF8020000F06D
:101AD00003073B463246294604A0FEF7C1FD01201C
:101AE000BEE7000054000024E68201083C3C2D477C
:101AF00054502D494E464F2D3E3E20585F4D415883
:101B0000203D2025642C20595F4D4158203D202543
:101B1000642C2054524947474552203D20307825B7
:101B20003032780A000000002DE9F04186B0054609
:101B30000C4616464FF0FF374FF0000800BF00BFBD
:101B40000020ADF802008DF800500220ADF804002E
:101B500002940121ADF80E108DF80C50B01E81B228
:101B6000ADF81010A01C059009E00221684603F0B2
:101B7000B7F90746022F00D104E008F10108B8F1D7
:101B8000050FF2DB00BFB8F1050F08DB60782378A2
:101B900040EA0321B21E3B460348FEF761FD38468A
:101BA00006B0BDE8F08100009486010838B5002039
:101BB00000901748007800EB4000164901EB400008
:101BC000808800128DF800001148007800EB40007A
:101BD00001EB400000798DF8010000256C1E00BF6C
:101BE00000BF0DE003226946BA20FFF79DFF44B213
:101BF000002C01DD204638BD294607A0FEF730FD48
:101C00002846691CCDB20528ECDB2046F3E700002E
:101C100054000024E68201083C3C2D4754502D45D9
:101C200052524F522D3E3E2047545020693263207D
:101C300074657374206661696C65642074696D6590
:101C40002025642E0A0000002DE9FE4380460C4644
:101C500015464FF0FF36002700BF00BF0020ADF84B
:101C600002008DF80080A8B2ADF80400029408E0EC
:101C70000121684603F034F90646012E00D102E046
:101C80007F1C052FF4DB00BF052F08DB607823786D
:101C900040EA0321AA1E33460248FEF7E1FC304623
:101CA000BDE8FE83E486010810B500BF00BF03F065
:101CB00069F810BD2DE9F0414FF0FF3400250026F2
:101CC00000274FF0000800BF00BF03F001F9FFF745
:101CD0006DFF0446002C05DA08A0FEF7C1FC204683
:101CE000BDE8F0811048FFF7FFFB00F01FF803F09C
:101CF00071F8FFF781FE0020F2E700003C3C2D4721
:101D000054502D4552524F522D3E3E2049324320D1
:101D1000636F6D6D756E69636174696F6E20455296
:101D2000524F52210A000000A086010010B586B073
:101D30004FF0FF34804903C9CDE9040100BF00BF63
:101D4000082204A9BA20FFF7EFFE0446002C05DAAA
:101D50007AA0FEF785FC204606B010BD9DF8140061
:101D6000312831D19DF8120039281AD19DF813007D
:101D7000312816D19DF81400312812D19DF8160093
:101D80009DF81710CDE900109DF814309DF8132030
:101D90009DF8121074A0FEF763FC01207E490870C4
:101DA000C8E09DF816009DF817109DF81520CDE9A4
:101DB000002102909DF814309DF813209DF8121018
:101DC00076A0FEF74DFCB5E09DF81400352838D11B
:101DD0009DF81200392821D19DF8130031281DD11A
:101DE0009DF81400352819D19DF81500372815D114
:101DF0009DF816009DF817109DF81520CDE90021DB
:101E000002909DF814309DF813209DF8121071A0D7
:101E1000FEF726FC0020604908708BE09DF8160054
:101E20009DF817109DF81520CDE9002102909DF82E
:101E300014309DF813209DF8121058A0FEF710FCE6
:101E400078E09DF81400382838D19DF81200352824
:101E500021D19DF8130036281DD19DF81400382893
:101E600019D19DF81500382815D19DF816009DF858
:101E700017109DF81520CDE9002102909DF814302F
:101E80009DF813209DF812105EA0FEF7E9FB0220DA
:101E9000414908704EE09DF816009DF817109DF816
:101EA0001520CDE9002102909DF814309DF81320F3
:101EB0009DF8121039A0FEF7D3FB3BE09DF814000B
:101EC000372825D19DF816009DF817109DF815208C
:101ED000CDE9002102909DF814309DF813209DF863
:101EE00012103CA0FEF7BCFB9DF81200392821D14E
:101EF0009DF8130031281DD19DF81400372819D101
:101F00009DF81500532815D103202349087011E0CE
:101F10009DF816109DF817009DF81520CDE90020BA
:101F200002919DF814309DF813209DF812101BA00B
:101F3000FEF796FB20460FE7F88301083C3C2D474F
:101F400054502D4552524F522D3E3E204754502062
:101F5000726561642076657273696F6E206661696F
:101F60006C65640A000000003C3C2D4754502D492C
:101F70004E464F2D3E3E20494331205665727369CF
:101F80006F6E3A202563256325635F2530327825FF
:101F90003032780A00000000540000243C3C2D47F9
:101FA00054502D494E464F2D3E3E20556E6B6E6F60
:101FB000776E2049432056657273696F6E3A20250B
:101FC000632563256325635F2530327825303278B9
:101FD0000A0000003C3C2D4754502D494E464F2DE1
:101FE0003E3E204943322056657273696F6E3A2037
:101FF00025632563256325635F25303278253032DC
:10200000780A00003C3C2D4754502D494E464F2D38
:102010003E3E204943332056657273696F6E3A2005
:1020200025632563256325635F25303278253032AB
:10203000780A00002DE9F04105460E4617460024B7
:102040000848006801280BD12246314628460FF087
:102050008DFA04460020034908602046BDE8F0815F
:102060000020FBE75000002430B500BF00BF0CB2D9
:10207000034D25F8104014B2024D25F8104030BD34
:1020800056000024600000244FF0FF31034A22F87C
:102090001010034A22F81010704700005600002468
:1020A00060000024002070472DE9F04307AC94E85D
:1020B000F010DDE90C89BDE8F083F0B505ACF0CC9B
:1020C000F0BD000070B502460C465068B0F5403FC8
:1020D00002D0506800B100BF012C09D1C4EBC40686
:1020E00002F1200000EB860040680B2800D100BF01
:1020F00000BF92F85800012801D1022070BD0120D4
:1021000082F8580000BF022082F85900C4EBC406D0
:1021100002F1200000EB86010E89486840EA064083
:102120000E8A40EA06508E8A40EA4653254D48689A
:102130000A2802D04868092804D1C86800F07F4006
:10214000034302E0087B43EA0063A4B91068406AD5
:10215000A84318431668706208681668B06148683A
:102160000A2802D04868092821D1C86820F07F4099
:102170001668B0621BE048680B2804D1088B43EA5C
:10218000804345F440251068C069A8431843166889
:10219000F06108681668306148680A2802D048680B
:1021A000092804D1C86820F07F40166830620120F9
:1021B00082F8590000BF002082F8580000BF00BF1D
:1021C0009CE700000F0033FF10B504460CB9012056
:1021D00010BD94F8590028B9002084F85800204612
:1021E00000F02EF8022084F859002068006820F4DE
:1021F000403061680843216808602068406B20F027
:102200000700A1680843216848632068006C6FF3E9
:102210000D00E168084321680864208A0105A08A4E
:1022200041EA40502168496B21F44011084321687C
:1022300048630020E065012084F859000020C7E7CA
:102240007047F8B504460D460020009020680068ED
:1022500000F00100002843D000F0E6F9064639E01E
:10226000206840680090009800F02100E0B10098DC
:1022700000F0200018B1E06D40F00200E065009829
:1022800000F0010018B1E06D40F00100E065212090
:1022900021688860042084F8590000BF002084F879
:1022A000580000BF0120F8BD681C98B100F0BCF9CF
:1022B000801BA84200D86DB9E06D40F02000E065B9
:1022C000032084F8590000BF002084F8580000BFA4
:1022D0000320E8E72068406800F002000028BFD033
:1022E0002068C06900F020072068406A00F02000E4
:1022F0000743002F4BD000F097F9064641E02068D5
:1023000040680090009800F0290020B3009800F089
:10231000080018B1E06D40F00400E065009800F09E
:10232000200018B1E06D40F00200E065009800F078
:10233000010018B1E06D40F00100E065292021683E
:102340008860042084F8590000BF002084F85800F9
:1023500000BF0120A7E7681C98B100F065F9801B59
:10236000A84200D86DB9E06D40F02000E065032080
:1023700084F8590000BF002084F8580000BF0320F3
:1023800091E72068406800F010000028B7D01220C4
:1023900021688860012084F8590000BF002084F87B
:1023A000580000BF00BF7EE72DE9F84304460D4604
:1023B00016461F46DDF8208000BF94F8580001281B
:1023C00002D10220BDE8F883012084F8580000BF44
:1023D000022084F859003B46324629462046CDF873
:1023E0000080FFF7DDF92068006840F001002168F7
:1023F00008600020E6E70000F8B502460023734DB0
:10240000DEE001279F400E6806EA0704002C71D029
:102410004E68022E02D04E68122E13D1DF0802F150
:10242000200656F827005E07F70E0F26BE40B04381
:102430005F07FF0E0E69BE403043DF0802F1200641
:1024400046F8270010685F000326BE40B0430E79AF
:1024500006F003065F00BE40304310604E68012E58
:1024600008D04E68022E05D04E68112E02D04E685C
:10247000122E13D190685F000326BE40B0435F0068
:10248000CE68BE4030439060506801269E40B04305
:102490000E79C6F300169E4030435060D0685F004E
:1024A0000326BE40B0435F008E68BE403043D0601C
:1024B0004E6806F08056B6F1805F1BD100BF444ED7
:1024C000366846F00206424F3E603E46366806F0E9
:1024D0000206009600BF00BF3E4E9F0856F8270038
:1024E0009E07370F0F26BE40B0433B4EB24202D18B
:1024F00000262EE063E0394EB24201D1012628E0E9
:10250000374EB24201D1022623E0364EB24201D10B
:1025100003261EE0344EB24201D1042619E0334EA8
:10252000B24201D1052614E0314EB24201D1062655
:102530000FE0304EB24201D107260AE02E4EB242E1
:1025400001D1082605E02D4EB24201D1092600E056
:102550000A269F073F0FBE4030431E4E9F0846F895
:1025600027002868A0434E6806F48036B6F5803F01
:1025700000D1204328606868A0434E6806F4003606
:10258000B6F5003F00D1204368604FF0B046306898
:10259000A0434E6806F48016B6F5801F00D1204394
:1025A0004FF0B04630607068A0434E6806F40016E5
:1025B000B6F5001F00D120434FF0B04670605B1CA1
:1025C0000E68DE40002E7FF41CAFF8BD800000587E
:1025D000F44402580804005800000258000402584D
:1025E00000080258000C025800100258001402584B
:1025F00000180258001C02580020025800240258FB
:10260000024613690B400BB1012000E00020704727
:102610000AB1816101E00B048361704701480068E1
:10262000000C70470010005C044840680449B0FB8F
:10263000F1F04FF47A71484370470000001000E059
:1026400000389C1C70B58AB004462348006840F0EE
:1026500080702149086000202049486008460068D1
:1026600040F00100086000250026002221461920C4
:1026700000F0C0F9192000F0ADF900BF184800685B
:1026800040F00100164908600846006800F00100AB
:10269000009000BF00BF01A902A801F095FB01F066
:1026A000F3FB45000F48B5FBF0F0461E0E480F49FE
:1026B000086040F2E7310D48C160466000210161C9
:1026C000816002F026F920B9084802F03DF90AB00D
:1026D00070BD0020FBE70000FCED00E0001000E012
:1026E000F044025840420F000000014074010024F1
:1026F00070B504460E46154600BF94F8A0000128A8
:1027000001D1022070BD012084F8A00000BF02208A
:1027100084F8A10005EB850101EBC50204F1380145
:1027200001EB820034223146FEF73FF92A4631465A
:10273000204603F03FF901202168486284F8A10097
:1027400000BF002084F8A00000BF00BFDAE700004F
:1027500070B504460CB9012070BD94F8A10028B9E9
:10276000002084F8A000204600F07EF8022084F8C3
:10277000A1002068806920F0704021688861D4E958
:1027800001010843E1680843216908432168896918
:1027900008432168886120688068324908402168C0
:1027A0008860A08A050420688068A16929430843DD
:1027B000216888602068C0682A4908402168C8608C
:1027C000A08B05042068C068216A2943084321685A
:1027D000C860206800692349084021680861A08C0E
:1027E000050420680069A16A29430843216808613B
:1027F000206840691B49084021684861A08D050494
:1028000020684069216B294308432168486194F896
:102810003500050294F8360006042068C06A00F00E
:102820007F402168C86246EA050094F834100843E6
:102830002168C96A08432168C8622068406B40F07B
:102840000600216848632068806940F00100216823
:1028500088610020C4F8A400012084F8A1000020B1
:102860007AE7000000F800F070472DE9F0410446D7
:102870000E46174600BF94F8A000012802D102209E
:10288000BDE8F081012084F8A00000BF022084F898
:10289000A10007EB870000EBC70104F1380000EB53
:1028A00081056E613A462946204603F083F80120EF
:1028B0002168486284F8A10000BF002084F8A000CD
:1028C00000BF00BFDCE700004178154A11600178C5
:1028D000F9B1121D41681160017B0907C27A41EA12
:1028E0000261827A41EAC241427B41EA8241827BB3
:1028F00041EA4241C27B41EA0241427A41EA022175
:10290000027A41EA420102781143054A0832116015
:1029100005E00021024A121D1160121D116070476E
:1029200098ED00E000BF00BF00BFBFF35F8F00BFA6
:1029300000BF00BF0548006820F4803003490860EC
:1029400000200249703108607047000024ED00E06B
:1029500040F001010D4A11600C497039096841F4D9
:1029600080310A4A703A116000BF00BF00BFBFF358
:102970004F8F00BF00BF00BF00BF00BF00BFBFF34D
:102980006F8F00BF00BF00BF7047000094ED00E0F4
:1029900010B501460846002817DB00F01F0301228E
:1029A0009A400B4B440943F8242000BF00BF00BFEE
:1029B000BFF34F8F00BF00BF00BF00BF00BF00BF0D
:1029C000BFF36F8F00BF00BF00BF00BF10BD00008E
:1029D00080E100E001460846002809DB00F01F0303
:1029E00001229A4043099B0003F1E023C3F8002130
:1029F00000BF70472DE9F05F80460D4616460EF089
:102A000007FF074639462A46334601F00700C0F162
:102A1000070ABAF1040F02D94FF0040A01E0C0F12D
:102A2000070AD14600F1040ABAF1070F02D24FF0AB
:102A3000000A01E0A0F1030AD4464FF0010A0AFAA5
:102A400009FAAAF1010A0AEA020A0AFA0CFA4FF094
:102A5000010B0BFA0CFBABF1010B0BEA030B4AEA7F
:102A60000B04214640460EF0DBFEBDE8F09F00005F
:102A700070B504461548006800F00400042807D02B
:102A80001248006800F00700A04201D0012070BD8C
:102A90000E48006820F0070020430C490860FFF74B
:102AA000C3FD054607E0FFF7BFFD401BB0F57A7F89
:102AB00001D90320EBE705480838006800F400500E
:102AC000B0F5005FEFD10020E1E700000C480258AC
:102AD00010B501F0EBF907490968C1F30321064A73
:102AE000515C01F01F01C8400449086008460068B5
:102AF00010BD0000184402587E4201080000002466
:102B000010B501F097F905490968C1F30211044AAB
:102B1000515C01F01F01C84010BD00002044025864
:102B20007E42010870B50146844D2D6805F003030F
:102B3000824D2D68C5F30530804D2D1D2D6805F0A3
:102B400010047E4D14352D68C5F3CC0515FB04F536
:102B500001EE105AB8EE411AF0EE410A00286FD08B
:102B600023B1012B4ED0022B6BD16BE0734D283D6E
:102B70002D68C5F340153DB3704D283D2D68C5F354
:102B8000C1066F4D25FA06F201EE102AF8EE411A41
:102B900001EE100AB8EE411A81EE812A9FED691A02
:102BA000C0EE811A654D10352D68C5F3080501EE9C
:102BB000105AB8EE411A31EE811AF7EE001A31EED2
:102BC000211A22EE010A1CE001EE100AB8EE411AA9
:102BD000DFED5D1A81EE812A9FED5A1AC0EE811A4F
:102BE000564D10352D68C5F3080501EE105AB8EEA4
:102BF000411A31EE811AF7EE001A31EE211A22EE57
:102C0000010A5BE001EE100AB8EE411ADFED4F1A3F
:102C100081EE812A9FED4B1AC0EE811A474D103587
:102C20002D68C5F3080501EE105AB8EE411A31EED1
:102C3000811AF7EE001A31EE211A22EE010A3DE068
:102C400077E01DE001EE100AB8EE411A9FED402A30
:102C5000C2EE011A9FED3B1A80EE812A374D1035E6
:102C60002D68C5F3080501EE105AB8EE411A32EE90
:102C7000011AB7EE002A31EE021A21EE810A1DE098
:102C800001EE100AB8EE411ADFED301A81EE812A0A
:102C90009FED2C1AC0EE811A284D10352D68C5F312
:102CA000080501EE105AB8EE411A31EE811AF7EE1E
:102CB000001A31EE211A22EE010A00BF00BF1F4D9B
:102CC00010352D68C5F3462501EE105AB8EE411AAD
:102CD000F7EE001A31EE211AC0EE011ABCEEE11A2D
:102CE00081ED001A154D10352D68C5F3064501EE2E
:102CF000105AB8EE411AF7EE001A31EE211AC0EE62
:102D0000011ABCEEE11A81ED011A0C4D10352D6847
:102D1000C5F3066501EE105AB8EE411AF7EE001A37
:102D200031EE211AC0EE011ABCEEE11A81ED021A51
:102D300003E000250D604D608D6070BD2844025891
:102D40000090D003000000460024744C0024744A14
:102D500020BCBE4B70B50146844D2D6805F00303C1
:102D6000824D2D68C5F30550804D2D1D2D6805F44D
:102D700080747E4D1C352D68C5F3CC0515FB04F51C
:102D800001EE105AB8EE411AF0EE410A00286FD059
:102D900023B1012B4ED0022B6BD16BE0734D283D3C
:102DA0002D68C5F340153DB3704D283D2D68C5F322
:102DB000C1066F4D25FA06F201EE102AF8EE411A0F
:102DC00001EE100AB8EE411A81EE812A9FED691AD0
:102DD000C0EE811A654D18352D68C5F3080501EE62
:102DE000105AB8EE411A31EE811AF7EE001A31EEA0
:102DF000211A22EE010A1CE001EE100AB8EE411A77
:102E0000DFED5D1A81EE812A9FED5A1AC0EE811A1C
:102E1000564D18352D68C5F3080501EE105AB8EE69
:102E2000411A31EE811AF7EE001A31EE211A22EE24
:102E3000010A5BE001EE100AB8EE411ADFED4F1A0D
:102E400081EE812A9FED4B1AC0EE811A474D18354D
:102E50002D68C5F3080501EE105AB8EE411A31EE9F
:102E6000811AF7EE001A31EE211A22EE010A3DE036
:102E700077E01DE001EE100AB8EE411A9FED402AFE
:102E8000C2EE011A9FED3B1A80EE812A374D1835AC
:102E90002D68C5F3080501EE105AB8EE411A32EE5E
:102EA000011AB7EE002A31EE021A21EE810A1DE066
:102EB00001EE100AB8EE411ADFED301A81EE812AD8
:102EC0009FED2C1AC0EE811A284D18352D68C5F3D8
:102ED000080501EE105AB8EE411A31EE811AF7EEEC
:102EE000001A31EE211A22EE010A00BF00BF1F4D69
:102EF00018352D68C5F3462501EE105AB8EE411A73
:102F0000F7EE001A31EE211AC0EE011ABCEEE11AFA
:102F100081ED001A154D18352D68C5F3064501EEF3
:102F2000105AB8EE411AF7EE001A31EE211AC0EE2F
:102F3000011ABCEEE11A81ED011A0C4D18352D680D
:102F4000C5F3066501EE105AB8EE411AF7EE001A05
:102F500031EE211AC0EE011ABCEEE11A81ED021A1F
:102F600003E000250D604D608D6070BD284402585F
:102F70000090D003000000460024744C0024744AE2
:102F800020BCBE4B2DE9F04104460025A846206830
:102F900000F00060B0F1006F30D1606E48B1B0F564
:102FA000801F0DD0B0F5001F10D0B0F5401F15D117
:102FB00013E0F948006840F40030F74908600FE07A
:102FC0000221201D02F016FE054609E0022104F14F
:102FD000240002F0C1FE054602E001E0012500BF29
:102FE00000BF55B9EC482430006820F44010616EF1
:102FF0000843E9492431086000E0A846208800F42D
:103000008070B0F5807F2DD1606D05281AD2DFE881
:1030100000F0030A10171800DF48006840F4003081
:10302000DD49086010E00021201D02F0E3FD0546A7
:103030000AE0002104F1240002F08EFE054603E0C0
:1030400002E001E0012500BF00BF55B9D24824309D
:10305000006820F00700616D0843CF492431086003
:1030600000E0A846208800F40070B0F5007F33D15E
:10307000A06D802817D003DC40B140281CD10CE0A3
:10308000C02817D0B0F5807F16D114E0C248006880
:1030900040F40030C049086010E00021201D02F01B
:1030A000A9FD05460AE0002104F1240002F054FEC7
:1030B000054603E002E001E0012500BF00BF55B96D
:1030C000B5482430006820F4E070A16D0843B2498F
:1030D0002431086000E0A846208800F48060B0F544
:1030E000806F38D1D4F8A400B0F5800F19D004DC7B
:1030F00050B1B0F5001F1DD10DE0B0F5C00F17D0D5
:10310000B0F5000F16D114E0A348006840F4003079
:10311000A149086010E00021201D02F06BFD05466A
:103120000AE0002104F1240002F016FE054603E047
:1031300002E001E0012500BF00BF5DB996482C30D8
:10314000006820F46000D4F8A410084392492C31A0
:10315000086000E0A846208800F40060B0F5006F29
:1031600038D1D4F8A800B0F1007F19D004DC50B1F8
:10317000B0F1807F1DD10DE0B0F1407F17D0B0F1EC
:10318000806F16D114E08448006840F40030824912
:10319000086010E00021201D02F02CFD05460AE029
:1031A000002104F1240002F0D7FD054603E002E00F
:1031B00001E0012500BF00BF5DB977482C300068F1
:1031C00020F0E060D4F8A810084373492C3108605F
:1031D00000E0A846206800F00070B0F1007F27D121
:1031E000A06CA0B1102804D0202809D030280FD11D
:1031F0000CE06948006840F400306749086009E065
:103200000221201D02F0F6FC054603E002E001E089
:10321000012500BF00BF55B95F482030006820F08D
:103220003000A16C08435C492031086000E0A846EA
:10323000208800F48050B0F5805F36D1E06DB0F5A5
:10324000005F19D004DC50B1B0F5805F1DD10DE0F6
:10325000B0F5405F17D0B0F5804F16D114E04E485E
:10326000006840F400304C49086010E00021201D47
:1032700002F0C0FC05460AE0002104F1240002F03F
:103280006BFD054603E002E001E0012500BF00BF41
:1032900055B941482430006820F4E040E16D08430E
:1032A0003D492431086000E0A846208800F4005021
:1032B000B0F5005F34D1206EB0F5403F1DD007DC83
:1032C00068B1B0F5803F0BD0B0F5003F18D10DE0EC
:1032D000B0F5802F12D0B0F5A02F11D10FE011E082
:1032E0000121201D02F086FC05460BE0012104F1BE
:1032F000240002F031FD054604E003E002E001E0B5
:10330000012500BF00BF55B923482430006820F4D0
:10331000E020216E084320492431086000E0A846DF
:10332000208800F48040B0F5804F38D1D4F8AC004C
:10333000B0F1405F1DD007DC68B1B0F1805F0BD009
:10334000B0F1005F18D10DE0B0F1804F12D0B0F1B4
:10335000A04F11D10FE011E00121201D02F04AFC25
:1033600005460BE0012104F1240002F0F5FC0546BE
:1033700004E003E002E001E0012500BF00BF6DB9F9
:1033800005482C30006820F0E040D4F8AC10084329
:1033900001492C31086002E02C440258A8462088DC
:1033A00000F40040B0F5004F26D1E06E98B1B0F1C6
:1033B000805F03D0B0F1005F0ED106E0F9480068ED
:1033C00040F40030F749086008E00121201D02F0B8
:1033D00011FC054602E001E0012500BF00BF55B920
:1033E000F0482430006820F04050E16E0843ED4979
:1033F0002431086000E0A846206800F08070B0F139
:10340000807F27D1606CA0B1012804D0022809D0A8
:1034100003280FD10CE0E348006840F40030E14994
:10342000086009E00221201D02F0E4FB054603E0EC
:1034300002E001E0012500BF00BF55B9D9482030A6
:10344000006820F00300616C0843D6492031086011
:1034500000E0A846206800F48000B0F5800F7DD120
:10346000D148006840F48070CF490860FFF7DCF86D
:10347000064606E0FFF7D8F8801B642801D903252B
:1034800005E0C948006800F480700028F2D000BF51
:1034900085BBC4484430006800F44070B4F8B010F4
:1034A00001F44071884213D0BE484430006820F4D3
:1034B0004077BC484430006840F48030B94944311A
:1034C00008600846006820F48030086008460760FD
:1034D000D4F8B000B0F5807F15D1FFF7A5F8064607
:1034E00009E0FFF7A1F8801B41F28831884202D938
:1034F000032507E038E0AB4844300068C0F34000E3
:103500000028EED000BF55BB00BFB4F8B00000F4F7
:103510004070B0F5407F0ED1A2481C38006820F4FE
:103520007C51A24AD4F8B000104041EA10109D49E5
:103530001C39086007E09B481C38006820F47C5068
:1035400098491C390860974844300068B4F8B010B6
:10355000C1F30B0108439349443101E005E001E068
:10356000086002E0A84600E0A846207800F00100CC
:1035700068B3A06F182819D005DC48B1082808D016
:10358000102816D10BE0202811D0282811D10FE0E7
:1035900011E00121201D02F02DFB05460BE0012169
:1035A00004F1240002F0D8FB054604E003E002E049
:1035B00001E0012500BF00BF55B97A4828300068F6
:1035C00020F03800A16F084376492831086000E0F8
:1035D000A846207800F00200022828D1606F062853
:1035E00015D2DFE800F003040A11121311E00121E3
:1035F000201D02F0FFFA05460BE0012104F1240032
:1036000002F0AAFB054604E003E002E001E0012528
:1036100000BF00BF55B963482830006820F007009C
:10362000616F08435F492831086000E0A8462078B0
:1036300000F0040004282AD1D4F89000062815D2FE
:10364000DFE800F003040A11121311E00121201D2C
:1036500002F0D0FA05460BE0012104F1240002F04B
:103660007BFB054604E003E002E001E0012500BF2A
:1036700000BF5DB94B482C30006820F00700D4F83B
:103680009010084347492C31086000E0A846207894
:1036900000F02000202836D1D4F88C00B0F1405F33
:1036A0001DD007DC68B1B0F1805F0BD0B0F1005FD6
:1036B00018D10DE0B0F1804F12D0B0F1A04F11D170
:1036C0000FE011E00021201D02F094FA05460BE006
:1036D000022104F1240002F03FFB054604E003E070
:1036E00002E001E0012500BF00BF5DB92D48283090
:1036F000006820F0E040D4F88C10084329492831B4
:10370000086000E0A846207800F04000402836D14C
:10371000D4F89800B0F5406F1DD007DC68B1B0F563
:10372000806F0BD0B0F5006F18D10DE0B0F5805F61
:1037300012D0B0F5A05F11D10FE011E00021201DE3
:1037400002F058FA05460BE0022104F1240002F0D1
:1037500003FB054604E003E002E001E0012500BFB1
:1037600000BF5DB90F482C30006820F4E050D4F859
:10377000981008430B492C31086000E0A8462078D7
:1037800000F0800080283AD1D4F89C00B0F5C04FFA
:1037900023D00DDC98B1B0F5005F11D0B0F5804FAB
:1037A0001ED113E02C44025800480258FFFCFF0FC2
:1037B000B0F5004F12D0B0F5204F11D10FE011E05D
:1037C0000021201D02F016FA05460BE0022104F14B
:1037D000240002F0C1FA054604E003E002E001E043
:1037E000012500BF00BF4DB9B648006820F4604015
:1037F000D4F89C100843B349086000E0A84620783C
:1038000000F00800082818D1D4F88000B0F5805FD7
:1038100008D1022104F1240002F09EFA68B14FF0B1
:1038200001080AE0A748001F006820F44050D4F8BF
:1038300080100843A349091F0860207800F0100099
:10384000102816D1D4F89400B0F5807F08D1022159
:1038500004F1240002F080FA58B14FF0010808E0AA
:103860009848006820F44070D4F8941008439549B3
:103870000860206800F40020B0F5002F26D1D4F8AD
:10388000A00030B1B0F5803F09D0B0F5003F0ED1B7
:103890000CE00021201D02F0ADF9054609E00221EF
:1038A00004F1240002F058FA054602E001E0012587
:1038B00000BF00BF4DB98348006820F44030D4F801
:1038C000A01008437F49086000E0A846206800F483
:1038D0008020B0F5802F2DD1D4F88400B0F5801F62
:1038E00006D0B0F5001F0CD0B0F5401F11D10FE08D
:1038F00074482C38006840F4003072492C39086054
:1039000009E0012104F1240002F026FA054602E054
:1039100001E0012500BF00BF5DB96A48001F0068D3
:1039200020F44010D4F8841008436649091F086049
:1039300000E0A846206800F48030B0F5803F24D134
:10394000E06C18B1B0F5803F0FD108E05D482C382D
:10395000006840F400305B492C39086007E0022120
:10396000201D02F047F9054601E0012500BF00BF18
:1039700055B954480C38006820F48030E16C084395
:1039800050490C39086000E0A846206800F000505B
:10399000B0F1005F07D1022104F1240002F0DCF94C
:1039A00008B14FF00108206800F40030B0F5003F86
:1039B00027D1E06FA0B1B0F5807F06D0B0F5007FD1
:1039C0000CD0B0F5407F0CD109E03E482C3800689F
:1039D00040F400303B492C39086004E003E002E089
:1039E00001E0012500BF00BF55B93648001F00683F
:1039F00020F44070E16F08433249091F086000E07D
:103A0000A846206800F48010B0F5801F09D12D4829
:103A10000838006820F00040216F08432949083920
:103A20000860206800F08050B0F1805F0AD125481E
:103A30004838006820F48040D4F8B4100843214985
:103A400048390860206800F40010B0F5001F09D163
:103A50001C480838006820F08070A16E084319499E
:103A600008390860206800F08040B0F1804F11D123
:103A700000BF14484838006820F400401149483914
:103A8000086008460068D4F8B81008430D49483962
:103A9000086000BF206800F00040B0F1004F09D17D
:103AA00008480C38006820F04050216D0843054953
:103AB0000C390860B8F1000F02D10020BDE8F08198
:103AC0000120FBE7584402582DE9F04104460D4619
:103AD00014B90120BDE8F081B648006800F00F007D
:103AE000A8420ED2B348006820F00F002843B14925
:103AF00008600846006800F00F00A84201D00120CD
:103B0000E8E7207800F0040004280ED1AA492069D3
:103B1000096801F07001884207D9A748006820F0C1
:103B2000700021690843A4490860207800F008006B
:103B3000082811D1A049091D6069096801F07001C8
:103B4000884209D99C48001D006820F07000616916
:103B500008439949091D0860207800F010001028DA
:103B600011D19549091DA069096801F4E0618842F5
:103B700009D99148001D006820F4E060A16908435C
:103B80008D49091D0860207800F02000202811D1FF
:103B900089490831E069096801F07001884209D952
:103BA00085480830006820F07000E16908438249C8
:103BB00008310860207800F0020002280ED17E490A
:103BC000E068096801F00F01884207D97A48006867
:103BD00020F00F00E168084377490860207800F082
:103BE0000100002850D07448006820F47060A1687B
:103BF0000843714908606068022807D16E48183888
:103C00000068C0F34040F8B9012063E7606803280A
:103C100007D1694818380068C0F34060A0B9012096
:103C200058E76068012807D1634818380068C0F376
:103C3000002048B901204DE75F4818380068C0F3FC
:103C4000800008B9012045E75B480838006820F08B
:103C5000070061680843584908390860FEF7E4FC2A
:103C6000064608E0FEF7E0FC801B41F288318842FE
:103C700001D903202EE750480838006800F03800CA
:103C80006168B0EBC10FEDD1207800F0020002288E
:103C90000ED14949E068096801F00F01884207D256
:103CA0004548006820F00F00E16808434249086079
:103CB0004048006800F00F00A8420ED93D48006857
:103CC00020F00F0028433B4908600846006800F0D8
:103CD0000F00A84201D00120FCE6207800F004008B
:103CE00004280ED134492069096801F07001884226
:103CF00007D23148006820F07000216908432E493E
:103D00000860207800F00800082811D12A49091D10
:103D10006069096801F07001884209D22648001DD7
:103D2000006820F07000616908432349091D08609C
:103D3000207800F01000102811D11F49091DA0693A
:103D4000096801F4E061884209D21B48001D00683F
:103D500020F4E060A16908431749091D0860207834
:103D600000F02000202811D113490831E0690968CA
:103D700001F07001884209D20F480830006820F035
:103D80007000E16908430C490831086000F08EF8C2
:103D900009490968C1F30321084A515C01F01F0178
:103DA000C8400749086007480068FEF74BFC074613
:103DB00038468FE600200052184402587E4201081F
:103DC000000000240C0000243F220260174A126801
:103DD00002F007024260154A0832126802F470626B
:103DE0008260124A0832126802F00F02C2600F4A63
:103DF0000832126802F0700202610C4A0C3212683A
:103E000002F070024261094A0C32126802F4E06268
:103E10008261064A1032126802F07002C261044ADE
:103E2000126802F00F020A60704700001044025846
:103E30000020005210B5FEF74BFE0749096801F05B
:103E40000F01064A515C01F01F01C8400449086097
:103E50000846006810BD0000184402587E42010860
:103E60000400002410B5FFF7E5FF05490968C1F318
:103E70000211044A515C01F01F01C84010BD00004E
:103E80001C4402587E42010810B5FFF7D3FF0549D4
:103E90000968C1F30221044A515C01F01F01C840C6
:103EA00010BD00001C4402587E420108F0B5824E4D
:103EB000366806F0380636B1082E15D0102E15D00B
:103EC000182E7DD114E07C4E103E3668C6F34016A5
:103ED00046B1794E103E3668C6F3C107774E26FAD2
:103EE00007F000E07548E5E07548E3E07548E1E07B
:103EF000714E1836366806F003046F4E1836366871
:103F0000C6F305116C4E1C36366806F001056A4E84
:103F100024363668C6F3CC0616FB05F601EE106AA9
:103F2000B8EE410A002971D024B1012C50D0022CE6
:103F30006DD16DE0604E103E3668C6F340163EB35C
:103F40005D4E103E3668C6F3C1075C4E26FA07F395
:103F500001EE103AF8EE411A01EE101AB8EE411ACD
:103F600081EE812A9FED581AC0EE011A524E20367A
:103F70003668C6F3080601EE106AB8EE411A31EE53
:103F8000811AF7EE001A31EE211A62EE010A1EE0E4
:103F900001EE101AB8EE411ADFED4C1A81EE812ABB
:103FA0009FED491AC0EE011A434E20363668C6F31B
:103FB000080601EE106AB8EE411A31EE811A00E0EF
:103FC00076E0F7EE001A31EE211A62EE010A5BE0AC
:103FD00001EE101AB8EE411A9FED3D2AC2EE011A09
:103FE0009FED391A80EE012A334E20363668C6F32B
:103FF000080601EE106AB8EE411A32EE011AB7EE69
:10400000002A31EE021A61EE810A3DE04EE01DE029
:1040100001EE101AB8EE411ADFED2E1A81EE812A58
:104020009FED291AC0EE011A234E20363668C6F3DA
:10403000080601EE106AB8EE411A31EE811AF7EE69
:10404000001A31EE211A62EE010A1DE001EE101A8B
:10405000B8EE411A9FED1E2AC2EE011A9FED1A1A00
:1040600080EE012A144E20363668C6F3080601EEAB
:10407000106AB8EE411A32EE011AB7EE002A31EE9C
:10408000021A61EE810A00BF00BF0B4E203636686F
:10409000C6F34626721C01EE102AB8EE411AC0EE95
:1040A000811ABCEEE11A11EE100A00E0002001E0D6
:1040B000034800BF00BFF0BD104402580090D00379
:1040C00000093D0040787D01000000460024744C4A
:1040D0000024744A20BCBE4B2DE9F041044614B9BB
:1040E0000120BDE8F081207800F00100002871D0A7
:1040F000F848006800F03806F64818300768102EB7
:1041000005D0182E0FD107F0030002280BD1F1487B
:1041100010380068C0F3404000286AD0606800286A
:1041200067D10120DDE700BF6068B0F5803F08D1AE
:10413000E8481038006840F48030E64910390860DB
:104140002EE0606868B9E3481038006820F48030D9
:10415000E049103908600846006820F480200860B3
:104160001EE06068B0F5A02F0DD1DA481038006865
:1041700040F48020D749103908600846006840F4B0
:10418000803008600CE0D3481038006820F480309C
:10419000D049103908600846006820F48020086083
:1041A00000BF606890B1FEF73FFA054606E0FEF7F3
:1041B0003BFA401B642801D9032092E7C548103818
:1041C0000068C0F340400028F1D012E0FEF72CFA5E
:1041D000054607E00EE0FEF727FA401B642801D9E8
:1041E00003207EE7BB4810380068C0F34040002839
:1041F000F1D100BF207800F0020002287ED1B5483E
:10420000006800F03806B3481830076826B1182E49
:1042100048D107F00300C0BBAE4810380068C0F3B7
:10422000800018B1E06808B901205AE7A9481038A1
:10423000006820F01900E1680843A64910390860B9
:10424000FEF7F2F9054606E0FEF7EEF9401B0228FC
:1042500001D9032045E79F4810380068C0F380006B
:104260000028F1D000BFFEF7D9F941F203018842DE
:104270000CD898480C38006820F47C30216940EA5A
:10428000013094490C3908600BE00BE091480C3880
:10429000006820F0FE40217C40EA01608D490C3925
:1042A000086059E0E06850B38A481038006820F090
:1042B0001900E1680843874910390860FEF7B4F92E
:1042C000054606E0FEF7B0F9401B022801D903209D
:1042D00007E7804810380068C0F380000028F1D05C
:1042E00000BFFEF79BF941F2030188420ED87948DE
:1042F0000C38006820F47C30216901E02DE011E0E9
:1043000040EA013073490C3908600AE071480C3802
:10431000006820F0FE40217C40EA01606D490C39C4
:10432000086019E06B481038006820F00100694906
:1043300010390860FEF778F9054606E0FEF774F9D3
:10434000401B022801D90320CBE6624810380068E0
:10435000C0F380000028F1D100BF207800F01000E9
:10436000102878D15B48006800F0380659481830AA
:104370000768082E05D0182E2FD107F0030001285A
:104380002BD1544810380068C0F3002020B1E069F8
:10439000802801D00120A4E600BFFEF73FF941F2DA
:1043A000030188420CD84B480C38006820F0F840D4
:1043B00094F8201040EA816046490C3908600BE00F
:1043C0004448001F006820F07C5094F8201040EA18
:1043D00001604049091F086058E0E069D0B33D48DA
:1043E0001038006840F080003A4910390860FEF744
:1043F0001BF9054606E0FEF717F9401B022801D914
:1044000003206EE6334810380068C0F3002000280F
:10441000F1D000BFFEF702F941F2030188420CD847
:104420002C480C38006820F0F84094F8201040EA3E
:10443000816028490C3908600BE02648001F00689D
:1044400020F07C5094F8201040EA01602149091FB7
:1044500008601BE000E01AE01E481038006820F0F9
:1044600080001C4910390860FEF7DEF8054606E0BA
:10447000FEF7DAF8401B022801D9032031E615487F
:1044800010380068C0F300200028F1D100BF207868
:1044900000F00800082836D16069E8B10D486430A2
:1044A000006840F001000B4964310860FEF7BCF879
:1044B000054606E0FEF7B8F8401B022801D90320A4
:1044C0000FE6044864300068C0F340000028F1D0D3
:1044D00019E0000010440258CF48006820F00100A5
:1044E000CD490860FEF7A0F8054606E0FEF79CF807
:1044F000401B022801D90320F3E5C7480068C0F338
:1045000040000028F2D1207800F02000202836D189
:10451000A069D0B1C0487438006840F48050BE49EA
:1045200074390860FEF780F8054606E0FEF77CF86F
:10453000401B022801D90320D3E5B748743800682E
:10454000C0F340300028F1D019E0B3487438006857
:1045500020F48050B04974390860FEF765F80546CC
:1045600006E0FEF761F8401B022801D90320B8E5F8
:10457000A94874380068C0F340300028F1D1207891
:1045800000F0040004287DD1A448006840F4807045
:10459000A2490860FEF748F8054606E0FEF744F831
:1045A000401B642801D903209BE59C48006800F467
:1045B00080700028F2D000BFA068012808D196487A
:1045C000001F006840F001009349091F08602DE0BA
:1045D000A06868B99048001F006820F001008E496B
:1045E000091F08600846006820F0040008601DE00C
:1045F000A06805280DD18848001F006840F004001D
:104600008549091F08600846006840F001000860FD
:104610000CE08148001F006820F001007E49091F5E
:1046200008600846006820F00400086000BFA06829
:10463000A0B1FDF7F9FF054608E0FDF7F5FF401BC7
:1046400041F28831884201D903204AE57248001FAF
:104650000068C0F340000028EFD013E0FDF7E4FF4E
:10466000054608E0FDF7E0FF401B41F28831884233
:1046700001D9032035E56848001F0068C0F34000F9
:104680000028EFD1606A00287ED063486438006853
:1046900000F03800182878D0606A022876D15E4889
:1046A0007438006820F080705B4974390860FDF749
:1046B000BBFF054606E0FDF7B7FF401B022801D906
:1046C00003200EE5544874380068C0F340600028A9
:1046D000F1D100BFD4E90A1041EA00104E494C392B
:1046E000096840F2F332914308434B494C39086062
:1046F000208E401EC0F30800616B491E4FF47E42BD
:1047000002EA41210843218F491ED20102EA0141F8
:1047100008433C21095D491E120202EA0161084377
:104720003D494439086000BF081F006820F00100BF
:10473000091F08603848403800684FF6F871884310
:10474000A16C40EAC1003449403908603248483819
:10475000006820F00C00216C08432F49483908609C
:104760000846006820F00200616C08432A49483975
:1047700008600846006840F4803008600846006819
:1047800040F40030086002E043E040E024E00846E6
:10479000006840F4802008600846006840F001008E
:1047A00008601D487438006840F080701A497439F8
:1047B0000860FDF739FF054606E0FDF735FF401BB1
:1047C000022801D903208CE4134874380068C0F330
:1047D00040600028F1D01CE00F487438006820F0D9
:1047E00080700D4974390860FDF71EFF054606E02C
:1047F000FDF71AFF401B022801D9032071E4064887
:1048000074380068C0F340600028F1D101E0012055
:1048100067E4002065E40000744402580048025830
:1048200070B504460D460CB9012070BD94F82C00FB
:1048300028B9002084F82D00204600F019F8022045
:1048400084F82C00211D2068FDF738F82946D4E9AA
:104850000002FDF785F80548006840F00040034974
:104860000860012084F82C000020DEE700400052A0
:10487000704770B504460D4694F82C00022800D10C
:1048800070BD94F82C0001280AD1022084F82C0075
:1048900029462068FDF748F8012084F82C0001E043
:1048A0000120EDE70020EBE72DE9F04104460E463C
:1048B000174694F82C50022D02D10220BDE8F08159
:1048C000012D01D0052D12D1022084F82C003A468A
:1048D00031462068FDF732F83068022803D1052000
:1048E00084F82C0005E0012084F82C0001E0012070
:1048F000E4E70020E2E70000034A126882430A432B
:10490000014B1A607047000004040058704770475C
:10491000704710B504460CB9012010BD94F83D0055
:1049200028B9002084F83C00204600F00CF8022052
:1049300084F83D00211D20680BF00CF9012084F85B
:104940003D000020E9E7704701460868C06840F074
:1049500001000B68D86008688068084B00EA030211
:10496000062A08D0B2F5803F05D00868006840F0FC
:1049700001000B681860002070470000070001006C
:10498000704710B5044620680069C0F34000D8B1F4
:104990002068C068C0F34000B0B16FF00200216829
:1049A0000861012020772068806900F0030018B1B9
:1049B0002046FFF7E5FF05E0204600F0BEF8204660
:1049C00000F0BCF80020207720680069C0F3800068
:1049D000D8B12068C068C0F38000B0B16FF00400A7
:1049E00021680861022020772068806900F4407007
:1049F00018B12046FFF7C4FF05E0204600F09DF8FF
:104A0000204600F09BF80020207720680069C0F362
:104A1000C000D8B12068C068C0F3C000B0B16FF06A
:104A2000080021680861042020772068C06900F030
:104A3000030018B12046FFF7A3FF05E0204600F071
:104A40007CF8204600F07AF8002020772068006982
:104A5000C0F30010D8B12068C068C0F30010B0B136
:104A60006FF0100021680861082020772068C06975
:104A700000F4407018B12046FFF782FF05E02046A1
:104A800000F05BF8204600F059F8002020772068FD
:104A9000006900F0010058B12068C06800F0010012
:104AA00030B16FF0010021680861204600F047F83E
:104AB00020680069C0F3C01058B12068C068C0F316
:104AC000C01030B16FF08000216808612046FFF708
:104AD0001EFF20680069C0F3002058B12068C0683C
:104AE000C0F3C01030B16FF48070216808612046B7
:104AF000FFF70CFF20680069C0F3801058B12068F0
:104B0000C068C0F3801030B16FF0400021680861C8
:104B1000204600F015F820680069C0F3401058B135
:104B20002068C068C0F3401030B16FF020002168E9
:104B300008612046FFF7ECFE10BD704770477047D4
:104B4000704710B504460CB9012010BDA06900B132
:104B500000E000BFD4F8800028B9002084F87C0071
:104B6000204600F02AF82420C4F88000206800685D
:104B700020F001002168086020460BF01DF9012893
:104B800000D1E2E7A06A10B120460BF05FF8206880
:104B9000406820F49040216848602068806820F0D8
:104BA0002A00216888602068006840F001002168C0
:104BB000086020460BF0C6F8C7E770472DE9F84FAC
:104BC00004460E4617469946D4F8800020285DD149
:104BD00006B117B90120BDE8F88F00BF94F87C003A
:104BE000012801D10220F6E7012084F87C0000BFF3
:104BF0000020543460632120E062FDF715FD8246F9
:104C000027806780543CA068B0F5805F04D120699C
:104C100010B90025B04602E035464FF000081DE00F
:104C20005346002280212046CDF800900CF03CFC39
:104C300008B10320CFE745B9B8F80000C0F3080079
:104C40002168886208F1020803E0287821688862F8
:104C50006D1CB4F85600401EA4F85600B4F8560077
:104C60000028DDD15346002240212046CDF8009097
:104C70000CF01AFC08B10320ADE72020C4F8800036
:104C800000BF002084F87C0000BFA4E70220A2E758
:104C900000BFFEE700B587B000BF3748006840F4AA
:104CA0008000354908600846006800F480000190E3
:104CB00000BF00BF00BF30480838006840F08000E7
:104CC0002D49083908600846006800F0800001900E
:104CD00000BF00BF00BF0846006840F080000860C9
:104CE0000846006800F08000019000BF00BF00BFD0
:104CF0000846006840F0400008600846006800F080
:104D00004000019000BF00BF00BF0846006840F0AF
:104D1000400008600846006800F04000019000BFB5
:104D200000BF102002901120039002200590002067
:104D3000049002A91148FDF75FFB2020029002A910
:104D40000E48FDF759FB80200290012003900220BD
:104D50000590049002A90A48FDF74EFB0820029036
:104D60000120039002200590049002A90448FDF759
:104D700043FB07B000BD0000E8440258001C025885
:104D80000018025800B587B000BF1048006840F016
:104D900040000E4908600846006800F0400001909D
:104DA00000BF00BF0820029000200390049002A9D9
:104DB0000748FDF721FB012211460920FDF71AFEE5
:104DC0000920FDF7E5FD07B000BD0000E0440258F2
:104DD0000018025800B587B000BF1048006840F0C6
:104DE00040000E4908600846006800F0400001904D
:104DF00000BF00BF082002900948039000200490E3
:104E000002A90848FDF7F8FA012211460920FDF72A
:104E1000F1FD0920FDF7DEFD07B000BDE0440258BA
:104E2000000011110018025870B506460D461446D0
:104E30000EF070F846F001000EF03AF80EF09EF811
:104E400000B112E00BE00EF00FF828706D1C601E30
:104E500084B214B90DF0EEFF01E00DF0C5FF002C97
:104E6000F1D10EF075F8002070BD0EF071F8012040
:104E7000FAE7000000B585B00820009001200190FD
:104E800002200390029069461048FDF7B5FA00220F
:104E900080210E48FDF7BCFB0A20FCF725FB012210
:104EA00080210A48FDF7B4FB44F62060FCF71CFBA8
:104EB0000820009000200190022003900020029022
:104EC00069460248FDF798FA05B000BD001802587F
:104ED00010B5FFF7DFFEFFF7CDFFFCF7E5FE10BDD5
:104EE0002DE9F04105460F460024002600BF00BF13
:104EF00000BF2BE004EB440005EB8000807800F05D
:104F0000010088B104EB440305EB83039A8804EBAA
:104F1000440305EB8303996804EB440315F823006D
:104F2000FFF782FF064610E004EB440305EB830322
:104F30001A7904EB440305EB8303996804EB4403FB
:104F400015F8230000F00BF80646641C0EB9BC42AD
:104F5000D0D116B13046BDE8F0812046FBE72DE9FF
:104F6000F04104460D4617460DF0F2FF00260AE018
:104F70000DF0D0FF20460DF09BFF0DF0FFFF00B9B4
:104F800004E0701C86B2B6F57A7FF1DB00BFB6F59F
:104F90007A7F00D112E007E028780DF089FF0DF04C
:104FA000EDFF00B10AE06D1C381EA7F10101CFB280
:104FB000F2D10DF0CDFF0020BDE8F0810DF0C8FF6B
:104FC0000120F9E72DE9F0472DED048B06460F4649
:104FD00014461D46DDE90C89A01B08EE100AE81BEB
:104FE00008EE900AA4EB080009EE100AA5EB0900F0
:104FF00009EE900AF8EEE91AB8EEC91AF8EEE80AD6
:10500000B8EEC80AFCF747FBB5EEC00AF1EE10FA9D
:1050100004DD0120BDEC048BBDE8F0870020F9E73A
:105020002DE9FF4F83B014461D4610AE96E8C00F21
:105030002B462246CDE90067DDE90301FFF7C2FFF9
:10504000F0B93B463246CDE90089DDE90301FFF7BF
:10505000B9FFA8B94B464246CDE900ABDDE90301F3
:10506000FFF7B0FF60B95B465246CDE90045DDE988
:105070000301FFF7A7FF18B9012007B0BDE8F08FC3
:105080000020FAE77CB5044600F0E2FA054600F09D
:10509000CFFA06460020CDE900040848006800EB7E
:1050A000800202EBC002064800EB82002B4632462B
:1050B000416A0248006800F0FDFB7CBD4C00002402
:1050C000EC01002410B54FF0005008490860192089
:1050D00048624FF48771054881620221C162016311
:1050E0000A214163FDF74EFF10BD0000D4020024E9
:1050F00010B507480068806940F00100044909685C
:105100008861012251030348FDF782FA10BD0000B7
:10511000B4010024000C025800B587B000BFFE485F
:10512000006840F48070FC4908600846006800F49C
:105130008070019000BF00BF00BF0846006840F4C7
:10514000007008600846006800F40070019000BF1D
:1051500000BF00BF0846006840F4007008600846C1
:10516000006800F40070019000BF00BF00BF084657
:10517000006840F4007008600846006800F40070A1
:10518000019000BF00BF00BF0846006840F40070F7
:1051900008600846006800F40070019000BF00BF7E
:1051A00000BF0846006840F40070086008460068C8
:1051B00000F40070019000BF00BF00BF0846006807
:1051C00040F4007008600846006800F40070019028
:1051D00000BF00BF00BF0846006840F400700860D0
:1051E0000846006800F40070019000BF00BF00BFD7
:1051F0000846006840F4007008600846006800F443
:105200000070019000BF00BF00BF0846006840F476
:10521000007008600846006800F40070019000BF4C
:1052200000BF00BF0846006840F4007008600846F0
:10523000006800F40070019000BF00BF00BF084686
:10524000006840F4007008600846006800F40070D0
:10525000019000BF00BF00BF0846006840F4007026
:1052600008600846006800F40070019000BF00BFAD
:1052700000BF0846006840F4806008600846006887
:1052800000F48060019000BF00BF00BF08460068C6
:1052900040F4806008600846006800F48060019077
:1052A00000BF00BF00BF0846006840F4806008608F
:1052B0000846006800F48060019000BF00BF00BF96
:1052C0000846006840F4007008600846006800F472
:1052D0000070019000BF00BF00BF0846006840F4A6
:1052E000007008600846006800F40070019000BF7C
:1052F00000BF00BF0846006840F400700860084620
:10530000006800F40070019000BF00BF00BF0846B5
:10531000006840F4007008600846006800F40070FF
:10532000019000BF00BF00BF0846006840F48060E5
:1053300008600846006800F48060019000BF00BF6C
:1053400000BF0846006840F48060086008460068B6
:1053500000F48060019000BF00BF00BF08460068F5
:1053600040F4806008600846006800F480600190A6
:1053700000BF00BF00BF0846006840F480600860BE
:105380000846006800F48060019000BF00BF00BFC5
:105390000846006840F4807008600846006800F421
:1053A0008070019000BF00BF00BF0846006840F455
:1053B000807008600846006800F48070019000BFAB
:1053C00000BF00BF0846006840F4807008600846CF
:1053D000006800F48070019000BF00BF00BF084665
:1053E000006840F4806008600846006800F480604F
:1053F000019000BF00BF00BF0846006840F00800F1
:1054000008600846006800F00800019000BF00BF77
:1054100002200590039001200490C00302900E200A
:10542000069002A93D48FCF7E7FF012002900E20FC
:10543000069002A93A48FCF7DFFF022002900E20F6
:10544000069002A93648FCF7D7FF042002900E20F0
:10545000069002A93248FCF7CFFF082002900E20E8
:10546000069002A92E48FCF7C7FF102002900E20DC
:10547000069002A92A48FCF7BFFF202002900E20C8
:10548000069002A92648FCF7B7FF402002900E20A4
:10549000069002A92248FCF7AFFF802002900E2060
:1054A000069002A91E48FCF7A7FF4FF480700290F7
:1054B0000E20069002A91A48FCF79EFF4FF40070D8
:1054C00002900E20069002A91548FCF795FF4FF4B4
:1054D000806002900E20069002A91148FCF78CFF14
:1054E0004FF4006002900E20069002A90C48FCF7D1
:1054F00083FF012002900E20069002A90948FCF7C4
:105500007BFF022002900E20069002A90548FCF7BE
:1055100073FF0420029007E0E04402580020025884
:1055200000240258002802580E20069002A93C4888
:10553000FCF762FF4FF4805002900E20069002A903
:105540003848FCF759FF4FF4005002900E200690A7
:1055500002A93448FCF750FF4FF4804002900E201F
:10556000069002A92F48FCF747FF4FF40040029035
:105570000E20069002A92B48FCF73EFF082002905F
:105580000E20069002A92648FCF736FF1020029054
:105590000E20069002A92248FCF72EFF2020029040
:1055A0000E20069002A91E48FCF726FF402002901C
:1055B0000E20069002A91A48FCF71EFF4FF4804007
:1055C00002900E20069002A91748FCF715FF4FF431
:1055D000805002900E20069002A91348FCF70CFFA1
:1055E0004FF4005002900E20069002A90E48FCF7DE
:1055F00003FF802002900E20069002A90848FCF7C5
:10560000FBFE4FF400500290022005900120039011
:10561000049002A90548FCF7EFFE07B000BD0000AA
:10562000002802580024025800200258000C02589A
:105630000548006800EB800101EBC001034800EB66
:105640008100806A704700004C000024EC010024B7
:105650000548006800EB800101EBC001034800EB46
:105660008100C06A704700004C000024EC01002457
:1056700008B500BF2A48006840F0080028490860C3
:105680000846006800F00800009000BF00BF00BF9F
:1056900023481038006840F0100021491039086094
:1056A0000846006800F01000009000BF00BFFFF740
:1056B00009FDFFF731FD02F005F81A481A490860A4
:1056C00000211948416181612E21C16117210162C8
:1056D00040F24E31416240F2F71181624FF459714C
:1056E000C16240F20D2101634FF4487101664FF42D
:1056F000F0714166002180F8361080F8351080F88E
:105700003410002008494860002107488160C160CA
:105710000161FDF71DF8054800F060F808BD0000C4
:10572000E444025800100050B40100242400002476
:1057300070B58EB004460D46164600200190FFF766
:1057400077FF029000200390FFF782FF04900596F8
:105750000A95FF200690002007908DF83400002164
:105760008DF835108DF836104FF4C0600890072082
:105770000990FFF75DFF0B90FFF76AFF0C90224640
:1057800001A91048FCF7B4FF4FF0FF3004EB4401CF
:105790000D4A02EB810148600C4804EB440102EB26
:1057A000810188604FF07F4004EB440142F8210002
:1057B00004480068406A40F00100024909684862F4
:1057C0000EB070BDB4010024BC02002424000024EB
:1057D00001490860704700004C0000240449096832
:1057E00001EB4101034A02EB810188607047000030
:1057F0004C000024BC02002470B504460D4622462D
:1058000029460248FDF731F870BD0000B4010024BC
:1058100000B587B000BF2448006840F0020022496C
:1058200008600846006800F00200019000BF00BF59
:1058300000BF0846006840F00200086008460068A3
:1058400000F00200019000BF00BF00BF08460068E2
:1058500040F0010008600846006800F00100019077
:1058600000BF00BF01200290039004900220059029
:1058700002A90E48FCF7C0FD0220029002A90B48C5
:10588000FCF7BAFD0820029002A90948FCF7B4FD14
:1058900001200649183108600220086008200449E8
:1058A000886107B000BD0000E044025800040258BF
:1058B000000002582DE9F84304460D4616461F46DF
:1058C000DDE908984FF440303649486036480068B2
:1058D00000EB800101EBC001344800EB810000695E
:1058E000022803D102212F4881603DE02E48006844
:1058F00000EB800101EBC0012C4800EB8100006946
:1059000018B90021274881602EE02748006800EB85
:10591000800101EBC001254800EB810000690128EE
:1059200003D101211F4881601EE01F48006800EB81
:10593000800101EBC0011D4800EB810000690328D4
:1059400003D10321174881600EE01748006800EB7F
:10595000800101EBC001154800EB810000690428BB
:1059600002D104210F4881600E48C0F80C90104805
:105970000C4908600846FCF727FC80B92146094815
:10598000FCF7A0FB58B933462A4641460548009724
:10599000FCF70AFD18B90A210248FCF752FCBDE8E1
:1059A000F88300005C0200244C000024EC01002479
:1059B00000100052F0B58E880768FF68C7F30B47E8
:1059C0003E44330406688436802707FB0266766807
:1059D00006F47047066884364FF0800C0CFB0266B4
:1059E00077600E680768FF68C7F30B473E44761C74
:1059F0001E43076884370CFB02777E608E89076838
:105A0000FF68C7F30A073E443304066884368027DC
:105A100007FB0266B66806F47047066884360CFB1E
:105A20000266B7608E680768FF68C7F30A073E44DE
:105A3000761C46EA0307066884360CFB0266B760EC
:105A400006688436802707FB0266366926F007075A
:105A5000066884360CFB026637610F690668843677
:105A60000CFB026637613126765C33023226765CA7
:105A700034040E7E350606688436802707FB0266EE
:105A8000B6690027066884360CFB0266B76191F898
:105A900030601E43264346EA0507066884360CFB41
:105AA0000266B76106688436802707FB026676695E
:105AB00026F0FF07066884360CFB026677614F69A3
:105AC000066884360CFB0266776106688436802798
:105AD00007FB0266F66940F20777BE430768843722
